{
  "contractName": "ImnotArtExhibitions",
  "abi": [
    {
      "inputs": [],
      "stateMutability": "nonpayable",
      "type": "constructor"
    },
    {
      "anonymous": false,
      "inputs": [
        {
          "indexed": true,
          "internalType": "address",
          "name": "owner",
          "type": "address"
        },
        {
          "indexed": true,
          "internalType": "address",
          "name": "approved",
          "type": "address"
        },
        {
          "indexed": true,
          "internalType": "uint256",
          "name": "tokenId",
          "type": "uint256"
        }
      ],
      "name": "Approval",
      "type": "event"
    },
    {
      "anonymous": false,
      "inputs": [
        {
          "indexed": true,
          "internalType": "address",
          "name": "owner",
          "type": "address"
        },
        {
          "indexed": true,
          "internalType": "address",
          "name": "operator",
          "type": "address"
        },
        {
          "indexed": false,
          "internalType": "bool",
          "name": "approved",
          "type": "bool"
        }
      ],
      "name": "ApprovalForAll",
      "type": "event"
    },
    {
      "anonymous": false,
      "inputs": [
        {
          "indexed": false,
          "internalType": "string",
          "name": "_value",
          "type": "string"
        },
        {
          "indexed": true,
          "internalType": "uint256",
          "name": "_id",
          "type": "uint256"
        }
      ],
      "name": "PermanentURI",
      "type": "event"
    },
    {
      "anonymous": false,
      "inputs": [
        {
          "indexed": true,
          "internalType": "address",
          "name": "from",
          "type": "address"
        },
        {
          "indexed": true,
          "internalType": "address",
          "name": "to",
          "type": "address"
        },
        {
          "indexed": true,
          "internalType": "uint256",
          "name": "tokenId",
          "type": "uint256"
        }
      ],
      "name": "Transfer",
      "type": "event"
    },
    {
      "inputs": [
        {
          "internalType": "address",
          "name": "to",
          "type": "address"
        },
        {
          "internalType": "uint256",
          "name": "tokenId",
          "type": "uint256"
        }
      ],
      "name": "approve",
      "outputs": [],
      "stateMutability": "nonpayable",
      "type": "function"
    },
    {
      "inputs": [
        {
          "internalType": "address",
          "name": "owner",
          "type": "address"
        }
      ],
      "name": "balanceOf",
      "outputs": [
        {
          "internalType": "uint256",
          "name": "",
          "type": "uint256"
        }
      ],
      "stateMutability": "view",
      "type": "function",
      "constant": true
    },
    {
      "inputs": [
        {
          "internalType": "uint256",
          "name": "tokenId",
          "type": "uint256"
        }
      ],
      "name": "getApproved",
      "outputs": [
        {
          "internalType": "address",
          "name": "",
          "type": "address"
        }
      ],
      "stateMutability": "view",
      "type": "function",
      "constant": true
    },
    {
      "inputs": [
        {
          "internalType": "address",
          "name": "owner",
          "type": "address"
        },
        {
          "internalType": "address",
          "name": "operator",
          "type": "address"
        }
      ],
      "name": "isApprovedForAll",
      "outputs": [
        {
          "internalType": "bool",
          "name": "",
          "type": "bool"
        }
      ],
      "stateMutability": "view",
      "type": "function",
      "constant": true
    },
    {
      "inputs": [],
      "name": "name",
      "outputs": [
        {
          "internalType": "string",
          "name": "",
          "type": "string"
        }
      ],
      "stateMutability": "view",
      "type": "function",
      "constant": true
    },
    {
      "inputs": [
        {
          "internalType": "uint256",
          "name": "tokenId",
          "type": "uint256"
        }
      ],
      "name": "ownerOf",
      "outputs": [
        {
          "internalType": "address",
          "name": "",
          "type": "address"
        }
      ],
      "stateMutability": "view",
      "type": "function",
      "constant": true
    },
    {
      "inputs": [
        {
          "internalType": "address",
          "name": "from",
          "type": "address"
        },
        {
          "internalType": "address",
          "name": "to",
          "type": "address"
        },
        {
          "internalType": "uint256",
          "name": "tokenId",
          "type": "uint256"
        }
      ],
      "name": "safeTransferFrom",
      "outputs": [],
      "stateMutability": "nonpayable",
      "type": "function"
    },
    {
      "inputs": [
        {
          "internalType": "address",
          "name": "from",
          "type": "address"
        },
        {
          "internalType": "address",
          "name": "to",
          "type": "address"
        },
        {
          "internalType": "uint256",
          "name": "tokenId",
          "type": "uint256"
        },
        {
          "internalType": "bytes",
          "name": "_data",
          "type": "bytes"
        }
      ],
      "name": "safeTransferFrom",
      "outputs": [],
      "stateMutability": "nonpayable",
      "type": "function"
    },
    {
      "inputs": [
        {
          "internalType": "address",
          "name": "operator",
          "type": "address"
        },
        {
          "internalType": "bool",
          "name": "approved",
          "type": "bool"
        }
      ],
      "name": "setApprovalForAll",
      "outputs": [],
      "stateMutability": "nonpayable",
      "type": "function"
    },
    {
      "inputs": [
        {
          "internalType": "bytes4",
          "name": "interfaceId",
          "type": "bytes4"
        }
      ],
      "name": "supportsInterface",
      "outputs": [
        {
          "internalType": "bool",
          "name": "",
          "type": "bool"
        }
      ],
      "stateMutability": "view",
      "type": "function",
      "constant": true
    },
    {
      "inputs": [],
      "name": "symbol",
      "outputs": [
        {
          "internalType": "string",
          "name": "",
          "type": "string"
        }
      ],
      "stateMutability": "view",
      "type": "function",
      "constant": true
    },
    {
      "inputs": [
        {
          "internalType": "uint256",
          "name": "index",
          "type": "uint256"
        }
      ],
      "name": "tokenByIndex",
      "outputs": [
        {
          "internalType": "uint256",
          "name": "",
          "type": "uint256"
        }
      ],
      "stateMutability": "view",
      "type": "function",
      "constant": true
    },
    {
      "inputs": [
        {
          "internalType": "address",
          "name": "owner",
          "type": "address"
        },
        {
          "internalType": "uint256",
          "name": "index",
          "type": "uint256"
        }
      ],
      "name": "tokenOfOwnerByIndex",
      "outputs": [
        {
          "internalType": "uint256",
          "name": "",
          "type": "uint256"
        }
      ],
      "stateMutability": "view",
      "type": "function",
      "constant": true
    },
    {
      "inputs": [],
      "name": "totalSupply",
      "outputs": [
        {
          "internalType": "uint256",
          "name": "",
          "type": "uint256"
        }
      ],
      "stateMutability": "view",
      "type": "function",
      "constant": true
    },
    {
      "inputs": [
        {
          "internalType": "address",
          "name": "from",
          "type": "address"
        },
        {
          "internalType": "address",
          "name": "to",
          "type": "address"
        },
        {
          "internalType": "uint256",
          "name": "tokenId",
          "type": "uint256"
        }
      ],
      "name": "transferFrom",
      "outputs": [],
      "stateMutability": "nonpayable",
      "type": "function"
    },
    {
      "inputs": [
        {
          "internalType": "address",
          "name": "artistAddress",
          "type": "address"
        },
        {
          "internalType": "string",
          "name": "metadataUri",
          "type": "string"
        },
        {
          "internalType": "bool",
          "name": "transferToMarketplaceContract",
          "type": "bool"
        }
      ],
      "name": "mintToken",
      "outputs": [
        {
          "internalType": "uint256",
          "name": "tokenId",
          "type": "uint256"
        }
      ],
      "stateMutability": "nonpayable",
      "type": "function"
    },
    {
      "inputs": [
        {
          "internalType": "address",
          "name": "newPayoutAddress",
          "type": "address"
        }
      ],
      "name": "updateImnotArtPayoutAddress",
      "outputs": [],
      "stateMutability": "nonpayable",
      "type": "function"
    },
    {
      "inputs": [
        {
          "internalType": "uint256",
          "name": "tokenId",
          "type": "uint256"
        }
      ],
      "name": "tokenURI",
      "outputs": [
        {
          "internalType": "string",
          "name": "",
          "type": "string"
        }
      ],
      "stateMutability": "view",
      "type": "function",
      "constant": true
    },
    {
      "inputs": [],
      "name": "contractURI",
      "outputs": [
        {
          "internalType": "string",
          "name": "",
          "type": "string"
        }
      ],
      "stateMutability": "view",
      "type": "function",
      "constant": true
    }
  ],
  "bytecode": "0x60806040526001600a553480156200001657600080fd5b50604080518082018252601481527f696d6e6f744172742045786869626974696f6e7300000000000000000000000060208083019182528351808501909452600884527f494d4e4f544152540000000000000000000000000000000000000000000000009084015281519192916200009191600091620000ca565b508051620000a7906001906020840190620000ca565b5050336000908152600e60205260409020805460ff1916600117905550620001c6565b828054620000d89062000170565b90600052602060002090601f016020900481019282620000fc576000855562000147565b82601f106200011757805160ff191683800117855562000147565b8280016001018555821562000147579182015b82811115620001475782518255916020019190600101906200012a565b506200015592915062000159565b5090565b5b808211156200015557600081556001016200015a565b6002810460018216806200018557607f821691505b60208210811415620001c0577f4e487b7100000000000000000000000000000000000000000000000000000000600052602260045260246000fd5b50919050565b611ba480620001d66000396000f3fe608060405234801561001057600080fd5b506004361061013e576000357c0100000000000000000000000000000000000000000000000000000000900480634f6ccce7116100ca578063b88d4fde1161008e578063b88d4fde1461026b578063c87b56dd1461027e578063cf1e923914610291578063e8a3d485146102a4578063e985e9c5146102ac5761013e565b80634f6ccce7146102175780636352211e1461022a57806370a082311461023d57806395d89b4114610250578063a22cb465146102585761013e565b806314fe38ab1161011157806314fe38ab146101b657806318160ddd146101d657806323b872dd146101de5780632f745c59146101f157806342842e0e146102045761013e565b806301ffc9a71461014357806306fdde031461016c578063081812fc14610181578063095ea7b3146101a1575b600080fd5b61015661015136600461146e565b6102bf565b6040516101639190611559565b60405180910390f35b610174610305565b6040516101639190611564565b61019461018f3660046114a6565b610397565b6040516101639190611509565b6101b46101af366004611445565b6103e6565b005b6101c96101c43660046113d6565b610484565b6040516101639190611aad565b6101c961055e565b6101b46101ec3660046112f9565b610564565b6101c96101ff366004611445565b61059f565b6101b46102123660046112f9565b6105f4565b6101c96102253660046114a6565b61060f565b6101946102383660046114a6565b610670565b6101c961024b3660046112ad565b6106a8565b6101746106ef565b6101b46102663660046113ad565b6106fe565b6101b4610279366004611334565b6107cf565b61017461028c3660046114a6565b610811565b6101b461029f3660046112ad565b6108b3565b610174610914565b6101566102ba3660046112c7565b610923565b6000600160e060020a031982167f780e9d630000000000000000000000000000000000000000000000000000000014806102fd57506102fd82610951565b90505b919050565b60606000805461031490611ae5565b80601f016020809104026020016040519081016040528092919081815260200182805461034090611ae5565b801561038d5780601f106103625761010080835404028352916020019161038d565b820191906000526020600020905b81548152906001019060200180831161037057829003601f168201915b5050505050905090565b60006103a2826109c3565b6103ca5760405160e560020a62461bcd0281526004016103c1906118a5565b60405180910390fd5b50600090815260046020526040902054600160a060020a031690565b60006103f182610670565b905080600160a060020a031683600160a060020a031614156104285760405160e560020a62461bcd0281526004016103c190611996565b80600160a060020a031661043a6109e0565b600160a060020a031614806104565750610456816102ba6109e0565b6104755760405160e560020a62461bcd0281526004016103c190611759565b61047f83836109e4565b505050565b336000908152600e602052604081205460ff166104b65760405160e560020a62461bcd0281526004016103c19061195f565b50600a546104c5816001610a5f565b600a556104d28482610a72565b6000818152601060209081526040808320805473ffffffffffffffffffffffffffffffffffffffff1916600160a060020a038916179055600f8252909120845161051e9286019061117d565b50807fa109ba539900bf1b633f956d63c96fc89b814c7287f7aa50a9216d0b556572078460405161054f9190611564565b60405180910390a29392505050565b60085490565b61057561056f6109e0565b82610b64565b6105945760405160e560020a62461bcd0281526004016103c1906119f3565b61047f838383610bec565b60006105aa836106a8565b82106105cb5760405160e560020a62461bcd0281526004016103c190611577565b50600160a060020a03919091166000908152600660209081526040808320938352929052205490565b61047f838383604051806020016040528060008152506107cf565b600061061961055e565b821061063a5760405160e560020a62461bcd0281526004016103c190611a50565b6008828154811061065e5760e060020a634e487b7102600052603260045260246000fd5b90600052602060002001549050919050565b600081815260026020526040812054600160a060020a0316806102fd5760405160e560020a62461bcd0281526004016103c190611813565b6000600160a060020a0382166106d35760405160e560020a62461bcd0281526004016103c1906117b6565b50600160a060020a031660009081526003602052604090205490565b60606001805461031490611ae5565b6107066109e0565b600160a060020a031682600160a060020a0316141561073a5760405160e560020a62461bcd0281526004016103c1906116c5565b80600560006107476109e0565b600160a060020a03908116825260208083019390935260409182016000908120918716808252919093529120805460ff19169215159290921790915561078b6109e0565b600160a060020a03167f17307eab39ab6107e8899845ad3d59bd9653f200f220920489ca2b5937696c31836040516107c39190611559565b60405180910390a35050565b6107e06107da6109e0565b83610b64565b6107ff5760405160e560020a62461bcd0281526004016103c1906119f3565b61080b84848484610d2c565b50505050565b6000818152600f6020526040902080546060919061082e90611ae5565b80601f016020809104026020016040519081016040528092919081815260200182805461085a90611ae5565b80156108a75780601f1061087c576101008083540402835291602001916108a7565b820191906000526020600020905b81548152906001019060200180831161088a57829003601f168201915b50505050509050919050565b336000908152600e602052604090205460ff166108e55760405160e560020a62461bcd0281526004016103c19061195f565b600b805473ffffffffffffffffffffffffffffffffffffffff1916600160a060020a0392909216919091179055565b6060600d805461031490611ae5565b600160a060020a03918216600090815260056020908152604080832093909416825291909152205460ff1690565b6000600160e060020a031982167f80ac58cd0000000000000000000000000000000000000000000000000000000014806109b45750600160e060020a031982167f5b5e139f00000000000000000000000000000000000000000000000000000000145b806102fd57506102fd82610d62565b600090815260026020526040902054600160a060020a0316151590565b3390565b6000818152600460205260409020805473ffffffffffffffffffffffffffffffffffffffff1916600160a060020a0384169081179091558190610a2682610670565b600160a060020a03167f8c5be1e5ebec7d5bd14f71427d1e84f3dd0314c0f7b2291e5b200ac8c7c3b92560405160405180910390a45050565b6000610a6b8284611ab6565b9392505050565b600160a060020a038216610a9b5760405160e560020a62461bcd0281526004016103c190611870565b610aa4816109c3565b15610ac45760405160e560020a62461bcd0281526004016103c190611631565b610ad060008383610d94565b600160a060020a0382166000908152600360205260408120805460019290610af9908490611ab6565b9091555050600081815260026020526040808220805473ffffffffffffffffffffffffffffffffffffffff1916600160a060020a03861690811790915590518392907fddf252ad1be2c89b69c2b068fc378daa952ba7f163c4a11628f55a4df523b3ef908290a45050565b6000610b6f826109c3565b610b8e5760405160e560020a62461bcd0281526004016103c1906116fc565b6000610b9983610670565b905080600160a060020a031684600160a060020a03161480610bd4575083600160a060020a0316610bc984610397565b600160a060020a0316145b80610be45750610be48185610923565b949350505050565b82600160a060020a0316610bff82610670565b600160a060020a031614610c285760405160e560020a62461bcd0281526004016103c190611902565b600160a060020a038216610c515760405160e560020a62461bcd0281526004016103c190611668565b610c5c838383610d94565b610c676000826109e4565b600160a060020a0383166000908152600360205260408120805460019290610c90908490611ace565b9091555050600160a060020a0382166000908152600360205260408120805460019290610cbe908490611ab6565b9091555050600081815260026020526040808220805473ffffffffffffffffffffffffffffffffffffffff1916600160a060020a0386811691821790925591518493918716917fddf252ad1be2c89b69c2b068fc378daa952ba7f163c4a11628f55a4df523b3ef91a4505050565b610d37848484610bec565b610d4384848484610e1d565b61080b5760405160e560020a62461bcd0281526004016103c1906115d4565b600160e060020a031981167f01ffc9a70000000000000000000000000000000000000000000000000000000014919050565b610d9f83838361047f565b600160a060020a038316610dbb57610db681610f70565b610dde565b81600160a060020a031683600160a060020a031614610dde57610dde8382610fb4565b600160a060020a038216610dfa57610df581611051565b61047f565b82600160a060020a031682600160a060020a03161461047f5761047f8282611133565b6000610e3184600160a060020a0316611177565b15610f655783600160a060020a031663150b7a02610e4d6109e0565b8786866040518563ffffffff167c0100000000000000000000000000000000000000000000000000000000028152600401610e8b949392919061151d565b602060405180830381600087803b158015610ea557600080fd5b505af1925050508015610ed5575060408051601f3d908101601f19168201909252610ed29181019061148a565b60015b610f32573d808015610f03576040519150601f19603f3d011682016040523d82523d6000602084013e610f08565b606091505b508051610f2a5760405160e560020a62461bcd0281526004016103c1906115d4565b805181602001fd5b600160e060020a0319167f150b7a0200000000000000000000000000000000000000000000000000000000149050610be4565b506001949350505050565b600880546000838152600960205260408120829055600182018355919091527ff3f7a9fe364faab93b216da50a3214154f22a0a2b415b23a84c8169e8b636ee30155565b60006001610fc1846106a8565b610fcb9190611ace565b60008381526007602052604090205490915080821461101e57600160a060020a03841660009081526006602090815260408083208584528252808320548484528184208190558352600790915290208190555b506000918252600760209081526040808420849055600160a060020a039094168352600681528383209183525290812055565b60085460009061106390600190611ace565b6000838152600960205260408120546008805493945090928490811061109c5760e060020a634e487b7102600052603260045260246000fd5b9060005260206000200154905080600883815481106110ce5760e060020a634e487b7102600052603260045260246000fd5b60009182526020808320909101929092558281526009909152604080822084905585825281205560088054806111175760e060020a634e487b7102600052603160045260246000fd5b6001900381819060005260206000200160009055905550505050565b600061113e836106a8565b600160a060020a039093166000908152600660209081526040808320868452825280832085905593825260079052919091209190915550565b3b151590565b82805461118990611ae5565b90600052602060002090601f0160209004810192826111ab57600085556111f1565b82601f106111c457805160ff19168380011785556111f1565b828001600101855582156111f1579182015b828111156111f15782518255916020019190600101906111d6565b506111fd929150611201565b5090565b5b808211156111fd5760008155600101611202565b600067ffffffffffffffff8084111561123157611231611b3c565b604051601f8501601f19168101602001828111828210171561125557611255611b3c565b60405284815291508183850186101561126d57600080fd5b8484602083013760006020868301015250509392505050565b8035600160a060020a038116811461030057600080fd5b8035801515811461030057600080fd5b6000602082840312156112be578081fd5b610a6b82611286565b600080604083850312156112d9578081fd5b6112e283611286565b91506112f060208401611286565b90509250929050565b60008060006060848603121561130d578081fd5b61131684611286565b925061132460208501611286565b9150604084013590509250925092565b60008060008060808587031215611349578081fd5b61135285611286565b935061136060208601611286565b925060408501359150606085013567ffffffffffffffff811115611382578182fd5b8501601f81018713611392578182fd5b6113a187823560208401611216565b91505092959194509250565b600080604083850312156113bf578182fd5b6113c883611286565b91506112f06020840161129d565b6000806000606084860312156113ea578283fd5b6113f384611286565b9250602084013567ffffffffffffffff81111561140e578283fd5b8401601f8101861361141e578283fd5b61142d86823560208401611216565b92505061143c6040850161129d565b90509250925092565b60008060408385031215611457578182fd5b61146083611286565b946020939093013593505050565b60006020828403121561147f578081fd5b8135610a6b81611b55565b60006020828403121561149b578081fd5b8151610a6b81611b55565b6000602082840312156114b7578081fd5b5035919050565b60008151808452815b818110156114e3576020818501810151868301820152016114c7565b818111156114f45782602083870101525b50601f01601f19169290920160200192915050565b600160a060020a0391909116815260200190565b6000600160a060020a0380871683528086166020840152508360408301526080606083015261154f60808301846114be565b9695505050505050565b901515815260200190565b600060208252610a6b60208301846114be565b6020808252602b908201527f455243373231456e756d657261626c653a206f776e657220696e646578206f7560408201527f74206f6620626f756e6473000000000000000000000000000000000000000000606082015260800190565b60208082526032908201527f4552433732313a207472616e7366657220746f206e6f6e20455243373231526560408201527f63656976657220696d706c656d656e7465720000000000000000000000000000606082015260800190565b6020808252601c908201527f4552433732313a20746f6b656e20616c7265616479206d696e74656400000000604082015260600190565b60208082526024908201527f4552433732313a207472616e7366657220746f20746865207a65726f2061646460408201527f7265737300000000000000000000000000000000000000000000000000000000606082015260800190565b60208082526019908201527f4552433732313a20617070726f766520746f2063616c6c657200000000000000604082015260600190565b6020808252602c908201527f4552433732313a206f70657261746f7220717565727920666f72206e6f6e657860408201527f697374656e7420746f6b656e0000000000000000000000000000000000000000606082015260800190565b60208082526038908201527f4552433732313a20617070726f76652063616c6c6572206973206e6f74206f7760408201527f6e6572206e6f7220617070726f76656420666f7220616c6c0000000000000000606082015260800190565b6020808252602a908201527f4552433732313a2062616c616e636520717565727920666f7220746865207a6560408201527f726f206164647265737300000000000000000000000000000000000000000000606082015260800190565b60208082526029908201527f4552433732313a206f776e657220717565727920666f72206e6f6e657869737460408201527f656e7420746f6b656e0000000000000000000000000000000000000000000000606082015260800190565b6020808252818101527f4552433732313a206d696e7420746f20746865207a65726f2061646472657373604082015260600190565b6020808252602c908201527f4552433732313a20617070726f76656420717565727920666f72206e6f6e657860408201527f697374656e7420746f6b656e0000000000000000000000000000000000000000606082015260800190565b60208082526029908201527f4552433732313a207472616e73666572206f6620746f6b656e2074686174206960408201527f73206e6f74206f776e0000000000000000000000000000000000000000000000606082015260800190565b6020808252600c908201527f4f6e6c792061646d696e732e0000000000000000000000000000000000000000604082015260600190565b60208082526021908201527f4552433732313a20617070726f76616c20746f2063757272656e74206f776e6560408201527f7200000000000000000000000000000000000000000000000000000000000000606082015260800190565b60208082526031908201527f4552433732313a207472616e736665722063616c6c6572206973206e6f74206f60408201527f776e6572206e6f7220617070726f766564000000000000000000000000000000606082015260800190565b6020808252602c908201527f455243373231456e756d657261626c653a20676c6f62616c20696e646578206f60408201527f7574206f6620626f756e64730000000000000000000000000000000000000000606082015260800190565b90815260200190565b60008219821115611ac957611ac9611b23565b500190565b600082821015611ae057611ae0611b23565b500390565b600281046001821680611af957607f821691505b60208210811415611b1d5760e060020a634e487b7102600052602260045260246000fd5b50919050565b60e060020a634e487b7102600052601160045260246000fd5b60e060020a634e487b7102600052604160045260246000fd5b600160e060020a031981168114611b6b57600080fd5b5056fea26469706673582212205d7358bc2258f08c5a504e1039cdbf0803f897e637cd321b36c882187d1245a064736f6c63430008000033",
  "immutableReferences": {},
  "source": "// SPDX-License-Identifier: MIT\n\npragma solidity ^0.8.0;\n\nimport \"@openzeppelin/contracts/token/ERC721/extensions/ERC721Enumerable.sol\";\nimport \"@openzeppelin/contracts/utils/math/SafeMath.sol\";\n\ncontract ImnotArtExhibitions is ERC721Enumerable {\n    using SafeMath for uint256;\n\n    // ---\n    // Constants\n    // ---\n    uint private constant _artistSecondarySalesBps = 500; // 5% of Secondary Sales (Cannot be changed)\n    uint private constant _imnotArtSecondarySalesBps = 250; // 2.5% of Secondary Sales (Cannot be changed)\n\n    // ---\n    // Properties\n    // ---\n    uint256 private _nextTokenId = 1;\n    address private _imnotArtPayoutAddress;\n    address private _imnotArtMarketplaceContract;\n    string private _contractUri;\n\n    // ---\n    // Events\n    // ---\n    event PermanentURI(string _value, uint256 indexed _id); // OpenSea Freezing Metadata\n\n    // ---\n    // Security\n    // ---\n    mapping(address => bool) private _isAdmin;\n\n    modifier onlyAdmin() {\n        require(_isAdmin[msg.sender], \"Only admins.\");\n        _;\n    }\n\n    modifier onlyValidTokenId(uint256 tokenId) {\n        require(_exists(tokenId), \"Token ID does not exist.\");\n        _;\n    }\n\n    // ---\n    // Mappings\n    // ---\n    mapping(uint256 => string) private _metadataByTokenId;\n    mapping(uint256 => address) private _artistByTokenId;\n\n    // ---\n    // Constructor\n    // ---\n    constructor() ERC721(\"imnotArt Exhibitions\", \"IMNOTART\") {\n        _isAdmin[msg.sender] = true;\n        // @TODO(iolson): Set admin(s)\n        // @TODO(iolson): Set initial Contract URI\n    }\n\n    // ---\n    // Minting\n    // ---\n    function mintToken(address artistAddress, string memory metadataUri, bool transferToMarketplaceContract) public onlyAdmin returns (uint256 tokenId) {\n        tokenId = _nextTokenId;\n        _nextTokenId = _nextTokenId.add(1);\n\n        _mint(artistAddress, tokenId);\n        _artistByTokenId[tokenId] = artistAddress;\n        _metadataByTokenId[tokenId] = metadataUri;\n\n        emit PermanentURI(metadataUri, tokenId);\n\n        if (transferToMarketplaceContract) {\n            // @TODO(iolson): Transfer to the Marketplace Contract to put up for auction?\n        }\n    }\n\n    // ---\n    // Contract Updates\n    // ---\n    function updateImnotArtPayoutAddress(address newPayoutAddress) public onlyAdmin {\n        _imnotArtPayoutAddress = newPayoutAddress;\n    }\n\n    // ---\n    // Metadata\n    // ---\n    function tokenURI(uint256 tokenId) public view override virtual returns (string memory) {\n        return _metadataByTokenId[tokenId];\n    }\n\n    // ---\n    // Secondary Marketplace Functions\n    // ---\n\n    /* OpenSea */\n    function contractURI() public view virtual returns (string memory) {\n        return _contractUri;\n    }\n}",
  "sourcePath": "/Users/ianolson/code/imnotart-exhibitions/contracts/ImnotArtExhibitions.sol",
  "compiler": {
    "name": "solc",
    "version": "0.8.0+commit.c7dfd78e.Emscripten.clang"
  },
  "schemaVersion": "3.3.4",
  "updatedAt": "2021-07-27T02:37:09.730Z",
  "networkType": "ethereum",
  "devdoc": {
    "kind": "dev",
    "methods": {
      "approve(address,uint256)": {
        "details": "See {IERC721-approve}."
      },
      "balanceOf(address)": {
        "details": "See {IERC721-balanceOf}."
      },
      "getApproved(uint256)": {
        "details": "See {IERC721-getApproved}."
      },
      "isApprovedForAll(address,address)": {
        "details": "See {IERC721-isApprovedForAll}."
      },
      "name()": {
        "details": "See {IERC721Metadata-name}."
      },
      "ownerOf(uint256)": {
        "details": "See {IERC721-ownerOf}."
      },
      "safeTransferFrom(address,address,uint256)": {
        "details": "See {IERC721-safeTransferFrom}."
      },
      "safeTransferFrom(address,address,uint256,bytes)": {
        "details": "See {IERC721-safeTransferFrom}."
      },
      "setApprovalForAll(address,bool)": {
        "details": "See {IERC721-setApprovalForAll}."
      },
      "supportsInterface(bytes4)": {
        "details": "See {IERC165-supportsInterface}."
      },
      "symbol()": {
        "details": "See {IERC721Metadata-symbol}."
      },
      "tokenByIndex(uint256)": {
        "details": "See {IERC721Enumerable-tokenByIndex}."
      },
      "tokenOfOwnerByIndex(address,uint256)": {
        "details": "See {IERC721Enumerable-tokenOfOwnerByIndex}."
      },
      "tokenURI(uint256)": {
        "details": "See {IERC721Metadata-tokenURI}."
      },
      "totalSupply()": {
        "details": "See {IERC721Enumerable-totalSupply}."
      },
      "transferFrom(address,address,uint256)": {
        "details": "See {IERC721-transferFrom}."
      }
    },
    "version": 1
  },
  "userdoc": {
    "kind": "user",
    "methods": {},
    "version": 1
  }
}