{
  "contractName": "imnotArtExhibition1",
  "abi": [
    {
      "inputs": [],
      "stateMutability": "nonpayable",
      "type": "constructor"
    },
    {
      "anonymous": false,
      "inputs": [
        {
          "indexed": true,
          "internalType": "address",
          "name": "owner",
          "type": "address"
        },
        {
          "indexed": true,
          "internalType": "address",
          "name": "approved",
          "type": "address"
        },
        {
          "indexed": true,
          "internalType": "uint256",
          "name": "tokenId",
          "type": "uint256"
        }
      ],
      "name": "Approval",
      "type": "event"
    },
    {
      "anonymous": false,
      "inputs": [
        {
          "indexed": true,
          "internalType": "address",
          "name": "owner",
          "type": "address"
        },
        {
          "indexed": true,
          "internalType": "address",
          "name": "operator",
          "type": "address"
        },
        {
          "indexed": false,
          "internalType": "bool",
          "name": "approved",
          "type": "bool"
        }
      ],
      "name": "ApprovalForAll",
      "type": "event"
    },
    {
      "anonymous": false,
      "inputs": [
        {
          "indexed": true,
          "internalType": "address",
          "name": "previousOwner",
          "type": "address"
        },
        {
          "indexed": true,
          "internalType": "address",
          "name": "newOwner",
          "type": "address"
        }
      ],
      "name": "OwnershipTransferred",
      "type": "event"
    },
    {
      "anonymous": false,
      "inputs": [
        {
          "indexed": false,
          "internalType": "string",
          "name": "_value",
          "type": "string"
        },
        {
          "indexed": true,
          "internalType": "uint256",
          "name": "_id",
          "type": "uint256"
        }
      ],
      "name": "PermanentURI",
      "type": "event"
    },
    {
      "anonymous": false,
      "inputs": [
        {
          "indexed": false,
          "internalType": "uint256",
          "name": "tokenId",
          "type": "uint256"
        },
        {
          "components": [
            {
              "internalType": "address payable",
              "name": "account",
              "type": "address"
            },
            {
              "internalType": "uint96",
              "name": "value",
              "type": "uint96"
            }
          ],
          "indexed": false,
          "internalType": "struct LibPart.Part[]",
          "name": "royalties",
          "type": "tuple[]"
        }
      ],
      "name": "RoyaltiesSet",
      "type": "event"
    },
    {
      "anonymous": false,
      "inputs": [
        {
          "indexed": true,
          "internalType": "address",
          "name": "from",
          "type": "address"
        },
        {
          "indexed": true,
          "internalType": "address",
          "name": "to",
          "type": "address"
        },
        {
          "indexed": true,
          "internalType": "uint256",
          "name": "tokenId",
          "type": "uint256"
        }
      ],
      "name": "Transfer",
      "type": "event"
    },
    {
      "inputs": [
        {
          "internalType": "address",
          "name": "to",
          "type": "address"
        },
        {
          "internalType": "uint256",
          "name": "tokenId",
          "type": "uint256"
        }
      ],
      "name": "approve",
      "outputs": [],
      "stateMutability": "nonpayable",
      "type": "function"
    },
    {
      "inputs": [
        {
          "internalType": "uint256",
          "name": "",
          "type": "uint256"
        }
      ],
      "name": "artistByTokenId",
      "outputs": [
        {
          "internalType": "address",
          "name": "",
          "type": "address"
        }
      ],
      "stateMutability": "view",
      "type": "function"
    },
    {
      "inputs": [],
      "name": "artistFirstSaleBps",
      "outputs": [
        {
          "internalType": "uint16",
          "name": "",
          "type": "uint16"
        }
      ],
      "stateMutability": "view",
      "type": "function"
    },
    {
      "inputs": [],
      "name": "artistSecondarySaleBps",
      "outputs": [
        {
          "internalType": "uint16",
          "name": "",
          "type": "uint16"
        }
      ],
      "stateMutability": "view",
      "type": "function"
    },
    {
      "inputs": [
        {
          "internalType": "address",
          "name": "owner",
          "type": "address"
        }
      ],
      "name": "balanceOf",
      "outputs": [
        {
          "internalType": "uint256",
          "name": "",
          "type": "uint256"
        }
      ],
      "stateMutability": "view",
      "type": "function"
    },
    {
      "inputs": [
        {
          "internalType": "uint256",
          "name": "tokenId",
          "type": "uint256"
        }
      ],
      "name": "getApproved",
      "outputs": [
        {
          "internalType": "address",
          "name": "",
          "type": "address"
        }
      ],
      "stateMutability": "view",
      "type": "function"
    },
    {
      "inputs": [],
      "name": "imnotArtPayoutAddress",
      "outputs": [
        {
          "internalType": "address",
          "name": "",
          "type": "address"
        }
      ],
      "stateMutability": "view",
      "type": "function"
    },
    {
      "inputs": [],
      "name": "imnotArtSecondarySaleBps",
      "outputs": [
        {
          "internalType": "uint16",
          "name": "",
          "type": "uint16"
        }
      ],
      "stateMutability": "view",
      "type": "function"
    },
    {
      "inputs": [
        {
          "internalType": "address",
          "name": "owner",
          "type": "address"
        },
        {
          "internalType": "address",
          "name": "operator",
          "type": "address"
        }
      ],
      "name": "isApprovedForAll",
      "outputs": [
        {
          "internalType": "bool",
          "name": "",
          "type": "bool"
        }
      ],
      "stateMutability": "view",
      "type": "function"
    },
    {
      "inputs": [],
      "name": "name",
      "outputs": [
        {
          "internalType": "string",
          "name": "",
          "type": "string"
        }
      ],
      "stateMutability": "view",
      "type": "function"
    },
    {
      "inputs": [],
      "name": "nextTokenId",
      "outputs": [
        {
          "internalType": "uint256",
          "name": "",
          "type": "uint256"
        }
      ],
      "stateMutability": "view",
      "type": "function"
    },
    {
      "inputs": [],
      "name": "owner",
      "outputs": [
        {
          "internalType": "address",
          "name": "",
          "type": "address"
        }
      ],
      "stateMutability": "view",
      "type": "function"
    },
    {
      "inputs": [
        {
          "internalType": "uint256",
          "name": "tokenId",
          "type": "uint256"
        }
      ],
      "name": "ownerOf",
      "outputs": [
        {
          "internalType": "address",
          "name": "",
          "type": "address"
        }
      ],
      "stateMutability": "view",
      "type": "function"
    },
    {
      "inputs": [],
      "name": "renounceOwnership",
      "outputs": [],
      "stateMutability": "nonpayable",
      "type": "function"
    },
    {
      "inputs": [
        {
          "internalType": "address",
          "name": "",
          "type": "address"
        }
      ],
      "name": "royaltyContractByArtistAddress",
      "outputs": [
        {
          "internalType": "address",
          "name": "",
          "type": "address"
        }
      ],
      "stateMutability": "view",
      "type": "function"
    },
    {
      "inputs": [
        {
          "internalType": "address",
          "name": "from",
          "type": "address"
        },
        {
          "internalType": "address",
          "name": "to",
          "type": "address"
        },
        {
          "internalType": "uint256",
          "name": "tokenId",
          "type": "uint256"
        }
      ],
      "name": "safeTransferFrom",
      "outputs": [],
      "stateMutability": "nonpayable",
      "type": "function"
    },
    {
      "inputs": [
        {
          "internalType": "address",
          "name": "from",
          "type": "address"
        },
        {
          "internalType": "address",
          "name": "to",
          "type": "address"
        },
        {
          "internalType": "uint256",
          "name": "tokenId",
          "type": "uint256"
        },
        {
          "internalType": "bytes",
          "name": "_data",
          "type": "bytes"
        }
      ],
      "name": "safeTransferFrom",
      "outputs": [],
      "stateMutability": "nonpayable",
      "type": "function"
    },
    {
      "inputs": [
        {
          "internalType": "address",
          "name": "operator",
          "type": "address"
        },
        {
          "internalType": "bool",
          "name": "approved",
          "type": "bool"
        }
      ],
      "name": "setApprovalForAll",
      "outputs": [],
      "stateMutability": "nonpayable",
      "type": "function"
    },
    {
      "inputs": [],
      "name": "symbol",
      "outputs": [
        {
          "internalType": "string",
          "name": "",
          "type": "string"
        }
      ],
      "stateMutability": "view",
      "type": "function"
    },
    {
      "inputs": [
        {
          "internalType": "uint256",
          "name": "",
          "type": "uint256"
        }
      ],
      "name": "tokenBpsByTokenId",
      "outputs": [
        {
          "internalType": "uint16",
          "name": "artistFirstSaleBps",
          "type": "uint16"
        },
        {
          "internalType": "uint16",
          "name": "artistSecondarySaleBps",
          "type": "uint16"
        }
      ],
      "stateMutability": "view",
      "type": "function"
    },
    {
      "inputs": [
        {
          "internalType": "uint256",
          "name": "index",
          "type": "uint256"
        }
      ],
      "name": "tokenByIndex",
      "outputs": [
        {
          "internalType": "uint256",
          "name": "",
          "type": "uint256"
        }
      ],
      "stateMutability": "view",
      "type": "function"
    },
    {
      "inputs": [
        {
          "internalType": "address",
          "name": "owner",
          "type": "address"
        },
        {
          "internalType": "uint256",
          "name": "index",
          "type": "uint256"
        }
      ],
      "name": "tokenOfOwnerByIndex",
      "outputs": [
        {
          "internalType": "uint256",
          "name": "",
          "type": "uint256"
        }
      ],
      "stateMutability": "view",
      "type": "function"
    },
    {
      "inputs": [],
      "name": "totalSupply",
      "outputs": [
        {
          "internalType": "uint256",
          "name": "",
          "type": "uint256"
        }
      ],
      "stateMutability": "view",
      "type": "function"
    },
    {
      "inputs": [
        {
          "internalType": "address",
          "name": "from",
          "type": "address"
        },
        {
          "internalType": "address",
          "name": "to",
          "type": "address"
        },
        {
          "internalType": "uint256",
          "name": "tokenId",
          "type": "uint256"
        }
      ],
      "name": "transferFrom",
      "outputs": [],
      "stateMutability": "nonpayable",
      "type": "function"
    },
    {
      "inputs": [
        {
          "internalType": "address",
          "name": "newOwner",
          "type": "address"
        }
      ],
      "name": "transferOwnership",
      "outputs": [],
      "stateMutability": "nonpayable",
      "type": "function"
    },
    {
      "inputs": [],
      "name": "useRoyaltyContracts",
      "outputs": [
        {
          "internalType": "bool",
          "name": "",
          "type": "bool"
        }
      ],
      "stateMutability": "view",
      "type": "function"
    },
    {
      "inputs": [
        {
          "internalType": "bytes4",
          "name": "interfaceId",
          "type": "bytes4"
        }
      ],
      "name": "supportsInterface",
      "outputs": [
        {
          "internalType": "bool",
          "name": "",
          "type": "bool"
        }
      ],
      "stateMutability": "view",
      "type": "function"
    },
    {
      "inputs": [
        {
          "internalType": "address",
          "name": "artistAddress",
          "type": "address"
        },
        {
          "internalType": "string",
          "name": "metadataUri",
          "type": "string"
        }
      ],
      "name": "mintToken",
      "outputs": [
        {
          "internalType": "uint256",
          "name": "tokenId",
          "type": "uint256"
        }
      ],
      "stateMutability": "nonpayable",
      "type": "function"
    },
    {
      "inputs": [
        {
          "internalType": "string",
          "name": "metadataUri",
          "type": "string"
        }
      ],
      "name": "artistMintToken",
      "outputs": [
        {
          "internalType": "uint256",
          "name": "tokenId",
          "type": "uint256"
        }
      ],
      "stateMutability": "nonpayable",
      "type": "function"
    },
    {
      "inputs": [
        {
          "internalType": "uint256",
          "name": "tokenId",
          "type": "uint256"
        }
      ],
      "name": "burn",
      "outputs": [],
      "stateMutability": "nonpayable",
      "type": "function"
    },
    {
      "inputs": [
        {
          "internalType": "address",
          "name": "newPayoutAddress",
          "type": "address"
        }
      ],
      "name": "updateImnotArtPayoutAddress",
      "outputs": [],
      "stateMutability": "nonpayable",
      "type": "function"
    },
    {
      "inputs": [
        {
          "internalType": "string",
          "name": "newContractUri",
          "type": "string"
        }
      ],
      "name": "updateContractUri",
      "outputs": [],
      "stateMutability": "nonpayable",
      "type": "function"
    },
    {
      "inputs": [
        {
          "internalType": "uint256",
          "name": "tokenId",
          "type": "uint256"
        },
        {
          "internalType": "string",
          "name": "metadataUri",
          "type": "string"
        },
        {
          "internalType": "bool",
          "name": "permanent",
          "type": "bool"
        }
      ],
      "name": "updateTokenMetadata",
      "outputs": [],
      "stateMutability": "nonpayable",
      "type": "function"
    },
    {
      "inputs": [
        {
          "internalType": "address",
          "name": "newAdminAddress",
          "type": "address"
        }
      ],
      "name": "addAdmin",
      "outputs": [],
      "stateMutability": "nonpayable",
      "type": "function"
    },
    {
      "inputs": [
        {
          "internalType": "address",
          "name": "removeAdminAddress",
          "type": "address"
        }
      ],
      "name": "removeAdmin",
      "outputs": [],
      "stateMutability": "nonpayable",
      "type": "function"
    },
    {
      "inputs": [
        {
          "internalType": "address",
          "name": "newArtistAddress",
          "type": "address"
        }
      ],
      "name": "addApprovedArtist",
      "outputs": [],
      "stateMutability": "nonpayable",
      "type": "function"
    },
    {
      "inputs": [
        {
          "internalType": "address",
          "name": "removeArtistAddress",
          "type": "address"
        }
      ],
      "name": "removeApprovedArtist",
      "outputs": [],
      "stateMutability": "nonpayable",
      "type": "function"
    },
    {
      "inputs": [],
      "name": "toggleUseRoyaltyContracts",
      "outputs": [],
      "stateMutability": "nonpayable",
      "type": "function"
    },
    {
      "inputs": [
        {
          "internalType": "address",
          "name": "artistAddress",
          "type": "address"
        },
        {
          "internalType": "address",
          "name": "royaltyContractAddress",
          "type": "address"
        }
      ],
      "name": "addRoyaltyContractAddress",
      "outputs": [],
      "stateMutability": "nonpayable",
      "type": "function"
    },
    {
      "inputs": [
        {
          "internalType": "uint256",
          "name": "tokenId",
          "type": "uint256"
        }
      ],
      "name": "tokenURI",
      "outputs": [
        {
          "internalType": "string",
          "name": "",
          "type": "string"
        }
      ],
      "stateMutability": "view",
      "type": "function"
    },
    {
      "inputs": [
        {
          "internalType": "address",
          "name": "_owner",
          "type": "address"
        }
      ],
      "name": "getTokensOfOwner",
      "outputs": [
        {
          "internalType": "uint256[]",
          "name": "tokenIds",
          "type": "uint256[]"
        }
      ],
      "stateMutability": "view",
      "type": "function"
    },
    {
      "inputs": [],
      "name": "contractURI",
      "outputs": [
        {
          "internalType": "string",
          "name": "",
          "type": "string"
        }
      ],
      "stateMutability": "view",
      "type": "function"
    },
    {
      "inputs": [
        {
          "internalType": "uint256",
          "name": "tokenId",
          "type": "uint256"
        }
      ],
      "name": "getRaribleV2Royalties",
      "outputs": [
        {
          "components": [
            {
              "internalType": "address payable",
              "name": "account",
              "type": "address"
            },
            {
              "internalType": "uint96",
              "name": "value",
              "type": "uint96"
            }
          ],
          "internalType": "struct LibPart.Part[]",
          "name": "",
          "type": "tuple[]"
        }
      ],
      "stateMutability": "view",
      "type": "function"
    },
    {
      "inputs": [
        {
          "internalType": "uint256",
          "name": "tokenId",
          "type": "uint256"
        },
        {
          "internalType": "uint256",
          "name": "salePrice",
          "type": "uint256"
        }
      ],
      "name": "royaltyInfo",
      "outputs": [
        {
          "internalType": "address",
          "name": "receiver",
          "type": "address"
        },
        {
          "internalType": "uint256",
          "name": "amount",
          "type": "uint256"
        }
      ],
      "stateMutability": "view",
      "type": "function"
    }
  ],
  "bytecode": "0x60806040526001600b553480156200001657600080fd5b5060408051808201825260208082527f546865204e6577204469676974616c3a20426f726e20696e204368696361676f818301528251808401909352601383527f494d4e4f5441525445584849424954494f4e31000000000000000000000000009083015290620000a262000093640100000000620002cb810204565b640100000000620002cf810204565b8151620000b79060019060208501906200031f565b508051620000cd9060029060208401906200031f565b5050336000908152600f602090815260408083208054600160ff199182168117909255600e8054821690557312b66bafc99d351f7e24874b3e52b1889641d3f3948590527ffbf94afa9c3e3ba5c20ee1ce7232839137d2288e1f2adfd088afb50689185a7680549091169091179055600c8054600160a060020a031916909317909255815160608101909252603580835291925062002f559083013980516200017f91600d916020909101906200031f565b5060106020527f9de1177c343a0ff76f583fc4b96ba9c16375751ede7a12f71084a1fcc085689c8054600160ff1991821681179092557f46d6700c4afc4c577714865421672e733465e7da9e7139051613e204e8ce9c9c80548216831790557ffd3c917078df31ac5f069de14e13f756df61c32b1c5662caea7ea018d3034d1980548216831790557f75ae60db2af8fba85782fbec0c577d8cd27011fbf816bd3004684d72e6db6bb380548216831790557fcd772246252d621f373ba22c169963a4a44eb48842cb630aa0f6eb3801d2f51480548216831790557f7839f08ba53d594e3d00fb4a84af1290c943dfd6d28758ed1098ca0ca289a6158054821683179055734f9b8a31c0986fa44cd386b1610f54a56ec8dc706000527f731b922c12c9d3ae5fd27ec7fd69f9a7197af52d57ef3ca7412a1d401740b6ac805490911690911790556200041b565b3390565b60008054600160a060020a03838116600160a060020a0319831681178455604051919092169283917f8be0079c531659141344cd1fd0a4f28419497f9722a3daafe3b4186f6b6457e09190a35050565b8280546200032d90620003c5565b90600052602060002090601f0160209004810192826200035157600085556200039c565b82601f106200036c57805160ff19168380011785556200039c565b828001600101855582156200039c579182015b828111156200039c5782518255916020019190600101906200037f565b50620003aa929150620003ae565b5090565b5b80821115620003aa5760008155600101620003af565b600281046001821680620003da57607f821691505b6020821081141562000415577f4e487b7100000000000000000000000000000000000000000000000000000000600052602260045260246000fd5b50919050565b612b2a806200042b6000396000f3fe608060405234801561001057600080fd5b5060043610610291576000357c0100000000000000000000000000000000000000000000000000000000900480636352211e1161016e578063a22cb465116100e0578063cf1e9239116100a4578063cf1e9239146105b5578063e5a727b7146105c8578063e8a3d48514610611578063e9482cc614610619578063e985e9c514610622578063f2fde38b1461065e57600080fd5b8063a22cb46514610549578063b88d4fde1461055c578063c34a2a3a1461056f578063c87b56dd14610582578063cad96cca1461059557600080fd5b8063753cd9cf11610132578063753cd9cf146104e357806375794a3c146104f657806378fd2ed6146104ff5780638258337d146105285780638da5cb5b1461053057806395d89b411461054157600080fd5b80636352211e146104a25780636b7ad5c0146104b5578063704802751461032657806370a08231146104c8578063715018a6146104db57600080fd5b8063390e26e71161020757806342966c68116101cb57806342966c681461040d57806347c8ff5e146104205780634f6ccce71461043357806350ff2d5b146104465780635de6dc551461046f578063618793221461048f57600080fd5b8063390e26e7146103bf5780633d02d0c9146103cc5780633dd2fdff146103df57806340c38035146103e757806342842e0e146103fa57600080fd5b80631785f53c116102595780631785f53c1461032657806318160ddd1461033957806323b872dd1461034b5780632a55205a1461035e5780632cf0ffbe146103905780632f745c59146103ac57600080fd5b806301ffc9a71461029657806306fdde03146102be578063072e839e146102d3578063081812fc146102e8578063095ea7b314610313575b600080fd5b6102a96102a436600461264e565b610671565b60405190151581526020015b60405180910390f35b6102c66107b9565b6040516102b59190612878565b6102e66102e13660046124b0565b61084b565b005b6102fb6102f63660046126b9565b6108a7565b604051600160a060020a0390911681526020016102b5565b6102e6610321366004612625565b610943565b6102e66103343660046124b0565b610a7b565b6009545b6040519081526020016102b5565b6102e66103593660046124fc565b610ad1565b61037161036c366004612726565b610b06565b60408051600160a060020a0390931683526020830191909152016102b5565b6103996101f481565b60405161ffff90911681526020016102b5565b61033d6103ba366004612625565b610bd2565b600e546102a99060ff1681565b61033d6103da3660046125d9565b610c7d565b61039960fa81565b6102e66103f53660046124b0565b610d93565b6102e66104083660046124fc565b610de9565b6102e661041b3660046126b9565b610e04565b6102e661042e366004612686565b610eca565b61033d6104413660046126b9565b610f13565b6102fb6104543660046126b9565b601260205260009081526040902054600160a060020a031681565b61048261047d3660046124b0565b610fcb565b6040516102b59190612834565b61033d61049d366004612686565b6110a8565b6102fb6104b03660046126b9565b6111e4565b6102e66104c33660046126d1565b611272565b61033d6104d63660046124b0565b61132d565b6102e66113ca565b6102e66104f13660046124ca565b611403565b61033d600b5481565b6102fb61050d3660046124b0565b601460205260009081526040902054600160a060020a031681565b6102e6611463565b600054600160a060020a03166102fb565b6102c66114a9565b6102e66105573660046125b0565b6114b8565b6102e661056a366004612537565b611580565b600c546102fb90600160a060020a031681565b6102c66105903660046126b9565b6115b5565b6105a86105a33660046126b9565b61167f565b6040516102b591906127ce565b6102e66105c33660046124b0565b6117a4565b6105f66105d63660046126b9565b60136020526000908152604090205461ffff808216916201000090041682565b6040805161ffff9384168152929091166020830152016102b5565b6102c66117f8565b61039961196481565b6102a96106303660046124ca565b600160a060020a03918216600090815260066020908152604080832093909416825291909152205460ff1690565b6102e661066c3660046124b0565b611807565b6000600160e060020a031982167f01ffc9a70000000000000000000000000000000000000000000000000000000014806106d45750600160e060020a031982167fcad96cca00000000000000000000000000000000000000000000000000000000145b806107085750600160e060020a031982167f80ac58cd00000000000000000000000000000000000000000000000000000000145b8061073c5750600160e060020a031982167f5b5e139f00000000000000000000000000000000000000000000000000000000145b806107705750600160e060020a031982167f780e9d6300000000000000000000000000000000000000000000000000000000145b806107a45750600160e060020a031982167f2a55205a00000000000000000000000000000000000000000000000000000000145b806107b357506107b3826118bc565b92915050565b6060600180546107c890612a59565b80601f01602080910402602001604051908101604052809291908181526020018280546107f490612a59565b80156108415780601f1061081657610100808354040283529160200191610841565b820191906000526020600020905b81548152906001019060200180831161082457829003601f168201915b5050505050905090565b336000908152600f602052604090205460ff166108865760405160e560020a62461bcd02815260040161087d9061291d565b60405180910390fd5b600160a060020a03166000908152601060205260409020805460ff19169055565b60006108b2826118fa565b6109275760405160e560020a62461bcd02815260206004820152602c60248201527f4552433732313a20617070726f76656420717565727920666f72206e6f6e657860448201527f697374656e7420746f6b656e0000000000000000000000000000000000000000606482015260840161087d565b50600090815260056020526040902054600160a060020a031690565b600061094e826111e4565b905080600160a060020a031683600160a060020a031614156109db5760405160e560020a62461bcd02815260206004820152602160248201527f4552433732313a20617070726f76616c20746f2063757272656e74206f776e6560448201527f7200000000000000000000000000000000000000000000000000000000000000606482015260840161087d565b33600160a060020a03821614806109f757506109f78133610630565b610a6c5760405160e560020a62461bcd02815260206004820152603860248201527f4552433732313a20617070726f76652063616c6c6572206973206e6f74206f7760448201527f6e6572206e6f7220617070726f76656420666f7220616c6c0000000000000000606482015260840161087d565b610a768383611917565b505050565b336000908152600f602052604090205460ff16610aad5760405160e560020a62461bcd02815260040161087d9061291d565b600160a060020a03166000908152600f60205260409020805460ff19166001179055565b610adc335b82611985565b610afb5760405160e560020a62461bcd02815260040161087d90612954565b610a76838383611a83565b60008083610b13816118fa565b610b325760405160e560020a62461bcd02815260040161087d906129b1565b600085815260126020526040812054600160a060020a031690610b586101f460fa611c61565b90506000610b71610b698884611c74565b612710611c80565b600c54600e54919250600160a060020a03169060ff1615610ba95750600160a060020a03808416600090815260146020526040902054165b600160a060020a038116610bc55750600c54600160a060020a03165b9890975095505050505050565b6000610bdd8361132d565b8210610c545760405160e560020a62461bcd02815260206004820152602b60248201527f455243373231456e756d657261626c653a206f776e657220696e646578206f7560448201527f74206f6620626f756e6473000000000000000000000000000000000000000000606482015260840161087d565b50600160a060020a03919091166000908152600760209081526040808320938352929052205490565b336000908152600f602052604081205460ff16610caf5760405160e560020a62461bcd02815260040161087d9061291d565b50600b54610cbe816001611c61565b600b55610ccb8382611c8c565b60008181526012602090815260408083208054600160a060020a031916600160a060020a038816179055601182529091208351610d0a92850190612356565b50807fa109ba539900bf1b633f956d63c96fc89b814c7287f7aa50a9216d0b5565720783604051610d3b9190612878565b60405180910390a260408051808201825261196481526101f46020808301918252600085815260139091529290922090518154925161ffff908116620100000263ffffffff1990941691161791909117905592915050565b336000908152600f602052604090205460ff16610dc55760405160e560020a62461bcd02815260040161087d9061291d565b600160a060020a03166000908152601060205260409020805460ff19166001179055565b610a7683838360405180602001604052806000815250611580565b3360009081526010602052604090205460ff16610e665760405160e560020a62461bcd02815260206004820152601660248201527f4f6e6c7920617070726f76656420617274697374732e00000000000000000000604482015260640161087d565b610e6f33610ad6565b610ebe5760405160e560020a62461bcd02815260206004820152601c60248201527f4f6e6c7920617070726f76656420617274697374206f776e6572732e00000000604482015260640161087d565b610ec781611dd1565b50565b336000908152600f602052604090205460ff16610efc5760405160e560020a62461bcd02815260040161087d9061291d565b8051610f0f90600d906020840190612356565b5050565b6000610f1e60095490565b8210610f955760405160e560020a62461bcd02815260206004820152602c60248201527f455243373231456e756d657261626c653a20676c6f62616c20696e646578206f60448201527f7574206f6620626f756e64730000000000000000000000000000000000000000606482015260840161087d565b60098281548110610fb95760e060020a634e487b7102600052603260045260246000fd5b90600052602060002001549050919050565b60606000610fd88361132d565b905080610ff55760408051600081526020810190915291506110a2565b8067ffffffffffffffff81111561101f5760e060020a634e487b7102600052604160045260246000fd5b604051908082528060200260200182016040528015611048578160200160208202803683370190505b50915060005b818110156110a0576110608482610bd2565b8382815181106110835760e060020a634e487b7102600052603260045260246000fd5b60209081029190910101528061109881612a91565b91505061104e565b505b50919050565b3360009081526010602052604081205460ff1661110a5760405160e560020a62461bcd02815260206004820152601660248201527f4f6e6c7920617070726f76656420617274697374732e00000000000000000000604482015260640161087d565b50600b54611119816001611c61565b600b556111263382611c8c565b60008181526012602090815260408083208054600160a060020a0319163317905560118252909120835161115c92850190612356565b50807fa109ba539900bf1b633f956d63c96fc89b814c7287f7aa50a9216d0b556572078360405161118d9190612878565b60405180910390a260408051808201825261196481526101f46020808301918252600085815260139091529290922090518154925161ffff908116620100000263ffffffff19909416911617919091179055919050565b600081815260036020526040812054600160a060020a0316806107b35760405160e560020a62461bcd02815260206004820152602960248201527f4552433732313a206f776e657220717565727920666f72206e6f6e657869737460448201527f656e7420746f6b656e0000000000000000000000000000000000000000000000606482015260840161087d565b600054600160a060020a0316331461129f5760405160e560020a62461bcd02815260040161087d906128e8565b826112a9816118fa565b6112c85760405160e560020a62461bcd02815260040161087d906129b1565b600084815260116020908152604090912084516112e792860190612356565b50811561132757837fa109ba539900bf1b633f956d63c96fc89b814c7287f7aa50a9216d0b556572078460405161131e9190612878565b60405180910390a25b50505050565b6000600160a060020a0382166113ae5760405160e560020a62461bcd02815260206004820152602a60248201527f4552433732313a2062616c616e636520717565727920666f7220746865207a6560448201527f726f206164647265737300000000000000000000000000000000000000000000606482015260840161087d565b50600160a060020a031660009081526004602052604090205490565b600054600160a060020a031633146113f75760405160e560020a62461bcd02815260040161087d906128e8565b6114016000611e78565b565b336000908152600f602052604090205460ff166114355760405160e560020a62461bcd02815260040161087d9061291d565b600160a060020a0391821660009081526014602052604090208054600160a060020a03191691909216179055565b336000908152600f602052604090205460ff166114955760405160e560020a62461bcd02815260040161087d9061291d565b600e805460ff19811660ff90911615179055565b6060600280546107c890612a59565b600160a060020a0382163314156115145760405160e560020a62461bcd02815260206004820152601960248201527f4552433732313a20617070726f766520746f2063616c6c657200000000000000604482015260640161087d565b336000818152600660209081526040808320600160a060020a03871680855290835292819020805460ff191686151590811790915590519081529192917f17307eab39ab6107e8899845ad3d59bd9653f200f220920489ca2b5937696c31910160405180910390a35050565b61158a3383611985565b6115a95760405160e560020a62461bcd02815260040161087d90612954565b61132784848484611ec8565b6060816115c1816118fa565b6115e05760405160e560020a62461bcd02815260040161087d906129b1565b600083815260116020526040902080546115f990612a59565b80601f016020809104026020016040519081016040528092919081815260200182805461162590612a59565b80156116725780601f1061164757610100808354040283529160200191611672565b820191906000526020600020905b81548152906001019060200180831161165557829003601f168201915b5050505050915050919050565b60608161168b816118fa565b6116aa5760405160e560020a62461bcd02815260040161087d906129b1565b60408051600280825260608201909252600091816020015b60408051808201909152600080825260208201528152602001906001900390816116c257505060408051808201825260008781526012602090815292812054600160a060020a031682526101f49282019290925282519293509183919061173c5760e060020a634e487b7102600052603260045260246000fd5b60209081029190910181019190915260408051808201909152600c54600160a060020a0316815260fa918101919091528151829060019081106117925760e060020a634e487b7102600052603260045260246000fd5b60209081029190910101529392505050565b336000908152600f602052604090205460ff166117d65760405160e560020a62461bcd02815260040161087d9061291d565b600c8054600160a060020a031916600160a060020a0392909216919091179055565b6060600d80546107c890612a59565b600054600160a060020a031633146118345760405160e560020a62461bcd02815260040161087d906128e8565b600160a060020a0381166118b35760405160e560020a62461bcd02815260206004820152602660248201527f4f776e61626c653a206e6577206f776e657220697320746865207a65726f206160448201527f6464726573730000000000000000000000000000000000000000000000000000606482015260840161087d565b610ec781611e78565b6000600160e060020a031982167f780e9d630000000000000000000000000000000000000000000000000000000014806107b357506107b382611efe565b600090815260036020526040902054600160a060020a0316151590565b60008181526005602052604090208054600160a060020a031916600160a060020a038416908117909155819061194c826111e4565b600160a060020a03167f8c5be1e5ebec7d5bd14f71427d1e84f3dd0314c0f7b2291e5b200ac8c7c3b92560405160405180910390a45050565b6000611990826118fa565b611a055760405160e560020a62461bcd02815260206004820152602c60248201527f4552433732313a206f70657261746f7220717565727920666f72206e6f6e657860448201527f697374656e7420746f6b656e0000000000000000000000000000000000000000606482015260840161087d565b6000611a10836111e4565b905080600160a060020a031684600160a060020a03161480611a4b575083600160a060020a0316611a40846108a7565b600160a060020a0316145b80611a7b5750600160a060020a0380821660009081526006602090815260408083209388168352929052205460ff165b949350505050565b82600160a060020a0316611a96826111e4565b600160a060020a031614611b155760405160e560020a62461bcd02815260206004820152602960248201527f4552433732313a207472616e73666572206f6620746f6b656e2074686174206960448201527f73206e6f74206f776e0000000000000000000000000000000000000000000000606482015260840161087d565b600160a060020a038216611b935760405160e560020a62461bcd028152602060048201526024808201527f4552433732313a207472616e7366657220746f20746865207a65726f2061646460448201527f7265737300000000000000000000000000000000000000000000000000000000606482015260840161087d565b611b9e838383611f99565b611ba9600082611917565b600160a060020a0383166000908152600460205260408120805460019290611bd2908490612a42565b9091555050600160a060020a0382166000908152600460205260408120805460019290611c009084906129e8565b90915550506000818152600360205260408082208054600160a060020a031916600160a060020a0386811691821790925591518493918716917fddf252ad1be2c89b69c2b068fc378daa952ba7f163c4a11628f55a4df523b3ef91a4505050565b6000611c6d82846129e8565b9392505050565b6000611c6d8284612a23565b6000611c6d8284612a00565b600160a060020a038216611ce55760405160e560020a62461bcd02815260206004820181905260248201527f4552433732313a206d696e7420746f20746865207a65726f2061646472657373604482015260640161087d565b611cee816118fa565b15611d3e5760405160e560020a62461bcd02815260206004820152601c60248201527f4552433732313a20746f6b656e20616c7265616479206d696e74656400000000604482015260640161087d565b611d4a60008383611f99565b600160a060020a0382166000908152600460205260408120805460019290611d739084906129e8565b90915550506000818152600360205260408082208054600160a060020a031916600160a060020a03861690811790915590518392907fddf252ad1be2c89b69c2b068fc378daa952ba7f163c4a11628f55a4df523b3ef908290a45050565b6000611ddc826111e4565b9050611dea81600084611f99565b611df5600083611917565b600160a060020a0381166000908152600460205260408120805460019290611e1e908490612a42565b90915550506000828152600360205260408082208054600160a060020a031916905551839190600160a060020a038416907fddf252ad1be2c89b69c2b068fc378daa952ba7f163c4a11628f55a4df523b3ef908390a45050565b60008054600160a060020a03838116600160a060020a0319831681178455604051919092169283917f8be0079c531659141344cd1fd0a4f28419497f9722a3daafe3b4186f6b6457e09190a35050565b611ed3848484611a83565b611edf84848484612051565b6113275760405160e560020a62461bcd02815260040161087d9061288b565b6000600160e060020a031982167f80ac58cd000000000000000000000000000000000000000000000000000000001480611f615750600160e060020a031982167f5b5e139f00000000000000000000000000000000000000000000000000000000145b806107b357507f01ffc9a700000000000000000000000000000000000000000000000000000000600160e060020a03198316146107b3565b600160a060020a038316611ff457611fef81600980546000838152600a60205260408120829055600182018355919091527f6e1540171b6c0c960b71a7020d9f60077f6af931a8bbf590da0223dacf75c7af0155565b612017565b81600160a060020a031683600160a060020a031614612017576120178382612193565b600160a060020a03821661202e57610a7681612230565b82600160a060020a031682600160a060020a031614610a7657610a768282612312565b6000600160a060020a0384163b15612188576040517f150b7a02000000000000000000000000000000000000000000000000000000008152600160a060020a0385169063150b7a02906120ae903390899088908890600401612792565b602060405180830381600087803b1580156120c857600080fd5b505af19250505080156120f8575060408051601f3d908101601f191682019092526120f59181019061266a565b60015b612155573d808015612126576040519150601f19603f3d011682016040523d82523d6000602084013e61212b565b606091505b50805161214d5760405160e560020a62461bcd02815260040161087d9061288b565b805181602001fd5b600160e060020a0319167f150b7a0200000000000000000000000000000000000000000000000000000000149050611a7b565b506001949350505050565b600060016121a08461132d565b6121aa9190612a42565b6000838152600860205260409020549091508082146121fd57600160a060020a03841660009081526007602090815260408083208584528252808320548484528184208190558352600890915290208190555b506000918252600860209081526040808420849055600160a060020a039094168352600781528383209183525290812055565b60095460009061224290600190612a42565b6000838152600a60205260408120546009805493945090928490811061227b5760e060020a634e487b7102600052603260045260246000fd5b9060005260206000200154905080600983815481106122ad5760e060020a634e487b7102600052603260045260246000fd5b6000918252602080832090910192909255828152600a909152604080822084905585825281205560098054806122f65760e060020a634e487b7102600052603160045260246000fd5b6001900381819060005260206000200160009055905550505050565b600061231d8361132d565b600160a060020a039093166000908152600760209081526040808320868452825280832085905593825260089052919091209190915550565b82805461236290612a59565b90600052602060002090601f01602090048101928261238457600085556123ca565b82601f1061239d57805160ff19168380011785556123ca565b828001600101855582156123ca579182015b828111156123ca5782518255916020019190600101906123af565b506123d69291506123da565b5090565b5b808211156123d657600081556001016123db565b600067ffffffffffffffff8084111561240a5761240a612ac5565b604051601f8501601f19908116603f0116810190828211818310171561243257612432612ac5565b8160405280935085815286868601111561244b57600080fd5b858560208301376000602087830101525050509392505050565b8035600160a060020a038116811461247c57600080fd5b919050565b8035801515811461247c57600080fd5b600082601f8301126124a1578081fd5b611c6d838335602085016123ef565b6000602082840312156124c1578081fd5b611c6d82612465565b600080604083850312156124dc578081fd5b6124e583612465565b91506124f360208401612465565b90509250929050565b600080600060608486031215612510578081fd5b61251984612465565b925061252760208501612465565b9150604084013590509250925092565b6000806000806080858703121561254c578081fd5b61255585612465565b935061256360208601612465565b925060408501359150606085013567ffffffffffffffff811115612585578182fd5b8501601f81018713612595578182fd5b6125a4878235602084016123ef565b91505092959194509250565b600080604083850312156125c2578182fd5b6125cb83612465565b91506124f360208401612481565b600080604083850312156125eb578182fd5b6125f483612465565b9150602083013567ffffffffffffffff81111561260f578182fd5b61261b85828601612491565b9150509250929050565b60008060408385031215612637578182fd5b61264083612465565b946020939093013593505050565b60006020828403121561265f578081fd5b8135611c6d81612ade565b60006020828403121561267b578081fd5b8151611c6d81612ade565b600060208284031215612697578081fd5b813567ffffffffffffffff8111156126ad578182fd5b611a7b84828501612491565b6000602082840312156126ca578081fd5b5035919050565b6000806000606084860312156126e5578283fd5b83359250602084013567ffffffffffffffff811115612702578283fd5b61270e86828701612491565b92505061271d60408501612481565b90509250925092565b60008060408385031215612738578182fd5b50508035926020909101359150565b60008151808452815b8181101561276c57602081850181015186830182015201612750565b8181111561277d5782602083870101525b50601f01601f19169290920160200192915050565b6000600160a060020a038087168352808616602084015250836040830152608060608301526127c46080830184612747565b9695505050505050565b602080825282518282018190526000919060409081850190868401855b828110156128275781518051600160a060020a031685528601516bffffffffffffffffffffffff168685015292840192908501906001016127eb565b5091979650505050505050565b6020808252825182820181905260009190848201906040850190845b8181101561286c57835183529284019291840191600101612850565b50909695505050505050565b602081526000611c6d6020830184612747565b60208082526032908201527f4552433732313a207472616e7366657220746f206e6f6e20455243373231526560408201527f63656976657220696d706c656d656e7465720000000000000000000000000000606082015260800190565b6020808252818101527f4f776e61626c653a2063616c6c6572206973206e6f7420746865206f776e6572604082015260600190565b6020808252600c908201527f4f6e6c792061646d696e732e0000000000000000000000000000000000000000604082015260600190565b60208082526031908201527f4552433732313a207472616e736665722063616c6c6572206973206e6f74206f60408201527f776e6572206e6f7220617070726f766564000000000000000000000000000000606082015260800190565b60208082526018908201527f546f6b656e20494420646f6573206e6f742065786973742e0000000000000000604082015260600190565b600082198211156129fb576129fb612aac565b500190565b600082612a1e5760e060020a634e487b710281526012600452602481fd5b500490565b6000816000190483118215151615612a3d57612a3d612aac565b500290565b600082821015612a5457612a54612aac565b500390565b600281046001821680612a6d57607f821691505b602082108114156110a25760e060020a634e487b7102600052602260045260246000fd5b6000600019821415612aa557612aa5612aac565b5060010190565b60e060020a634e487b7102600052601160045260246000fd5b60e060020a634e487b7102600052604160045260246000fd5b600160e060020a031981168114610ec757600080fdfea2646970667358221220896d0b751766a2b9bc51b7381e51111cfd2dc4124b6411896407088434ed8abc64736f6c63430008040033697066733a2f2f516d5779626d53346b4b39634e64574271477a797367696b7a707373394b526663556770754d414c395351586148",
  "immutableReferences": {},
  "source": "// SPDX-License-Identifier: MIT\n\n/*\n ________         _  __             ___  _      _ __       ___ \n/_  __/ /  ___   / |/ /__ _    __  / _ \\(_)__ _(_) /____ _/ (_)\n / / / _ \\/ -_) /    / -_) |/|/ / / // / / _ `/ / __/ _ `/ /   \n/_/ /_//_/\\__/ /_/|_/\\__/|__,__/ /____/_/\\_, /_/\\__/\\_,_/_(_)  \n   ___                  _        _______/___/                  \n  / _ )___  _______    (_)__    / ___/ /  (_)______ ____ ____  \n / _  / _ \\/ __/ _ \\  / / _ \\  / /__/ _ \\/ / __/ _ `/ _ `/ _ \\ \n/____/\\___/_/ /_//_/ /_/_//_/  \\___/_//_/_/\\__/\\_,_/\\_, /\\___/ \n                                                   /___/       \n\n// imnotArt Exhibition 1\n\nAs an emerging hub for digital art and NFTs, The New Digital: Born in Chicago showcases \nthe many ways Chicago inspires creativity  from the citys architecture, to the culture \nof the Midwest, and its vibrant neighborhoods.\n\nThis genesis exhibition from imnotArt Chicago features seven artists who were born or \nraised in Chicago, each with work reflecting a unique aspect of this great city.  \nTogether, starting with this exhibition, we are building something special right here in \nthe 312. Welcome to The New Digital.\n\n// Featured Artists\nChuck Anderson\nSophie Sturdevant\nJoey the Photographer\nWillea Zwey\nProbCause\nSean Williams\nSinclair\n\n// Smart Contract\nimnotFuzzyHat <Ian Olson>\n\n*/\n\npragma solidity ^0.8.4;\n\nimport \"@openzeppelin/contracts/access/Ownable.sol\";\nimport \"@openzeppelin/contracts/token/ERC721/extensions/ERC721Enumerable.sol\";\nimport \"@openzeppelin/contracts/utils/math/SafeMath.sol\";\nimport \"./rarible/library/LibPart.sol\";\nimport \"./rarible/library/LibRoyaltiesV2.sol\";\nimport \"./rarible/RoyaltiesV2.sol\";\n\ncontract imnotArtExhibition1 is Ownable, ERC721Enumerable, RoyaltiesV2 {\n    using SafeMath for uint256;\n\n    // ---\n    // Constants\n    // ---\n    bytes4 private constant _INTERFACE_ID_ERC165 = 0x01ffc9a7;\n    bytes4 private constant _INTERFACE_ID_ERC721 = 0x80ac58cd;\n    bytes4 private constant _INTERFACE_ID_ERC721_METADATA = 0x5b5e139f;\n    bytes4 private constant _INTERFACE_ID_ERC721_ENUMERABLE = 0x780e9d63;\n    bytes4 private constant _INTERFACE_ID_EIP2981 = 0x2a55205a;\n    uint16 constant public artistFirstSaleBps = 6500; // 65% of First Sale\n    uint16 constant public artistSecondarySaleBps = 500; // 5% of Secondary Sale\n    uint16 constant public imnotArtSecondarySaleBps = 250; // 2.5% of Secondary Sale\n\n    // ---\n    // Properties\n    // ---\n    uint256 public nextTokenId = 1;\n    address public imnotArtPayoutAddress;\n    string private _contractUri;\n    bool public useRoyaltyContracts;\n\n    // ---\n    // Structs\n    // ---\n\n    /* Only need Artist BPS, as remainder would be given to imnotArt after Artist is paid */\n    struct TokenBps {\n        uint16 artistFirstSaleBps;\n        uint16 artistSecondarySaleBps;\n    }\n\n    // ---\n    // Events\n    // ---\n    event PermanentURI(string _value, uint256 indexed _id); // OpenSea Freezing Metadata\n\n    // ---\n    // Security\n    // ---\n    mapping(address => bool) private _isAdmin;\n    mapping(address => bool) private _isArtist;\n\n    modifier onlyAdmin() {\n        require(_isAdmin[msg.sender], \"Only admins.\");\n        _;\n    }\n\n    modifier onlyArtist() {\n        require(_isArtist[msg.sender], \"Only approved artists.\");\n        _;\n    }\n\n    modifier onlyValidTokenId(uint256 tokenId) {\n        require(_exists(tokenId), \"Token ID does not exist.\");\n        _;\n    }\n\n    // ---\n    // Mappings\n    // ---\n    mapping(uint256 => string) private _metadataByTokenId;\n    mapping(uint256 => address) public artistByTokenId;\n    mapping(uint256 => TokenBps) public tokenBpsByTokenId;\n    mapping(address => address) public royaltyContractByArtistAddress;\n\n    // ---\n    // Constructor\n    // ---\n    constructor() ERC721(\"The New Digital: Born in Chicago\", \"IMNOTARTEXHIBITION1\") {\n        _isAdmin[msg.sender] = true;\n        useRoyaltyContracts = false;\n\n        // imnotArt Mainnet Gnosis Safe\n        _isAdmin[address(0x12b66baFc99D351f7e24874B3e52B1889641D3f3)] = true;\n        imnotArtPayoutAddress = address(0x12b66baFc99D351f7e24874B3e52B1889641D3f3);\n        _contractUri = \"ipfs://QmWybmS4kK9cNdWBqGzysgikzpss9KRfcUgpuMAL9SQXaH\";\n\n        // Artists\n        _isArtist[address(0x7fd29e547dC2d2Ec3773457295a98893A0Db2e05)] = true; // Chuck Anderson\n        _isArtist[address(0x86d0b90816F8f8290129dD9E62C7A75117547A98)] = true; // Sophie Sturdevant\n        _isArtist[address(0x28C0719a45F9E7a35c4dCD845D1A269d0079D781)] = true; // Joey the Photographer\n        _isArtist[address(0xB802162900a4e2d1b2472B14895D56A73aE647E8)] = true; // Willea Zwey\n        _isArtist[address(0x7049871039097E61b1Ae827e77aBb1C9a0B14061)] = true; // ProbCause\n        _isArtist[address(0x0C88aF8b65C68D1d3cb9eC719E9Ce2A76642E135)] = true; // Sean Williams\n        _isArtist[address(0x4F9B8A31c0986fA44cD386b1610F54a56eC8dc70)] = true; // Sinclair\n    }\n\n    // ---\n    // Supported Interfaces\n    // ---\n    function supportsInterface(bytes4 interfaceId) public view virtual override returns (bool) {\n        return interfaceId == _INTERFACE_ID_ERC165\n        || interfaceId == LibRoyaltiesV2._INTERFACE_ID_ROYALTIES\n        || interfaceId == _INTERFACE_ID_ERC721\n        || interfaceId == _INTERFACE_ID_ERC721_METADATA\n        || interfaceId == _INTERFACE_ID_ERC721_ENUMERABLE\n        || interfaceId == _INTERFACE_ID_EIP2981\n        || super.supportsInterface(interfaceId);\n    }\n\n    // ---\n    // Minting\n    // ---\n    function mintToken(address artistAddress, string memory metadataUri) public onlyAdmin returns (uint256 tokenId) {\n        tokenId = nextTokenId;\n        nextTokenId = nextTokenId.add(1);\n\n        _mint(artistAddress, tokenId);\n        artistByTokenId[tokenId] = artistAddress;\n\n        _metadataByTokenId[tokenId] = metadataUri;\n        emit PermanentURI(metadataUri, tokenId);\n\n        TokenBps memory tokenBps = TokenBps({\n            artistFirstSaleBps: artistFirstSaleBps,\n            artistSecondarySaleBps: artistSecondarySaleBps\n        });\n        tokenBpsByTokenId[tokenId] = tokenBps;\n    }\n\n    function artistMintToken(string memory metadataUri) public onlyArtist returns (uint256 tokenId) {\n        tokenId = nextTokenId;\n        nextTokenId = nextTokenId.add(1);\n\n        _mint(msg.sender, tokenId);\n        artistByTokenId[tokenId] = msg.sender;\n\n        _metadataByTokenId[tokenId] = metadataUri;\n        emit PermanentURI(metadataUri, tokenId);\n\n        TokenBps memory tokenBps = TokenBps({\n            artistFirstSaleBps: artistFirstSaleBps,\n            artistSecondarySaleBps: artistSecondarySaleBps\n        });\n        tokenBpsByTokenId[tokenId] = tokenBps;\n    }\n\n    // ---\n    // Burning\n    // ---\n    function burn(uint256 tokenId) public virtual onlyArtist {\n        //solhint-disable-next-line max-line-length\n        require(_isApprovedOrOwner(_msgSender(), tokenId), \"Only approved artist owners.\");\n        _burn(tokenId);\n    }\n\n    // ---\n    // Contract Updates\n    // ---\n    function updateImnotArtPayoutAddress(address newPayoutAddress) public onlyAdmin {\n        imnotArtPayoutAddress = newPayoutAddress;\n    }\n\n    function updateContractUri(string memory newContractUri) public onlyAdmin {\n        _contractUri = newContractUri;\n    }\n\n    function updateTokenMetadata(uint256 tokenId, string memory metadataUri, bool permanent) public onlyOwner onlyValidTokenId(tokenId) {\n        _metadataByTokenId[tokenId] = metadataUri;\n\n        if (permanent) {\n            emit PermanentURI(metadataUri, tokenId);\n        }\n    }\n\n    function addAdmin(address newAdminAddress) public onlyAdmin {\n        _isAdmin[newAdminAddress] = true;\n    }\n\n    function removeAdmin(address removeAdminAddress) public onlyAdmin {\n        _isAdmin[removeAdminAddress] = true;\n    }\n\n    function addApprovedArtist(address newArtistAddress) public onlyAdmin {\n        _isArtist[newArtistAddress] = true;\n    }\n\n    function removeApprovedArtist(address removeArtistAddress) public onlyAdmin {\n        _isArtist[removeArtistAddress] = false;\n    }\n\n    function toggleUseRoyaltyContracts() public onlyAdmin {\n        useRoyaltyContracts = !useRoyaltyContracts;\n    }\n\n    function addRoyaltyContractAddress(address artistAddress, address royaltyContractAddress) public onlyAdmin {\n        royaltyContractByArtistAddress[artistAddress] = royaltyContractAddress;\n    }\n\n    // ---\n    // Metadata\n    // ---\n    function tokenURI(uint256 tokenId) public view override virtual onlyValidTokenId(tokenId) returns (string memory) {\n        return _metadataByTokenId[tokenId];\n    }\n\n    // ---\n    // Contract Retrieve Functions\n    // ---\n    function getTokensOfOwner(address _owner) public view returns (uint256[] memory tokenIds) {\n        uint256 tokenCount = balanceOf(_owner);\n\n        if (tokenCount == 0) {\n            tokenIds = new uint256[](0);\n        } else {\n            tokenIds = new uint256[](tokenCount);\n            uint256 index;\n            for (index = 0; index < tokenCount; index++) {\n                tokenIds[index] = tokenOfOwnerByIndex(_owner, index);\n            }\n        }\n\n        return tokenIds;\n    }\n\n    // ---\n    // Secondary Marketplace Functions\n    // ---\n\n    /* OpenSea */\n    function contractURI() public view virtual returns (string memory) {\n        return _contractUri;\n    }\n\n    /* Rarible Royalties V2 */\n    function getRaribleV2Royalties(uint256 tokenId) external view override onlyValidTokenId(tokenId) returns (LibPart.Part[] memory) {\n        LibPart.Part[] memory royalties = new LibPart.Part[](2);\n        \n        royalties[0] = LibPart.Part({\n            account: payable(artistByTokenId[tokenId]),\n            value: uint96(artistSecondarySaleBps)\n        });\n\n        royalties[1] = LibPart.Part({\n            account: payable(imnotArtPayoutAddress),\n            value: uint96(imnotArtSecondarySaleBps)\n        });\n\n        return royalties;\n    }\n\n    /* EIP-2981 - https://eips.ethereum.org/EIPS/eip-2981 */\n    function royaltyInfo(uint256 tokenId, uint256 salePrice) external view onlyValidTokenId(tokenId) returns (address receiver, uint256 amount) {\n        address artistAddress = artistByTokenId[tokenId];\n        uint256 combinedBpsForSinglePayout = uint256(artistSecondarySaleBps).add(uint256(imnotArtSecondarySaleBps));\n        uint256 royaltyAmount = SafeMath.div(SafeMath.mul(salePrice, combinedBpsForSinglePayout), 10000);\n\n        address payoutAddress = imnotArtPayoutAddress;\n        \n        if (useRoyaltyContracts) {\n            payoutAddress = royaltyContractByArtistAddress[artistAddress];\n        }\n\n        if (payoutAddress == address(0)) {\n            payoutAddress = imnotArtPayoutAddress;\n        }\n\n        return (payoutAddress, royaltyAmount);\n    }\n\n    /*\n    \n    imnotArt POV on Gallery Exhibition Contracts\n    \n    The idea to build a smart contract specific for 'The New Digital: Born in Chicago' was \n    rooted in a desire to establish provenance within the exhibition. Through the \n    'imnotArtExhibition1' contract we allow our participating artists to mint their work \n    themselves, thus creating a digital signature with both the artist and exhibition.\n    \n    As we were finalizing this contract we started to observe a new movement of artists \n    creating their own smart contracts.\n    \n    We believe this is the future.\n    \n    In our opinion, artists are best served through minting works from their own smart contracts.  \n    As a gallery we believe this is the correct model and will do our part in encouraging and \n    onboarding artists to create their own smart contracts. \n    \n    This will be imnotArt's first - and last - exhibition contract.  Our POV may continue to evolve \n    but will always align with the best interest of artists.\n\n    - imnotMatt\n\n    */\n}",
  "sourcePath": "/Users/ianolson/code/imnotart-exhibitions/contracts/imnotArtExhibition1.sol",
  "compiler": {
    "name": "solc",
    "version": "0.8.4+commit.c7e474f2.Emscripten.clang"
  },
  "schemaVersion": "3.3.4",
  "updatedAt": "2021-08-13T04:43:59.136Z",
  "devdoc": {
    "kind": "dev",
    "methods": {
      "approve(address,uint256)": {
        "details": "See {IERC721-approve}."
      },
      "balanceOf(address)": {
        "details": "See {IERC721-balanceOf}."
      },
      "getApproved(uint256)": {
        "details": "See {IERC721-getApproved}."
      },
      "isApprovedForAll(address,address)": {
        "details": "See {IERC721-isApprovedForAll}."
      },
      "name()": {
        "details": "See {IERC721Metadata-name}."
      },
      "owner()": {
        "details": "Returns the address of the current owner."
      },
      "ownerOf(uint256)": {
        "details": "See {IERC721-ownerOf}."
      },
      "renounceOwnership()": {
        "details": "Leaves the contract without owner. It will not be possible to call `onlyOwner` functions anymore. Can only be called by the current owner. NOTE: Renouncing ownership will leave the contract without an owner, thereby removing any functionality that is only available to the owner."
      },
      "safeTransferFrom(address,address,uint256)": {
        "details": "See {IERC721-safeTransferFrom}."
      },
      "safeTransferFrom(address,address,uint256,bytes)": {
        "details": "See {IERC721-safeTransferFrom}."
      },
      "setApprovalForAll(address,bool)": {
        "details": "See {IERC721-setApprovalForAll}."
      },
      "supportsInterface(bytes4)": {
        "details": "See {IERC165-supportsInterface}."
      },
      "symbol()": {
        "details": "See {IERC721Metadata-symbol}."
      },
      "tokenByIndex(uint256)": {
        "details": "See {IERC721Enumerable-tokenByIndex}."
      },
      "tokenOfOwnerByIndex(address,uint256)": {
        "details": "See {IERC721Enumerable-tokenOfOwnerByIndex}."
      },
      "tokenURI(uint256)": {
        "details": "See {IERC721Metadata-tokenURI}."
      },
      "totalSupply()": {
        "details": "See {IERC721Enumerable-totalSupply}."
      },
      "transferFrom(address,address,uint256)": {
        "details": "See {IERC721-transferFrom}."
      },
      "transferOwnership(address)": {
        "details": "Transfers ownership of the contract to a new account (`newOwner`). Can only be called by the current owner."
      }
    },
    "version": 1
  },
  "userdoc": {
    "kind": "user",
    "methods": {},
    "version": 1
  }
}