{
  "contractName": "ImnotArtExhibitions",
  "abi": [
    {
      "inputs": [],
      "stateMutability": "nonpayable",
      "type": "constructor"
    },
    {
      "anonymous": false,
      "inputs": [
        {
          "indexed": true,
          "internalType": "address",
          "name": "owner",
          "type": "address"
        },
        {
          "indexed": true,
          "internalType": "address",
          "name": "approved",
          "type": "address"
        },
        {
          "indexed": true,
          "internalType": "uint256",
          "name": "tokenId",
          "type": "uint256"
        }
      ],
      "name": "Approval",
      "type": "event"
    },
    {
      "anonymous": false,
      "inputs": [
        {
          "indexed": true,
          "internalType": "address",
          "name": "owner",
          "type": "address"
        },
        {
          "indexed": true,
          "internalType": "address",
          "name": "operator",
          "type": "address"
        },
        {
          "indexed": false,
          "internalType": "bool",
          "name": "approved",
          "type": "bool"
        }
      ],
      "name": "ApprovalForAll",
      "type": "event"
    },
    {
      "anonymous": false,
      "inputs": [
        {
          "indexed": false,
          "internalType": "string",
          "name": "_value",
          "type": "string"
        },
        {
          "indexed": true,
          "internalType": "uint256",
          "name": "_id",
          "type": "uint256"
        }
      ],
      "name": "PermanentURI",
      "type": "event"
    },
    {
      "anonymous": false,
      "inputs": [
        {
          "indexed": true,
          "internalType": "address",
          "name": "from",
          "type": "address"
        },
        {
          "indexed": true,
          "internalType": "address",
          "name": "to",
          "type": "address"
        },
        {
          "indexed": true,
          "internalType": "uint256",
          "name": "tokenId",
          "type": "uint256"
        }
      ],
      "name": "Transfer",
      "type": "event"
    },
    {
      "inputs": [
        {
          "internalType": "address",
          "name": "to",
          "type": "address"
        },
        {
          "internalType": "uint256",
          "name": "tokenId",
          "type": "uint256"
        }
      ],
      "name": "approve",
      "outputs": [],
      "stateMutability": "nonpayable",
      "type": "function"
    },
    {
      "inputs": [
        {
          "internalType": "address",
          "name": "owner",
          "type": "address"
        }
      ],
      "name": "balanceOf",
      "outputs": [
        {
          "internalType": "uint256",
          "name": "",
          "type": "uint256"
        }
      ],
      "stateMutability": "view",
      "type": "function",
      "constant": true
    },
    {
      "inputs": [
        {
          "internalType": "uint256",
          "name": "tokenId",
          "type": "uint256"
        }
      ],
      "name": "getApproved",
      "outputs": [
        {
          "internalType": "address",
          "name": "",
          "type": "address"
        }
      ],
      "stateMutability": "view",
      "type": "function",
      "constant": true
    },
    {
      "inputs": [
        {
          "internalType": "address",
          "name": "owner",
          "type": "address"
        },
        {
          "internalType": "address",
          "name": "operator",
          "type": "address"
        }
      ],
      "name": "isApprovedForAll",
      "outputs": [
        {
          "internalType": "bool",
          "name": "",
          "type": "bool"
        }
      ],
      "stateMutability": "view",
      "type": "function",
      "constant": true
    },
    {
      "inputs": [],
      "name": "name",
      "outputs": [
        {
          "internalType": "string",
          "name": "",
          "type": "string"
        }
      ],
      "stateMutability": "view",
      "type": "function",
      "constant": true
    },
    {
      "inputs": [
        {
          "internalType": "uint256",
          "name": "tokenId",
          "type": "uint256"
        }
      ],
      "name": "ownerOf",
      "outputs": [
        {
          "internalType": "address",
          "name": "",
          "type": "address"
        }
      ],
      "stateMutability": "view",
      "type": "function",
      "constant": true
    },
    {
      "inputs": [
        {
          "internalType": "address",
          "name": "from",
          "type": "address"
        },
        {
          "internalType": "address",
          "name": "to",
          "type": "address"
        },
        {
          "internalType": "uint256",
          "name": "tokenId",
          "type": "uint256"
        }
      ],
      "name": "safeTransferFrom",
      "outputs": [],
      "stateMutability": "nonpayable",
      "type": "function"
    },
    {
      "inputs": [
        {
          "internalType": "address",
          "name": "from",
          "type": "address"
        },
        {
          "internalType": "address",
          "name": "to",
          "type": "address"
        },
        {
          "internalType": "uint256",
          "name": "tokenId",
          "type": "uint256"
        },
        {
          "internalType": "bytes",
          "name": "_data",
          "type": "bytes"
        }
      ],
      "name": "safeTransferFrom",
      "outputs": [],
      "stateMutability": "nonpayable",
      "type": "function"
    },
    {
      "inputs": [
        {
          "internalType": "address",
          "name": "operator",
          "type": "address"
        },
        {
          "internalType": "bool",
          "name": "approved",
          "type": "bool"
        }
      ],
      "name": "setApprovalForAll",
      "outputs": [],
      "stateMutability": "nonpayable",
      "type": "function"
    },
    {
      "inputs": [
        {
          "internalType": "bytes4",
          "name": "interfaceId",
          "type": "bytes4"
        }
      ],
      "name": "supportsInterface",
      "outputs": [
        {
          "internalType": "bool",
          "name": "",
          "type": "bool"
        }
      ],
      "stateMutability": "view",
      "type": "function",
      "constant": true
    },
    {
      "inputs": [],
      "name": "symbol",
      "outputs": [
        {
          "internalType": "string",
          "name": "",
          "type": "string"
        }
      ],
      "stateMutability": "view",
      "type": "function",
      "constant": true
    },
    {
      "inputs": [
        {
          "internalType": "uint256",
          "name": "index",
          "type": "uint256"
        }
      ],
      "name": "tokenByIndex",
      "outputs": [
        {
          "internalType": "uint256",
          "name": "",
          "type": "uint256"
        }
      ],
      "stateMutability": "view",
      "type": "function",
      "constant": true
    },
    {
      "inputs": [
        {
          "internalType": "address",
          "name": "owner",
          "type": "address"
        },
        {
          "internalType": "uint256",
          "name": "index",
          "type": "uint256"
        }
      ],
      "name": "tokenOfOwnerByIndex",
      "outputs": [
        {
          "internalType": "uint256",
          "name": "",
          "type": "uint256"
        }
      ],
      "stateMutability": "view",
      "type": "function",
      "constant": true
    },
    {
      "inputs": [],
      "name": "totalSupply",
      "outputs": [
        {
          "internalType": "uint256",
          "name": "",
          "type": "uint256"
        }
      ],
      "stateMutability": "view",
      "type": "function",
      "constant": true
    },
    {
      "inputs": [
        {
          "internalType": "address",
          "name": "from",
          "type": "address"
        },
        {
          "internalType": "address",
          "name": "to",
          "type": "address"
        },
        {
          "internalType": "uint256",
          "name": "tokenId",
          "type": "uint256"
        }
      ],
      "name": "transferFrom",
      "outputs": [],
      "stateMutability": "nonpayable",
      "type": "function"
    },
    {
      "inputs": [
        {
          "internalType": "address",
          "name": "artistAddress",
          "type": "address"
        },
        {
          "internalType": "string",
          "name": "metadataUri",
          "type": "string"
        },
        {
          "internalType": "uint16",
          "name": "artistFirstSaleBps",
          "type": "uint16"
        },
        {
          "internalType": "uint16",
          "name": "artistSecondarySaleBps",
          "type": "uint16"
        },
        {
          "internalType": "uint16",
          "name": "imnotArtFirstSaleBps",
          "type": "uint16"
        },
        {
          "internalType": "uint16",
          "name": "imnotArtSecondarySaleBps",
          "type": "uint16"
        },
        {
          "internalType": "bool",
          "name": "transferToMarketplaceContract",
          "type": "bool"
        }
      ],
      "name": "mintToken",
      "outputs": [
        {
          "internalType": "uint256",
          "name": "tokenId",
          "type": "uint256"
        }
      ],
      "stateMutability": "nonpayable",
      "type": "function"
    },
    {
      "inputs": [
        {
          "internalType": "address",
          "name": "newPayoutAddress",
          "type": "address"
        }
      ],
      "name": "updateImnotArtPayoutAddress",
      "outputs": [],
      "stateMutability": "nonpayable",
      "type": "function"
    },
    {
      "inputs": [
        {
          "internalType": "uint256",
          "name": "tokenId",
          "type": "uint256"
        }
      ],
      "name": "tokenURI",
      "outputs": [
        {
          "internalType": "string",
          "name": "",
          "type": "string"
        }
      ],
      "stateMutability": "view",
      "type": "function",
      "constant": true
    },
    {
      "inputs": [],
      "name": "contractURI",
      "outputs": [
        {
          "internalType": "string",
          "name": "",
          "type": "string"
        }
      ],
      "stateMutability": "view",
      "type": "function",
      "constant": true
    }
  ],
  "bytecode": "0x60806040526001600a553480156200001657600080fd5b50604080518082018252601481527f696d6e6f744172742045786869626974696f6e7300000000000000000000000060208083019182528351808501909452600884527f494d4e4f544152540000000000000000000000000000000000000000000000009084015281519192916200009191600091620000ca565b508051620000a7906001906020840190620000ca565b5050336000908152600e60205260409020805460ff1916600117905550620001c6565b828054620000d89062000170565b90600052602060002090601f016020900481019282620000fc576000855562000147565b82601f106200011757805160ff191683800117855562000147565b8280016001018555821562000147579182015b82811115620001475782518255916020019190600101906200012a565b506200015592915062000159565b5090565b5b808211156200015557600081556001016200015a565b6002810460018216806200018557607f821691505b60208210811415620001c0577f4e487b7100000000000000000000000000000000000000000000000000000000600052602260045260246000fd5b50919050565b611c9e80620001d66000396000f3fe608060405234801561001057600080fd5b506004361061013e576000357c0100000000000000000000000000000000000000000000000000000000900480636352211e116100ca578063b88d4fde1161008e578063b88d4fde1461026b578063c87b56dd1461027e578063cf1e923914610291578063e8a3d485146102a4578063e985e9c5146102ac5761013e565b80636352211e1461021757806370a082311461022a5780638b47a6cb1461023d57806395d89b4114610250578063a22cb465146102585761013e565b806318160ddd1161011157806318160ddd146101b657806323b872dd146101cb5780632f745c59146101de57806342842e0e146101f15780634f6ccce7146102045761013e565b806301ffc9a71461014357806306fdde031461016c578063081812fc14610181578063095ea7b3146101a1575b600080fd5b610156610151366004611568565b6102bf565b6040516101639190611653565b60405180910390f35b610174610305565b604051610163919061165e565b61019461018f3660046115a0565b610397565b6040516101639190611603565b6101b46101af36600461153f565b6103e6565b005b6101be610484565b6040516101639190611ba7565b6101b46101d93660046113b0565b61048a565b6101be6101ec36600461153f565b6104c5565b6101b46101ff3660046113b0565b61051a565b6101be6102123660046115a0565b610535565b6101946102253660046115a0565b610596565b6101be610238366004611364565b6105ce565b6101be61024b36600461148d565b610615565b610174610794565b6101b4610266366004611464565b6107a3565b6101b46102793660046113eb565b610874565b61017461028c3660046115a0565b6108b6565b6101b461029f366004611364565b610958565b6101746109b9565b6101566102ba36600461137e565b6109c8565b6000600160e060020a031982167f780e9d630000000000000000000000000000000000000000000000000000000014806102fd57506102fd826109f6565b90505b919050565b60606000805461031490611bdf565b80601f016020809104026020016040519081016040528092919081815260200182805461034090611bdf565b801561038d5780601f106103625761010080835404028352916020019161038d565b820191906000526020600020905b81548152906001019060200180831161037057829003601f168201915b5050505050905090565b60006103a282610a68565b6103ca5760405160e560020a62461bcd0281526004016103c19061199f565b60405180910390fd5b50600090815260046020526040902054600160a060020a031690565b60006103f182610596565b905080600160a060020a031683600160a060020a031614156104285760405160e560020a62461bcd0281526004016103c190611a90565b80600160a060020a031661043a610a85565b600160a060020a031614806104565750610456816102ba610a85565b6104755760405160e560020a62461bcd0281526004016103c190611853565b61047f8383610a89565b505050565b60085490565b61049b610495610a85565b82610b04565b6104ba5760405160e560020a62461bcd0281526004016103c190611aed565b61047f838383610b8c565b60006104d0836105ce565b82106104f15760405160e560020a62461bcd0281526004016103c190611671565b50600160a060020a03919091166000908152600660209081526040808320938352929052205490565b61047f83838360405180602001604052806000815250610874565b600061053f610484565b82106105605760405160e560020a62461bcd0281526004016103c190611b4a565b600882815481106105845760e060020a634e487b7102600052603260045260246000fd5b90600052602060002001549050919050565b600081815260026020526040812054600160a060020a0316806102fd5760405160e560020a62461bcd0281526004016103c19061190d565b6000600160a060020a0382166105f95760405160e560020a62461bcd0281526004016103c1906118b0565b50600160a060020a031660009081526003602052604090205490565b336000908152600e602052604081205460ff166106475760405160e560020a62461bcd0281526004016103c190611a59565b50600a54610656816001610ccc565b600a556106638882610cdf565b6000818152601060209081526040808320805473ffffffffffffffffffffffffffffffffffffffff1916600160a060020a038d16179055600f825290912088516106af928a0190611222565b50807fa109ba539900bf1b633f956d63c96fc89b814c7287f7aa50a9216d0b55657207886040516106e0919061165e565b60405180910390a26040805160808101825261ffff978816815295871660208088019182529588168783019081529488166060880190815260008481526011909752919095209551865495519451915161ffff199096169088161763ffff0000191662010000948816949094029390931765ffff000000001916640100000000938716939093029290921767ffff000000000000191666010000000000009390951692909202939093179091555092915050565b60606001805461031490611bdf565b6107ab610a85565b600160a060020a031682600160a060020a031614156107df5760405160e560020a62461bcd0281526004016103c1906117bf565b80600560006107ec610a85565b600160a060020a03908116825260208083019390935260409182016000908120918716808252919093529120805460ff191692151592909217909155610830610a85565b600160a060020a03167f17307eab39ab6107e8899845ad3d59bd9653f200f220920489ca2b5937696c31836040516108689190611653565b60405180910390a35050565b61088561087f610a85565b83610b04565b6108a45760405160e560020a62461bcd0281526004016103c190611aed565b6108b084848484610dd1565b50505050565b6000818152600f602052604090208054606091906108d390611bdf565b80601f01602080910402602001604051908101604052809291908181526020018280546108ff90611bdf565b801561094c5780601f106109215761010080835404028352916020019161094c565b820191906000526020600020905b81548152906001019060200180831161092f57829003601f168201915b50505050509050919050565b336000908152600e602052604090205460ff1661098a5760405160e560020a62461bcd0281526004016103c190611a59565b600b805473ffffffffffffffffffffffffffffffffffffffff1916600160a060020a0392909216919091179055565b6060600d805461031490611bdf565b600160a060020a03918216600090815260056020908152604080832093909416825291909152205460ff1690565b6000600160e060020a031982167f80ac58cd000000000000000000000000000000000000000000000000000000001480610a595750600160e060020a031982167f5b5e139f00000000000000000000000000000000000000000000000000000000145b806102fd57506102fd82610e07565b600090815260026020526040902054600160a060020a0316151590565b3390565b6000818152600460205260409020805473ffffffffffffffffffffffffffffffffffffffff1916600160a060020a0384169081179091558190610acb82610596565b600160a060020a03167f8c5be1e5ebec7d5bd14f71427d1e84f3dd0314c0f7b2291e5b200ac8c7c3b92560405160405180910390a45050565b6000610b0f82610a68565b610b2e5760405160e560020a62461bcd0281526004016103c1906117f6565b6000610b3983610596565b905080600160a060020a031684600160a060020a03161480610b74575083600160a060020a0316610b6984610397565b600160a060020a0316145b80610b845750610b8481856109c8565b949350505050565b82600160a060020a0316610b9f82610596565b600160a060020a031614610bc85760405160e560020a62461bcd0281526004016103c1906119fc565b600160a060020a038216610bf15760405160e560020a62461bcd0281526004016103c190611762565b610bfc838383610e39565b610c07600082610a89565b600160a060020a0383166000908152600360205260408120805460019290610c30908490611bc8565b9091555050600160a060020a0382166000908152600360205260408120805460019290610c5e908490611bb0565b9091555050600081815260026020526040808220805473ffffffffffffffffffffffffffffffffffffffff1916600160a060020a0386811691821790925591518493918716917fddf252ad1be2c89b69c2b068fc378daa952ba7f163c4a11628f55a4df523b3ef91a4505050565b6000610cd88284611bb0565b9392505050565b600160a060020a038216610d085760405160e560020a62461bcd0281526004016103c19061196a565b610d1181610a68565b15610d315760405160e560020a62461bcd0281526004016103c19061172b565b610d3d60008383610e39565b600160a060020a0382166000908152600360205260408120805460019290610d66908490611bb0565b9091555050600081815260026020526040808220805473ffffffffffffffffffffffffffffffffffffffff1916600160a060020a03861690811790915590518392907fddf252ad1be2c89b69c2b068fc378daa952ba7f163c4a11628f55a4df523b3ef908290a45050565b610ddc848484610b8c565b610de884848484610ec2565b6108b05760405160e560020a62461bcd0281526004016103c1906116ce565b600160e060020a031981167f01ffc9a70000000000000000000000000000000000000000000000000000000014919050565b610e4483838361047f565b600160a060020a038316610e6057610e5b81611015565b610e83565b81600160a060020a031683600160a060020a031614610e8357610e838382611059565b600160a060020a038216610e9f57610e9a816110f6565b61047f565b82600160a060020a031682600160a060020a03161461047f5761047f82826111d8565b6000610ed684600160a060020a031661121c565b1561100a5783600160a060020a031663150b7a02610ef2610a85565b8786866040518563ffffffff167c0100000000000000000000000000000000000000000000000000000000028152600401610f309493929190611617565b602060405180830381600087803b158015610f4a57600080fd5b505af1925050508015610f7a575060408051601f3d908101601f19168201909252610f7791810190611584565b60015b610fd7573d808015610fa8576040519150601f19603f3d011682016040523d82523d6000602084013e610fad565b606091505b508051610fcf5760405160e560020a62461bcd0281526004016103c1906116ce565b805181602001fd5b600160e060020a0319167f150b7a0200000000000000000000000000000000000000000000000000000000149050610b84565b506001949350505050565b600880546000838152600960205260408120829055600182018355919091527ff3f7a9fe364faab93b216da50a3214154f22a0a2b415b23a84c8169e8b636ee30155565b60006001611066846105ce565b6110709190611bc8565b6000838152600760205260409020549091508082146110c357600160a060020a03841660009081526006602090815260408083208584528252808320548484528184208190558352600790915290208190555b506000918252600760209081526040808420849055600160a060020a039094168352600681528383209183525290812055565b60085460009061110890600190611bc8565b600083815260096020526040812054600880549394509092849081106111415760e060020a634e487b7102600052603260045260246000fd5b9060005260206000200154905080600883815481106111735760e060020a634e487b7102600052603260045260246000fd5b60009182526020808320909101929092558281526009909152604080822084905585825281205560088054806111bc5760e060020a634e487b7102600052603160045260246000fd5b6001900381819060005260206000200160009055905550505050565b60006111e3836105ce565b600160a060020a039093166000908152600660209081526040808320868452825280832085905593825260079052919091209190915550565b3b151590565b82805461122e90611bdf565b90600052602060002090601f0160209004810192826112505760008555611296565b82601f1061126957805160ff1916838001178555611296565b82800160010185558215611296579182015b8281111561129657825182559160200191906001019061127b565b506112a29291506112a6565b5090565b5b808211156112a257600081556001016112a7565b600067ffffffffffffffff808411156112d6576112d6611c36565b604051601f8501601f1916810160200182811182821017156112fa576112fa611c36565b60405284815291508183850186101561131257600080fd5b8484602083013760006020868301015250509392505050565b8035600160a060020a038116811461030057600080fd5b8035801515811461030057600080fd5b803561ffff8116811461030057600080fd5b600060208284031215611375578081fd5b610cd88261132b565b60008060408385031215611390578081fd5b6113998361132b565b91506113a76020840161132b565b90509250929050565b6000806000606084860312156113c4578081fd5b6113cd8461132b565b92506113db6020850161132b565b9150604084013590509250925092565b60008060008060808587031215611400578081fd5b6114098561132b565b93506114176020860161132b565b925060408501359150606085013567ffffffffffffffff811115611439578182fd5b8501601f81018713611449578182fd5b611458878235602084016112bb565b91505092959194509250565b60008060408385031215611476578182fd5b61147f8361132b565b91506113a760208401611342565b600080600080600080600060e0888a0312156114a7578283fd5b6114b08861132b565b9650602088013567ffffffffffffffff8111156114cb578384fd5b8801601f81018a136114db578384fd5b6114ea8a8235602084016112bb565b9650506114f960408901611352565b945061150760608901611352565b935061151560808901611352565b925061152360a08901611352565b915061153160c08901611342565b905092959891949750929550565b60008060408385031215611551578182fd5b61155a8361132b565b946020939093013593505050565b600060208284031215611579578081fd5b8135610cd881611c4f565b600060208284031215611595578081fd5b8151610cd881611c4f565b6000602082840312156115b1578081fd5b5035919050565b60008151808452815b818110156115dd576020818501810151868301820152016115c1565b818111156115ee5782602083870101525b50601f01601f19169290920160200192915050565b600160a060020a0391909116815260200190565b6000600160a060020a0380871683528086166020840152508360408301526080606083015261164960808301846115b8565b9695505050505050565b901515815260200190565b600060208252610cd860208301846115b8565b6020808252602b908201527f455243373231456e756d657261626c653a206f776e657220696e646578206f7560408201527f74206f6620626f756e6473000000000000000000000000000000000000000000606082015260800190565b60208082526032908201527f4552433732313a207472616e7366657220746f206e6f6e20455243373231526560408201527f63656976657220696d706c656d656e7465720000000000000000000000000000606082015260800190565b6020808252601c908201527f4552433732313a20746f6b656e20616c7265616479206d696e74656400000000604082015260600190565b60208082526024908201527f4552433732313a207472616e7366657220746f20746865207a65726f2061646460408201527f7265737300000000000000000000000000000000000000000000000000000000606082015260800190565b60208082526019908201527f4552433732313a20617070726f766520746f2063616c6c657200000000000000604082015260600190565b6020808252602c908201527f4552433732313a206f70657261746f7220717565727920666f72206e6f6e657860408201527f697374656e7420746f6b656e0000000000000000000000000000000000000000606082015260800190565b60208082526038908201527f4552433732313a20617070726f76652063616c6c6572206973206e6f74206f7760408201527f6e6572206e6f7220617070726f76656420666f7220616c6c0000000000000000606082015260800190565b6020808252602a908201527f4552433732313a2062616c616e636520717565727920666f7220746865207a6560408201527f726f206164647265737300000000000000000000000000000000000000000000606082015260800190565b60208082526029908201527f4552433732313a206f776e657220717565727920666f72206e6f6e657869737460408201527f656e7420746f6b656e0000000000000000000000000000000000000000000000606082015260800190565b6020808252818101527f4552433732313a206d696e7420746f20746865207a65726f2061646472657373604082015260600190565b6020808252602c908201527f4552433732313a20617070726f76656420717565727920666f72206e6f6e657860408201527f697374656e7420746f6b656e0000000000000000000000000000000000000000606082015260800190565b60208082526029908201527f4552433732313a207472616e73666572206f6620746f6b656e2074686174206960408201527f73206e6f74206f776e0000000000000000000000000000000000000000000000606082015260800190565b6020808252600c908201527f4f6e6c792061646d696e732e0000000000000000000000000000000000000000604082015260600190565b60208082526021908201527f4552433732313a20617070726f76616c20746f2063757272656e74206f776e6560408201527f7200000000000000000000000000000000000000000000000000000000000000606082015260800190565b60208082526031908201527f4552433732313a207472616e736665722063616c6c6572206973206e6f74206f60408201527f776e6572206e6f7220617070726f766564000000000000000000000000000000606082015260800190565b6020808252602c908201527f455243373231456e756d657261626c653a20676c6f62616c20696e646578206f60408201527f7574206f6620626f756e64730000000000000000000000000000000000000000606082015260800190565b90815260200190565b60008219821115611bc357611bc3611c1d565b500190565b600082821015611bda57611bda611c1d565b500390565b600281046001821680611bf357607f821691505b60208210811415611c175760e060020a634e487b7102600052602260045260246000fd5b50919050565b60e060020a634e487b7102600052601160045260246000fd5b60e060020a634e487b7102600052604160045260246000fd5b600160e060020a031981168114611c6557600080fd5b5056fea2646970667358221220ad255b13b0644acb38bce968fa0467460d985009dc9ae06d4ac62d8f6fd4578964736f6c63430008000033",
  "immutableReferences": {},
  "source": "// SPDX-License-Identifier: MIT\n\npragma solidity ^0.8.0;\n\nimport \"@openzeppelin/contracts/token/ERC721/extensions/ERC721Enumerable.sol\";\nimport \"@openzeppelin/contracts/utils/math/SafeMath.sol\";\n\ncontract ImnotArtExhibitions is ERC721Enumerable {\n    using SafeMath for uint256;\n\n    // ---\n    // Properties\n    // ---\n    uint256 private _nextTokenId = 1;\n    address private _imnotArtPayoutAddress;\n    address private _imnotArtMarketplaceContract;\n    string private _contractUri;\n\n    // ---\n    // Structs\n    // ---\n    struct TokenBps {\n        uint16 artistFirstSaleBps;\n        uint16 artistSecondarySaleBps;\n        uint16 imnotArtFirstSaleBps;\n        uint16 imnotArtSecondarySaleBps;\n    }\n\n    // ---\n    // Events\n    // ---\n    event PermanentURI(string _value, uint256 indexed _id); // OpenSea Freezing Metadata\n\n    // ---\n    // Security\n    // ---\n    mapping(address => bool) private _isAdmin;\n\n    modifier onlyAdmin() {\n        require(_isAdmin[msg.sender], \"Only admins.\");\n        _;\n    }\n\n    modifier onlyValidTokenId(uint256 tokenId) {\n        require(_exists(tokenId), \"Token ID does not exist.\");\n        _;\n    }\n\n    // ---\n    // Mappings\n    // ---\n    mapping(uint256 => string) private _metadataByTokenId;\n    mapping(uint256 => address) private _artistByTokenId;\n    mapping(uint256 => TokenBps) private _tokenBpsByTokenId;\n\n    // ---\n    // Constructor\n    // ---\n    constructor() ERC721(\"imnotArt Exhibitions\", \"IMNOTART\") {\n        _isAdmin[msg.sender] = true;\n        // @TODO(iolson): Set admin(s)\n        // @TODO(iolson): Set initial Contract URI\n    }\n\n    // ---\n    // Minting\n    // ---\n    function mintToken(\n        address artistAddress,\n        string memory metadataUri,\n        uint16 artistFirstSaleBps, \n        uint16 artistSecondarySaleBps, \n        uint16 imnotArtFirstSaleBps, \n        uint16 imnotArtSecondarySaleBps, \n        bool transferToMarketplaceContract\n        ) public onlyAdmin returns (uint256 tokenId) {\n        tokenId = _nextTokenId;\n        _nextTokenId = _nextTokenId.add(1);\n\n        _mint(artistAddress, tokenId);\n        _artistByTokenId[tokenId] = artistAddress;\n\n        _metadataByTokenId[tokenId] = metadataUri;\n        emit PermanentURI(metadataUri, tokenId);\n\n        TokenBps memory tokenBps = TokenBps({\n            artistFirstSaleBps: artistFirstSaleBps,\n            artistSecondarySaleBps: artistSecondarySaleBps,\n            imnotArtFirstSaleBps: imnotArtFirstSaleBps,\n            imnotArtSecondarySaleBps: imnotArtSecondarySaleBps\n        });\n        _tokenBpsByTokenId[tokenId] = tokenBps;\n\n        if (transferToMarketplaceContract) {\n            // @TODO(iolson): Transfer to the Marketplace Contract to put up for auction?\n        }\n    }\n\n    // ---\n    // Contract Updates\n    // ---\n    function updateImnotArtPayoutAddress(address newPayoutAddress) public onlyAdmin {\n        _imnotArtPayoutAddress = newPayoutAddress;\n    }\n\n    // ---\n    // Metadata\n    // ---\n    function tokenURI(uint256 tokenId) public view override virtual returns (string memory) {\n        return _metadataByTokenId[tokenId];\n    }\n\n    // ---\n    // Secondary Marketplace Functions\n    // ---\n\n    /* OpenSea */\n    function contractURI() public view virtual returns (string memory) {\n        return _contractUri;\n    }\n}",
  "sourcePath": "/Users/ianolson/code/imnotart-exhibitions/contracts/ImnotArtExhibitions.sol",
  "compiler": {
    "name": "solc",
    "version": "0.8.0+commit.c7dfd78e.Emscripten.clang"
  },
  "schemaVersion": "3.3.4",
  "updatedAt": "2021-07-27T04:42:51.948Z",
  "networkType": "ethereum",
  "devdoc": {
    "kind": "dev",
    "methods": {
      "approve(address,uint256)": {
        "details": "See {IERC721-approve}."
      },
      "balanceOf(address)": {
        "details": "See {IERC721-balanceOf}."
      },
      "getApproved(uint256)": {
        "details": "See {IERC721-getApproved}."
      },
      "isApprovedForAll(address,address)": {
        "details": "See {IERC721-isApprovedForAll}."
      },
      "name()": {
        "details": "See {IERC721Metadata-name}."
      },
      "ownerOf(uint256)": {
        "details": "See {IERC721-ownerOf}."
      },
      "safeTransferFrom(address,address,uint256)": {
        "details": "See {IERC721-safeTransferFrom}."
      },
      "safeTransferFrom(address,address,uint256,bytes)": {
        "details": "See {IERC721-safeTransferFrom}."
      },
      "setApprovalForAll(address,bool)": {
        "details": "See {IERC721-setApprovalForAll}."
      },
      "supportsInterface(bytes4)": {
        "details": "See {IERC165-supportsInterface}."
      },
      "symbol()": {
        "details": "See {IERC721Metadata-symbol}."
      },
      "tokenByIndex(uint256)": {
        "details": "See {IERC721Enumerable-tokenByIndex}."
      },
      "tokenOfOwnerByIndex(address,uint256)": {
        "details": "See {IERC721Enumerable-tokenOfOwnerByIndex}."
      },
      "tokenURI(uint256)": {
        "details": "See {IERC721Metadata-tokenURI}."
      },
      "totalSupply()": {
        "details": "See {IERC721Enumerable-totalSupply}."
      },
      "transferFrom(address,address,uint256)": {
        "details": "See {IERC721-transferFrom}."
      }
    },
    "version": 1
  },
  "userdoc": {
    "kind": "user",
    "methods": {},
    "version": 1
  }
}