{
  "contractName": "ImnotArtExhibitions",
  "abi": [
    {
      "inputs": [],
      "stateMutability": "nonpayable",
      "type": "constructor"
    },
    {
      "anonymous": false,
      "inputs": [
        {
          "indexed": true,
          "internalType": "address",
          "name": "owner",
          "type": "address"
        },
        {
          "indexed": true,
          "internalType": "address",
          "name": "approved",
          "type": "address"
        },
        {
          "indexed": true,
          "internalType": "uint256",
          "name": "tokenId",
          "type": "uint256"
        }
      ],
      "name": "Approval",
      "type": "event"
    },
    {
      "anonymous": false,
      "inputs": [
        {
          "indexed": true,
          "internalType": "address",
          "name": "owner",
          "type": "address"
        },
        {
          "indexed": true,
          "internalType": "address",
          "name": "operator",
          "type": "address"
        },
        {
          "indexed": false,
          "internalType": "bool",
          "name": "approved",
          "type": "bool"
        }
      ],
      "name": "ApprovalForAll",
      "type": "event"
    },
    {
      "anonymous": false,
      "inputs": [
        {
          "indexed": false,
          "internalType": "string",
          "name": "_value",
          "type": "string"
        },
        {
          "indexed": true,
          "internalType": "uint256",
          "name": "_id",
          "type": "uint256"
        }
      ],
      "name": "PermanentURI",
      "type": "event"
    },
    {
      "anonymous": false,
      "inputs": [
        {
          "indexed": true,
          "internalType": "address",
          "name": "from",
          "type": "address"
        },
        {
          "indexed": true,
          "internalType": "address",
          "name": "to",
          "type": "address"
        },
        {
          "indexed": true,
          "internalType": "uint256",
          "name": "tokenId",
          "type": "uint256"
        }
      ],
      "name": "Transfer",
      "type": "event"
    },
    {
      "inputs": [
        {
          "internalType": "address",
          "name": "to",
          "type": "address"
        },
        {
          "internalType": "uint256",
          "name": "tokenId",
          "type": "uint256"
        }
      ],
      "name": "approve",
      "outputs": [],
      "stateMutability": "nonpayable",
      "type": "function"
    },
    {
      "inputs": [
        {
          "internalType": "address",
          "name": "owner",
          "type": "address"
        }
      ],
      "name": "balanceOf",
      "outputs": [
        {
          "internalType": "uint256",
          "name": "",
          "type": "uint256"
        }
      ],
      "stateMutability": "view",
      "type": "function"
    },
    {
      "inputs": [
        {
          "internalType": "uint256",
          "name": "tokenId",
          "type": "uint256"
        }
      ],
      "name": "getApproved",
      "outputs": [
        {
          "internalType": "address",
          "name": "",
          "type": "address"
        }
      ],
      "stateMutability": "view",
      "type": "function"
    },
    {
      "inputs": [
        {
          "internalType": "address",
          "name": "owner",
          "type": "address"
        },
        {
          "internalType": "address",
          "name": "operator",
          "type": "address"
        }
      ],
      "name": "isApprovedForAll",
      "outputs": [
        {
          "internalType": "bool",
          "name": "",
          "type": "bool"
        }
      ],
      "stateMutability": "view",
      "type": "function"
    },
    {
      "inputs": [],
      "name": "name",
      "outputs": [
        {
          "internalType": "string",
          "name": "",
          "type": "string"
        }
      ],
      "stateMutability": "view",
      "type": "function"
    },
    {
      "inputs": [],
      "name": "nextTokenId",
      "outputs": [
        {
          "internalType": "uint256",
          "name": "",
          "type": "uint256"
        }
      ],
      "stateMutability": "view",
      "type": "function"
    },
    {
      "inputs": [
        {
          "internalType": "uint256",
          "name": "tokenId",
          "type": "uint256"
        }
      ],
      "name": "ownerOf",
      "outputs": [
        {
          "internalType": "address",
          "name": "",
          "type": "address"
        }
      ],
      "stateMutability": "view",
      "type": "function"
    },
    {
      "inputs": [
        {
          "internalType": "address",
          "name": "from",
          "type": "address"
        },
        {
          "internalType": "address",
          "name": "to",
          "type": "address"
        },
        {
          "internalType": "uint256",
          "name": "tokenId",
          "type": "uint256"
        }
      ],
      "name": "safeTransferFrom",
      "outputs": [],
      "stateMutability": "nonpayable",
      "type": "function"
    },
    {
      "inputs": [
        {
          "internalType": "address",
          "name": "from",
          "type": "address"
        },
        {
          "internalType": "address",
          "name": "to",
          "type": "address"
        },
        {
          "internalType": "uint256",
          "name": "tokenId",
          "type": "uint256"
        },
        {
          "internalType": "bytes",
          "name": "_data",
          "type": "bytes"
        }
      ],
      "name": "safeTransferFrom",
      "outputs": [],
      "stateMutability": "nonpayable",
      "type": "function"
    },
    {
      "inputs": [
        {
          "internalType": "address",
          "name": "operator",
          "type": "address"
        },
        {
          "internalType": "bool",
          "name": "approved",
          "type": "bool"
        }
      ],
      "name": "setApprovalForAll",
      "outputs": [],
      "stateMutability": "nonpayable",
      "type": "function"
    },
    {
      "inputs": [
        {
          "internalType": "bytes4",
          "name": "interfaceId",
          "type": "bytes4"
        }
      ],
      "name": "supportsInterface",
      "outputs": [
        {
          "internalType": "bool",
          "name": "",
          "type": "bool"
        }
      ],
      "stateMutability": "view",
      "type": "function"
    },
    {
      "inputs": [],
      "name": "symbol",
      "outputs": [
        {
          "internalType": "string",
          "name": "",
          "type": "string"
        }
      ],
      "stateMutability": "view",
      "type": "function"
    },
    {
      "inputs": [
        {
          "internalType": "uint256",
          "name": "index",
          "type": "uint256"
        }
      ],
      "name": "tokenByIndex",
      "outputs": [
        {
          "internalType": "uint256",
          "name": "",
          "type": "uint256"
        }
      ],
      "stateMutability": "view",
      "type": "function"
    },
    {
      "inputs": [
        {
          "internalType": "address",
          "name": "owner",
          "type": "address"
        },
        {
          "internalType": "uint256",
          "name": "index",
          "type": "uint256"
        }
      ],
      "name": "tokenOfOwnerByIndex",
      "outputs": [
        {
          "internalType": "uint256",
          "name": "",
          "type": "uint256"
        }
      ],
      "stateMutability": "view",
      "type": "function"
    },
    {
      "inputs": [],
      "name": "totalSupply",
      "outputs": [
        {
          "internalType": "uint256",
          "name": "",
          "type": "uint256"
        }
      ],
      "stateMutability": "view",
      "type": "function"
    },
    {
      "inputs": [
        {
          "internalType": "address",
          "name": "from",
          "type": "address"
        },
        {
          "internalType": "address",
          "name": "to",
          "type": "address"
        },
        {
          "internalType": "uint256",
          "name": "tokenId",
          "type": "uint256"
        }
      ],
      "name": "transferFrom",
      "outputs": [],
      "stateMutability": "nonpayable",
      "type": "function"
    },
    {
      "inputs": [
        {
          "internalType": "address",
          "name": "artistAddress",
          "type": "address"
        },
        {
          "internalType": "string",
          "name": "metadataUri",
          "type": "string"
        },
        {
          "internalType": "uint16",
          "name": "artistFirstSaleBps",
          "type": "uint16"
        },
        {
          "internalType": "uint16",
          "name": "artistSecondarySaleBps",
          "type": "uint16"
        },
        {
          "internalType": "bool",
          "name": "transferToMarketplaceContract",
          "type": "bool"
        }
      ],
      "name": "mintToken",
      "outputs": [
        {
          "internalType": "uint256",
          "name": "tokenId",
          "type": "uint256"
        }
      ],
      "stateMutability": "nonpayable",
      "type": "function"
    },
    {
      "inputs": [
        {
          "internalType": "address",
          "name": "newPayoutAddress",
          "type": "address"
        }
      ],
      "name": "updateImnotArtPayoutAddress",
      "outputs": [],
      "stateMutability": "nonpayable",
      "type": "function"
    },
    {
      "inputs": [
        {
          "internalType": "string",
          "name": "newContractUri",
          "type": "string"
        }
      ],
      "name": "updateContractUri",
      "outputs": [],
      "stateMutability": "nonpayable",
      "type": "function"
    },
    {
      "inputs": [
        {
          "internalType": "address",
          "name": "newAdminAddress",
          "type": "address"
        }
      ],
      "name": "addAdmin",
      "outputs": [],
      "stateMutability": "nonpayable",
      "type": "function"
    },
    {
      "inputs": [
        {
          "internalType": "uint256",
          "name": "tokenId",
          "type": "uint256"
        }
      ],
      "name": "tokenURI",
      "outputs": [
        {
          "internalType": "string",
          "name": "",
          "type": "string"
        }
      ],
      "stateMutability": "view",
      "type": "function"
    },
    {
      "inputs": [],
      "name": "contractURI",
      "outputs": [
        {
          "internalType": "string",
          "name": "",
          "type": "string"
        }
      ],
      "stateMutability": "view",
      "type": "function"
    }
  ],
  "bytecode": "0x60806040526001600a553480156200001657600080fd5b50604080518082018252601481527f696d6e6f744172742045786869626974696f6e7300000000000000000000000060208083019182528351808501909452600884527f494d4e4f544152540000000000000000000000000000000000000000000000009084015281519192916200009191600091620000ca565b508051620000a7906001906020840190620000ca565b5050336000908152600e60205260409020805460ff1916600117905550620001c6565b828054620000d89062000170565b90600052602060002090601f016020900481019282620000fc576000855562000147565b82601f106200011757805160ff191683800117855562000147565b8280016001018555821562000147579182015b82811115620001475782518255916020019190600101906200012a565b506200015592915062000159565b5090565b5b808211156200015557600081556001016200015a565b6002810460018216806200018557607f821691505b60208210811415620001c0577f4e487b7100000000000000000000000000000000000000000000000000000000600052602260045260246000fd5b50919050565b611d5d80620001d66000396000f3fe608060405234801561001057600080fd5b506004361061015f576000357c0100000000000000000000000000000000000000000000000000000000900480636352211e116100d5578063a22cb46511610099578063a22cb465146102a7578063b88d4fde146102ba578063c87b56dd146102cd578063cf1e9239146102e0578063e8a3d485146102f3578063e985e9c5146102fb5761015f565b80636352211e1461025e578063704802751461027157806370a082311461028457806375794a3c1461029757806395d89b411461029f5761015f565b806318160ddd1161012757806318160ddd146101f757806323b872dd146101ff5780632f745c591461021257806342842e0e1461022557806347c8ff5e146102385780634f6ccce71461024b5761015f565b806301ffc9a71461016457806306fdde031461018d578063081812fc146101a2578063095ea7b3146101c25780631527aad4146101d7575b600080fd5b6101776101723660046115f4565b61030e565b6040516101849190611712565b60405180910390f35b610195610354565b604051610184919061171d565b6101b56101b036600461165f565b6103e6565b60405161018491906116c2565b6101d56101d03660046115cb565b610435565b005b6101ea6101e536600461154d565b6104d3565b6040516101849190611c66565b6101ea6105ff565b6101d561020d366004611470565b610605565b6101ea6102203660046115cb565b610640565b6101d5610233366004611470565b610695565b6101d561024636600461162c565b6106b0565b6101ea61025936600461165f565b6106f9565b6101b561026c36600461165f565b61075a565b6101d561027f366004611424565b610792565b6101ea610292366004611424565b6107e8565b6101ea61082f565b610195610835565b6101d56102b5366004611524565b610844565b6101d56102c83660046114ab565b610915565b6101956102db36600461165f565b610957565b6101d56102ee366004611424565b6109f9565b610195610a5a565b61017761030936600461143e565b610a69565b6000600160e060020a031982167f780e9d6300000000000000000000000000000000000000000000000000000000148061034c575061034c82610a97565b90505b919050565b60606000805461036390611c9e565b80601f016020809104026020016040519081016040528092919081815260200182805461038f90611c9e565b80156103dc5780601f106103b1576101008083540402835291602001916103dc565b820191906000526020600020905b8154815290600101906020018083116103bf57829003601f168201915b5050505050905090565b60006103f182610b09565b6104195760405160e560020a62461bcd02815260040161041090611a5e565b60405180910390fd5b50600090815260046020526040902054600160a060020a031690565b60006104408261075a565b905080600160a060020a031683600160a060020a031614156104775760405160e560020a62461bcd02815260040161041090611b4f565b80600160a060020a0316610489610b26565b600160a060020a031614806104a557506104a581610309610b26565b6104c45760405160e560020a62461bcd02815260040161041090611912565b6104ce8383610b2a565b505050565b336000908152600e602052604081205460ff166105055760405160e560020a62461bcd02815260040161041090611b18565b50600a54610514816001610ba5565b600a556105218682610bb8565b6000818152601060209081526040808320805473ffffffffffffffffffffffffffffffffffffffff1916600160a060020a038b16179055600f8252909120865161056d928801906112c3565b50807fa109ba539900bf1b633f956d63c96fc89b814c7287f7aa50a9216d0b556572078660405161059e919061171d565b60405180910390a260408051808201825261ffff95861681529385166020808601918252600084815260119091529190912093518454915161ffff199092169086161763ffff00001916620100009190951602939093179091555092915050565b60085490565b610616610610610b26565b82610caa565b6106355760405160e560020a62461bcd02815260040161041090611bac565b6104ce838383610d32565b600061064b836107e8565b821061066c5760405160e560020a62461bcd02815260040161041090611730565b50600160a060020a03919091166000908152600660209081526040808320938352929052205490565b6104ce83838360405180602001604052806000815250610915565b336000908152600e602052604090205460ff166106e25760405160e560020a62461bcd02815260040161041090611b18565b80516106f590600d9060208401906112c3565b5050565b60006107036105ff565b82106107245760405160e560020a62461bcd02815260040161041090611c09565b600882815481106107485760e060020a634e487b7102600052603260045260246000fd5b90600052602060002001549050919050565b600081815260026020526040812054600160a060020a03168061034c5760405160e560020a62461bcd028152600401610410906119cc565b336000908152600e602052604090205460ff166107c45760405160e560020a62461bcd02815260040161041090611b18565b600160a060020a03166000908152600e60205260409020805460ff19166001179055565b6000600160a060020a0382166108135760405160e560020a62461bcd0281526004016104109061196f565b50600160a060020a031660009081526003602052604090205490565b600a5481565b60606001805461036390611c9e565b61084c610b26565b600160a060020a031682600160a060020a031614156108805760405160e560020a62461bcd0281526004016104109061187e565b806005600061088d610b26565b600160a060020a03908116825260208083019390935260409182016000908120918716808252919093529120805460ff1916921515929092179091556108d1610b26565b600160a060020a03167f17307eab39ab6107e8899845ad3d59bd9653f200f220920489ca2b5937696c31836040516109099190611712565b60405180910390a35050565b610926610920610b26565b83610caa565b6109455760405160e560020a62461bcd02815260040161041090611bac565b61095184848484610e72565b50505050565b6000818152600f6020526040902080546060919061097490611c9e565b80601f01602080910402602001604051908101604052809291908181526020018280546109a090611c9e565b80156109ed5780601f106109c2576101008083540402835291602001916109ed565b820191906000526020600020905b8154815290600101906020018083116109d057829003601f168201915b50505050509050919050565b336000908152600e602052604090205460ff16610a2b5760405160e560020a62461bcd02815260040161041090611b18565b600b805473ffffffffffffffffffffffffffffffffffffffff1916600160a060020a0392909216919091179055565b6060600d805461036390611c9e565b600160a060020a03918216600090815260056020908152604080832093909416825291909152205460ff1690565b6000600160e060020a031982167f80ac58cd000000000000000000000000000000000000000000000000000000001480610afa5750600160e060020a031982167f5b5e139f00000000000000000000000000000000000000000000000000000000145b8061034c575061034c82610ea8565b600090815260026020526040902054600160a060020a0316151590565b3390565b6000818152600460205260409020805473ffffffffffffffffffffffffffffffffffffffff1916600160a060020a0384169081179091558190610b6c8261075a565b600160a060020a03167f8c5be1e5ebec7d5bd14f71427d1e84f3dd0314c0f7b2291e5b200ac8c7c3b92560405160405180910390a45050565b6000610bb18284611c6f565b9392505050565b600160a060020a038216610be15760405160e560020a62461bcd02815260040161041090611a29565b610bea81610b09565b15610c0a5760405160e560020a62461bcd028152600401610410906117ea565b610c1660008383610eda565b600160a060020a0382166000908152600360205260408120805460019290610c3f908490611c6f565b9091555050600081815260026020526040808220805473ffffffffffffffffffffffffffffffffffffffff1916600160a060020a03861690811790915590518392907fddf252ad1be2c89b69c2b068fc378daa952ba7f163c4a11628f55a4df523b3ef908290a45050565b6000610cb582610b09565b610cd45760405160e560020a62461bcd028152600401610410906118b5565b6000610cdf8361075a565b905080600160a060020a031684600160a060020a03161480610d1a575083600160a060020a0316610d0f846103e6565b600160a060020a0316145b80610d2a5750610d2a8185610a69565b949350505050565b82600160a060020a0316610d458261075a565b600160a060020a031614610d6e5760405160e560020a62461bcd02815260040161041090611abb565b600160a060020a038216610d975760405160e560020a62461bcd02815260040161041090611821565b610da2838383610eda565b610dad600082610b2a565b600160a060020a0383166000908152600360205260408120805460019290610dd6908490611c87565b9091555050600160a060020a0382166000908152600360205260408120805460019290610e04908490611c6f565b9091555050600081815260026020526040808220805473ffffffffffffffffffffffffffffffffffffffff1916600160a060020a0386811691821790925591518493918716917fddf252ad1be2c89b69c2b068fc378daa952ba7f163c4a11628f55a4df523b3ef91a4505050565b610e7d848484610d32565b610e8984848484610f63565b6109515760405160e560020a62461bcd0281526004016104109061178d565b600160e060020a031981167f01ffc9a70000000000000000000000000000000000000000000000000000000014919050565b610ee58383836104ce565b600160a060020a038316610f0157610efc816110b6565b610f24565b81600160a060020a031683600160a060020a031614610f2457610f2483826110fa565b600160a060020a038216610f4057610f3b81611197565b6104ce565b82600160a060020a031682600160a060020a0316146104ce576104ce8282611279565b6000610f7784600160a060020a03166112bd565b156110ab5783600160a060020a031663150b7a02610f93610b26565b8786866040518563ffffffff167c0100000000000000000000000000000000000000000000000000000000028152600401610fd194939291906116d6565b602060405180830381600087803b158015610feb57600080fd5b505af192505050801561101b575060408051601f3d908101601f1916820190925261101891810190611610565b60015b611078573d808015611049576040519150601f19603f3d011682016040523d82523d6000602084013e61104e565b606091505b5080516110705760405160e560020a62461bcd0281526004016104109061178d565b805181602001fd5b600160e060020a0319167f150b7a0200000000000000000000000000000000000000000000000000000000149050610d2a565b506001949350505050565b600880546000838152600960205260408120829055600182018355919091527ff3f7a9fe364faab93b216da50a3214154f22a0a2b415b23a84c8169e8b636ee30155565b60006001611107846107e8565b6111119190611c87565b60008381526007602052604090205490915080821461116457600160a060020a03841660009081526006602090815260408083208584528252808320548484528184208190558352600790915290208190555b506000918252600760209081526040808420849055600160a060020a039094168352600681528383209183525290812055565b6008546000906111a990600190611c87565b600083815260096020526040812054600880549394509092849081106111e25760e060020a634e487b7102600052603260045260246000fd5b9060005260206000200154905080600883815481106112145760e060020a634e487b7102600052603260045260246000fd5b600091825260208083209091019290925582815260099091526040808220849055858252812055600880548061125d5760e060020a634e487b7102600052603160045260246000fd5b6001900381819060005260206000200160009055905550505050565b6000611284836107e8565b600160a060020a039093166000908152600660209081526040808320868452825280832085905593825260079052919091209190915550565b3b151590565b8280546112cf90611c9e565b90600052602060002090601f0160209004810192826112f15760008555611337565b82601f1061130a57805160ff1916838001178555611337565b82800160010185558215611337579182015b8281111561133757825182559160200191906001019061131c565b50611343929150611347565b5090565b5b808211156113435760008155600101611348565b600067ffffffffffffffff8084111561137757611377611cf5565b604051601f8501601f19168101602001828111828210171561139b5761139b611cf5565b6040528481529150818385018610156113b357600080fd5b8484602083013760006020868301015250509392505050565b8035600160a060020a038116811461034f57600080fd5b8035801515811461034f57600080fd5b600082601f830112611403578081fd5b610bb18383356020850161135c565b803561ffff8116811461034f57600080fd5b600060208284031215611435578081fd5b610bb1826113cc565b60008060408385031215611450578081fd5b611459836113cc565b9150611467602084016113cc565b90509250929050565b600080600060608486031215611484578081fd5b61148d846113cc565b925061149b602085016113cc565b9150604084013590509250925092565b600080600080608085870312156114c0578081fd5b6114c9856113cc565b93506114d7602086016113cc565b925060408501359150606085013567ffffffffffffffff8111156114f9578182fd5b8501601f81018713611509578182fd5b6115188782356020840161135c565b91505092959194509250565b60008060408385031215611536578182fd5b61153f836113cc565b9150611467602084016113e3565b600080600080600060a08688031215611564578081fd5b61156d866113cc565b9450602086013567ffffffffffffffff811115611588578182fd5b611594888289016113f3565b9450506115a360408701611412565b92506115b160608701611412565b91506115bf608087016113e3565b90509295509295909350565b600080604083850312156115dd578182fd5b6115e6836113cc565b946020939093013593505050565b600060208284031215611605578081fd5b8135610bb181611d0e565b600060208284031215611621578081fd5b8151610bb181611d0e565b60006020828403121561163d578081fd5b813567ffffffffffffffff811115611653578182fd5b610d2a848285016113f3565b600060208284031215611670578081fd5b5035919050565b60008151808452815b8181101561169c57602081850181015186830182015201611680565b818111156116ad5782602083870101525b50601f01601f19169290920160200192915050565b600160a060020a0391909116815260200190565b6000600160a060020a038087168352808616602084015250836040830152608060608301526117086080830184611677565b9695505050505050565b901515815260200190565b600060208252610bb16020830184611677565b6020808252602b908201527f455243373231456e756d657261626c653a206f776e657220696e646578206f7560408201527f74206f6620626f756e6473000000000000000000000000000000000000000000606082015260800190565b60208082526032908201527f4552433732313a207472616e7366657220746f206e6f6e20455243373231526560408201527f63656976657220696d706c656d656e7465720000000000000000000000000000606082015260800190565b6020808252601c908201527f4552433732313a20746f6b656e20616c7265616479206d696e74656400000000604082015260600190565b60208082526024908201527f4552433732313a207472616e7366657220746f20746865207a65726f2061646460408201527f7265737300000000000000000000000000000000000000000000000000000000606082015260800190565b60208082526019908201527f4552433732313a20617070726f766520746f2063616c6c657200000000000000604082015260600190565b6020808252602c908201527f4552433732313a206f70657261746f7220717565727920666f72206e6f6e657860408201527f697374656e7420746f6b656e0000000000000000000000000000000000000000606082015260800190565b60208082526038908201527f4552433732313a20617070726f76652063616c6c6572206973206e6f74206f7760408201527f6e6572206e6f7220617070726f76656420666f7220616c6c0000000000000000606082015260800190565b6020808252602a908201527f4552433732313a2062616c616e636520717565727920666f7220746865207a6560408201527f726f206164647265737300000000000000000000000000000000000000000000606082015260800190565b60208082526029908201527f4552433732313a206f776e657220717565727920666f72206e6f6e657869737460408201527f656e7420746f6b656e0000000000000000000000000000000000000000000000606082015260800190565b6020808252818101527f4552433732313a206d696e7420746f20746865207a65726f2061646472657373604082015260600190565b6020808252602c908201527f4552433732313a20617070726f76656420717565727920666f72206e6f6e657860408201527f697374656e7420746f6b656e0000000000000000000000000000000000000000606082015260800190565b60208082526029908201527f4552433732313a207472616e73666572206f6620746f6b656e2074686174206960408201527f73206e6f74206f776e0000000000000000000000000000000000000000000000606082015260800190565b6020808252600c908201527f4f6e6c792061646d696e732e0000000000000000000000000000000000000000604082015260600190565b60208082526021908201527f4552433732313a20617070726f76616c20746f2063757272656e74206f776e6560408201527f7200000000000000000000000000000000000000000000000000000000000000606082015260800190565b60208082526031908201527f4552433732313a207472616e736665722063616c6c6572206973206e6f74206f60408201527f776e6572206e6f7220617070726f766564000000000000000000000000000000606082015260800190565b6020808252602c908201527f455243373231456e756d657261626c653a20676c6f62616c20696e646578206f60408201527f7574206f6620626f756e64730000000000000000000000000000000000000000606082015260800190565b90815260200190565b60008219821115611c8257611c82611cdc565b500190565b600082821015611c9957611c99611cdc565b500390565b600281046001821680611cb257607f821691505b60208210811415611cd65760e060020a634e487b7102600052602260045260246000fd5b50919050565b60e060020a634e487b7102600052601160045260246000fd5b60e060020a634e487b7102600052604160045260246000fd5b600160e060020a031981168114611d2457600080fd5b5056fea26469706673582212209683fdd7a6ba66d5ffa8105c3c6e40d7c3c95c2a990371e7ceb060daf420768364736f6c63430008000033",
  "immutableReferences": {},
  "source": "// SPDX-License-Identifier: MIT\n\npragma solidity ^0.8.0;\n\nimport \"@openzeppelin/contracts/token/ERC721/extensions/ERC721Enumerable.sol\";\nimport \"@openzeppelin/contracts/utils/math/SafeMath.sol\";\n\ncontract ImnotArtExhibitions is ERC721Enumerable {\n    using SafeMath for uint256;\n\n    // ---\n    // Properties\n    // ---\n    uint256 public nextTokenId = 1;\n    address private _imnotArtPayoutAddress;\n    address private _imnotArtMarketplaceContract;\n    string private _contractUri;\n\n    // ---\n    // Structs\n    // ---\n\n    /* Only need Artist BPS, as remainder would be given to imnotArt after Artist is paid */\n    struct TokenBps {\n        uint16 artistFirstSaleBps;\n        uint16 artistSecondarySaleBps;\n    }\n\n    // ---\n    // Events\n    // ---\n    event PermanentURI(string _value, uint256 indexed _id); // OpenSea Freezing Metadata\n\n    // ---\n    // Security\n    // ---\n    mapping(address => bool) private _isAdmin;\n\n    modifier onlyAdmin() {\n        require(_isAdmin[msg.sender], \"Only admins.\");\n        _;\n    }\n\n    modifier onlyValidTokenId(uint256 tokenId) {\n        require(_exists(tokenId), \"Token ID does not exist.\");\n        _;\n    }\n\n    // ---\n    // Mappings\n    // ---\n    mapping(uint256 => string) private _metadataByTokenId;\n    mapping(uint256 => address) private _artistByTokenId;\n    mapping(uint256 => TokenBps) private _tokenBpsByTokenId;\n\n    // ---\n    // Constructor\n    // ---\n    constructor() ERC721(\"imnotArt Exhibitions\", \"IMNOTART\") {\n        _isAdmin[msg.sender] = true;\n        // @TODO(iolson): Set admin(s)\n        // @TODO(iolson): Set initial Contract URI\n    }\n\n    // ---\n    // Minting\n    // ---\n    function mintToken(address artistAddress, string memory metadataUri, uint16 artistFirstSaleBps, uint16 artistSecondarySaleBps, bool transferToMarketplaceContract) public onlyAdmin returns (uint256 tokenId) {\n        tokenId = nextTokenId;\n        nextTokenId = nextTokenId.add(1);\n\n        _mint(artistAddress, tokenId);\n        _artistByTokenId[tokenId] = artistAddress;\n\n        _metadataByTokenId[tokenId] = metadataUri;\n        emit PermanentURI(metadataUri, tokenId);\n\n        TokenBps memory tokenBps = TokenBps({\n            artistFirstSaleBps: artistFirstSaleBps,\n            artistSecondarySaleBps: artistSecondarySaleBps\n        });\n        _tokenBpsByTokenId[tokenId] = tokenBps;\n\n        if (transferToMarketplaceContract) {\n            // @TODO(iolson): Transfer to the Marketplace Contract to put up for auction?\n        }\n    }\n\n    // ---\n    // Contract Updates\n    // ---\n    function updateImnotArtPayoutAddress(address newPayoutAddress) public onlyAdmin {\n        _imnotArtPayoutAddress = newPayoutAddress;\n    }\n\n    function updateContractUri(string memory newContractUri) public onlyAdmin {\n        _contractUri = newContractUri;\n    }\n\n    function addAdmin(address newAdminAddress) public onlyAdmin {\n        _isAdmin[newAdminAddress] = true;\n    }\n\n    // ---\n    // Metadata\n    // ---\n    function tokenURI(uint256 tokenId) public view override virtual returns (string memory) {\n        return _metadataByTokenId[tokenId];\n    }\n\n    // ---\n    // Contract Retrieve Functions\n    // ---\n\n    // @TODO(iolson): Get Tokens of Owner\n\n    // ---\n    // Secondary Marketplace Functions\n    // ---\n\n    /* OpenSea */\n    function contractURI() public view virtual returns (string memory) {\n        return _contractUri;\n    }\n\n    /* Rarible */\n}",
  "sourcePath": "/Users/ianolson/code/imnotart-exhibitions/contracts/ImnotArtExhibitions.sol",
  "compiler": {
    "name": "solc",
    "version": "0.8.0+commit.c7dfd78e.Emscripten.clang"
  },
  "schemaVersion": "3.3.4",
  "updatedAt": "2021-07-28T02:11:06.430Z",
  "devdoc": {
    "kind": "dev",
    "methods": {
      "approve(address,uint256)": {
        "details": "See {IERC721-approve}."
      },
      "balanceOf(address)": {
        "details": "See {IERC721-balanceOf}."
      },
      "getApproved(uint256)": {
        "details": "See {IERC721-getApproved}."
      },
      "isApprovedForAll(address,address)": {
        "details": "See {IERC721-isApprovedForAll}."
      },
      "name()": {
        "details": "See {IERC721Metadata-name}."
      },
      "ownerOf(uint256)": {
        "details": "See {IERC721-ownerOf}."
      },
      "safeTransferFrom(address,address,uint256)": {
        "details": "See {IERC721-safeTransferFrom}."
      },
      "safeTransferFrom(address,address,uint256,bytes)": {
        "details": "See {IERC721-safeTransferFrom}."
      },
      "setApprovalForAll(address,bool)": {
        "details": "See {IERC721-setApprovalForAll}."
      },
      "supportsInterface(bytes4)": {
        "details": "See {IERC165-supportsInterface}."
      },
      "symbol()": {
        "details": "See {IERC721Metadata-symbol}."
      },
      "tokenByIndex(uint256)": {
        "details": "See {IERC721Enumerable-tokenByIndex}."
      },
      "tokenOfOwnerByIndex(address,uint256)": {
        "details": "See {IERC721Enumerable-tokenOfOwnerByIndex}."
      },
      "tokenURI(uint256)": {
        "details": "See {IERC721Metadata-tokenURI}."
      },
      "totalSupply()": {
        "details": "See {IERC721Enumerable-totalSupply}."
      },
      "transferFrom(address,address,uint256)": {
        "details": "See {IERC721-transferFrom}."
      }
    },
    "version": 1
  },
  "userdoc": {
    "kind": "user",
    "methods": {},
    "version": 1
  }
}