{
  "contractName": "ImnotArtExhibitions",
  "abi": [
    {
      "inputs": [],
      "stateMutability": "nonpayable",
      "type": "constructor"
    },
    {
      "anonymous": false,
      "inputs": [
        {
          "indexed": true,
          "internalType": "address",
          "name": "owner",
          "type": "address"
        },
        {
          "indexed": true,
          "internalType": "address",
          "name": "approved",
          "type": "address"
        },
        {
          "indexed": true,
          "internalType": "uint256",
          "name": "tokenId",
          "type": "uint256"
        }
      ],
      "name": "Approval",
      "type": "event"
    },
    {
      "anonymous": false,
      "inputs": [
        {
          "indexed": true,
          "internalType": "address",
          "name": "owner",
          "type": "address"
        },
        {
          "indexed": true,
          "internalType": "address",
          "name": "operator",
          "type": "address"
        },
        {
          "indexed": false,
          "internalType": "bool",
          "name": "approved",
          "type": "bool"
        }
      ],
      "name": "ApprovalForAll",
      "type": "event"
    },
    {
      "anonymous": false,
      "inputs": [
        {
          "indexed": false,
          "internalType": "string",
          "name": "_value",
          "type": "string"
        },
        {
          "indexed": false,
          "internalType": "address",
          "name": "royaltyAddress",
          "type": "address"
        }
      ],
      "name": "Debug",
      "type": "event"
    },
    {
      "anonymous": false,
      "inputs": [
        {
          "indexed": true,
          "internalType": "address",
          "name": "previousOwner",
          "type": "address"
        },
        {
          "indexed": true,
          "internalType": "address",
          "name": "newOwner",
          "type": "address"
        }
      ],
      "name": "OwnershipTransferred",
      "type": "event"
    },
    {
      "anonymous": false,
      "inputs": [
        {
          "indexed": false,
          "internalType": "string",
          "name": "_value",
          "type": "string"
        },
        {
          "indexed": true,
          "internalType": "uint256",
          "name": "_id",
          "type": "uint256"
        }
      ],
      "name": "PermanentURI",
      "type": "event"
    },
    {
      "anonymous": false,
      "inputs": [
        {
          "indexed": false,
          "internalType": "uint256",
          "name": "tokenId",
          "type": "uint256"
        },
        {
          "components": [
            {
              "internalType": "address payable",
              "name": "account",
              "type": "address"
            },
            {
              "internalType": "uint96",
              "name": "value",
              "type": "uint96"
            }
          ],
          "indexed": false,
          "internalType": "struct LibPart.Part[]",
          "name": "royalties",
          "type": "tuple[]"
        }
      ],
      "name": "RoyaltiesSet",
      "type": "event"
    },
    {
      "anonymous": false,
      "inputs": [
        {
          "indexed": true,
          "internalType": "address",
          "name": "from",
          "type": "address"
        },
        {
          "indexed": true,
          "internalType": "address",
          "name": "to",
          "type": "address"
        },
        {
          "indexed": true,
          "internalType": "uint256",
          "name": "tokenId",
          "type": "uint256"
        }
      ],
      "name": "Transfer",
      "type": "event"
    },
    {
      "inputs": [
        {
          "internalType": "address",
          "name": "to",
          "type": "address"
        },
        {
          "internalType": "uint256",
          "name": "tokenId",
          "type": "uint256"
        }
      ],
      "name": "approve",
      "outputs": [],
      "stateMutability": "nonpayable",
      "type": "function"
    },
    {
      "inputs": [
        {
          "internalType": "uint256",
          "name": "",
          "type": "uint256"
        }
      ],
      "name": "artistByTokenId",
      "outputs": [
        {
          "internalType": "address",
          "name": "",
          "type": "address"
        }
      ],
      "stateMutability": "view",
      "type": "function"
    },
    {
      "inputs": [],
      "name": "artistFirstSaleBps",
      "outputs": [
        {
          "internalType": "uint16",
          "name": "",
          "type": "uint16"
        }
      ],
      "stateMutability": "view",
      "type": "function"
    },
    {
      "inputs": [],
      "name": "artistSecondarySaleBps",
      "outputs": [
        {
          "internalType": "uint16",
          "name": "",
          "type": "uint16"
        }
      ],
      "stateMutability": "view",
      "type": "function"
    },
    {
      "inputs": [
        {
          "internalType": "address",
          "name": "owner",
          "type": "address"
        }
      ],
      "name": "balanceOf",
      "outputs": [
        {
          "internalType": "uint256",
          "name": "",
          "type": "uint256"
        }
      ],
      "stateMutability": "view",
      "type": "function"
    },
    {
      "inputs": [
        {
          "internalType": "uint256",
          "name": "tokenId",
          "type": "uint256"
        }
      ],
      "name": "getApproved",
      "outputs": [
        {
          "internalType": "address",
          "name": "",
          "type": "address"
        }
      ],
      "stateMutability": "view",
      "type": "function"
    },
    {
      "inputs": [],
      "name": "imnotArtPayoutAddress",
      "outputs": [
        {
          "internalType": "address",
          "name": "",
          "type": "address"
        }
      ],
      "stateMutability": "view",
      "type": "function"
    },
    {
      "inputs": [],
      "name": "imnotArtSecondarySaleBps",
      "outputs": [
        {
          "internalType": "uint16",
          "name": "",
          "type": "uint16"
        }
      ],
      "stateMutability": "view",
      "type": "function"
    },
    {
      "inputs": [
        {
          "internalType": "address",
          "name": "owner",
          "type": "address"
        },
        {
          "internalType": "address",
          "name": "operator",
          "type": "address"
        }
      ],
      "name": "isApprovedForAll",
      "outputs": [
        {
          "internalType": "bool",
          "name": "",
          "type": "bool"
        }
      ],
      "stateMutability": "view",
      "type": "function"
    },
    {
      "inputs": [],
      "name": "marketplaceAddress",
      "outputs": [
        {
          "internalType": "address",
          "name": "",
          "type": "address"
        }
      ],
      "stateMutability": "view",
      "type": "function"
    },
    {
      "inputs": [],
      "name": "name",
      "outputs": [
        {
          "internalType": "string",
          "name": "",
          "type": "string"
        }
      ],
      "stateMutability": "view",
      "type": "function"
    },
    {
      "inputs": [],
      "name": "nextTokenId",
      "outputs": [
        {
          "internalType": "uint256",
          "name": "",
          "type": "uint256"
        }
      ],
      "stateMutability": "view",
      "type": "function"
    },
    {
      "inputs": [],
      "name": "owner",
      "outputs": [
        {
          "internalType": "address",
          "name": "",
          "type": "address"
        }
      ],
      "stateMutability": "view",
      "type": "function"
    },
    {
      "inputs": [
        {
          "internalType": "uint256",
          "name": "tokenId",
          "type": "uint256"
        }
      ],
      "name": "ownerOf",
      "outputs": [
        {
          "internalType": "address",
          "name": "",
          "type": "address"
        }
      ],
      "stateMutability": "view",
      "type": "function"
    },
    {
      "inputs": [],
      "name": "renounceOwnership",
      "outputs": [],
      "stateMutability": "nonpayable",
      "type": "function"
    },
    {
      "inputs": [
        {
          "internalType": "address",
          "name": "",
          "type": "address"
        }
      ],
      "name": "royaltyContractByArtistAddress",
      "outputs": [
        {
          "internalType": "address",
          "name": "",
          "type": "address"
        }
      ],
      "stateMutability": "view",
      "type": "function"
    },
    {
      "inputs": [
        {
          "internalType": "address",
          "name": "from",
          "type": "address"
        },
        {
          "internalType": "address",
          "name": "to",
          "type": "address"
        },
        {
          "internalType": "uint256",
          "name": "tokenId",
          "type": "uint256"
        }
      ],
      "name": "safeTransferFrom",
      "outputs": [],
      "stateMutability": "nonpayable",
      "type": "function"
    },
    {
      "inputs": [
        {
          "internalType": "address",
          "name": "from",
          "type": "address"
        },
        {
          "internalType": "address",
          "name": "to",
          "type": "address"
        },
        {
          "internalType": "uint256",
          "name": "tokenId",
          "type": "uint256"
        },
        {
          "internalType": "bytes",
          "name": "_data",
          "type": "bytes"
        }
      ],
      "name": "safeTransferFrom",
      "outputs": [],
      "stateMutability": "nonpayable",
      "type": "function"
    },
    {
      "inputs": [
        {
          "internalType": "address",
          "name": "operator",
          "type": "address"
        },
        {
          "internalType": "bool",
          "name": "approved",
          "type": "bool"
        }
      ],
      "name": "setApprovalForAll",
      "outputs": [],
      "stateMutability": "nonpayable",
      "type": "function"
    },
    {
      "inputs": [],
      "name": "symbol",
      "outputs": [
        {
          "internalType": "string",
          "name": "",
          "type": "string"
        }
      ],
      "stateMutability": "view",
      "type": "function"
    },
    {
      "inputs": [
        {
          "internalType": "uint256",
          "name": "",
          "type": "uint256"
        }
      ],
      "name": "tokenBpsByTokenId",
      "outputs": [
        {
          "internalType": "uint16",
          "name": "artistFirstSaleBps",
          "type": "uint16"
        },
        {
          "internalType": "uint16",
          "name": "artistSecondarySaleBps",
          "type": "uint16"
        }
      ],
      "stateMutability": "view",
      "type": "function"
    },
    {
      "inputs": [
        {
          "internalType": "uint256",
          "name": "index",
          "type": "uint256"
        }
      ],
      "name": "tokenByIndex",
      "outputs": [
        {
          "internalType": "uint256",
          "name": "",
          "type": "uint256"
        }
      ],
      "stateMutability": "view",
      "type": "function"
    },
    {
      "inputs": [
        {
          "internalType": "address",
          "name": "owner",
          "type": "address"
        },
        {
          "internalType": "uint256",
          "name": "index",
          "type": "uint256"
        }
      ],
      "name": "tokenOfOwnerByIndex",
      "outputs": [
        {
          "internalType": "uint256",
          "name": "",
          "type": "uint256"
        }
      ],
      "stateMutability": "view",
      "type": "function"
    },
    {
      "inputs": [],
      "name": "totalSupply",
      "outputs": [
        {
          "internalType": "uint256",
          "name": "",
          "type": "uint256"
        }
      ],
      "stateMutability": "view",
      "type": "function"
    },
    {
      "inputs": [
        {
          "internalType": "address",
          "name": "from",
          "type": "address"
        },
        {
          "internalType": "address",
          "name": "to",
          "type": "address"
        },
        {
          "internalType": "uint256",
          "name": "tokenId",
          "type": "uint256"
        }
      ],
      "name": "transferFrom",
      "outputs": [],
      "stateMutability": "nonpayable",
      "type": "function"
    },
    {
      "inputs": [
        {
          "internalType": "address",
          "name": "newOwner",
          "type": "address"
        }
      ],
      "name": "transferOwnership",
      "outputs": [],
      "stateMutability": "nonpayable",
      "type": "function"
    },
    {
      "inputs": [],
      "name": "useRoyaltyContracts",
      "outputs": [
        {
          "internalType": "bool",
          "name": "",
          "type": "bool"
        }
      ],
      "stateMutability": "view",
      "type": "function"
    },
    {
      "inputs": [
        {
          "internalType": "bytes4",
          "name": "interfaceId",
          "type": "bytes4"
        }
      ],
      "name": "supportsInterface",
      "outputs": [
        {
          "internalType": "bool",
          "name": "",
          "type": "bool"
        }
      ],
      "stateMutability": "view",
      "type": "function"
    },
    {
      "inputs": [
        {
          "internalType": "address",
          "name": "artistAddress",
          "type": "address"
        },
        {
          "internalType": "string",
          "name": "metadataUri",
          "type": "string"
        },
        {
          "internalType": "bool",
          "name": "transferToMarketplaceContract",
          "type": "bool"
        }
      ],
      "name": "mintToken",
      "outputs": [
        {
          "internalType": "uint256",
          "name": "tokenId",
          "type": "uint256"
        }
      ],
      "stateMutability": "nonpayable",
      "type": "function"
    },
    {
      "inputs": [
        {
          "internalType": "string",
          "name": "metadataUri",
          "type": "string"
        },
        {
          "internalType": "bool",
          "name": "transferToMarketplaceContract",
          "type": "bool"
        }
      ],
      "name": "artistMintToken",
      "outputs": [
        {
          "internalType": "uint256",
          "name": "tokenId",
          "type": "uint256"
        }
      ],
      "stateMutability": "nonpayable",
      "type": "function"
    },
    {
      "inputs": [
        {
          "internalType": "uint256",
          "name": "tokenId",
          "type": "uint256"
        }
      ],
      "name": "burn",
      "outputs": [],
      "stateMutability": "nonpayable",
      "type": "function"
    },
    {
      "inputs": [
        {
          "internalType": "address",
          "name": "newPayoutAddress",
          "type": "address"
        }
      ],
      "name": "updateImnotArtPayoutAddress",
      "outputs": [],
      "stateMutability": "nonpayable",
      "type": "function"
    },
    {
      "inputs": [
        {
          "internalType": "address",
          "name": "newMarketplaceAddress",
          "type": "address"
        }
      ],
      "name": "updateMarketplaceAddress",
      "outputs": [],
      "stateMutability": "nonpayable",
      "type": "function"
    },
    {
      "inputs": [
        {
          "internalType": "string",
          "name": "newContractUri",
          "type": "string"
        }
      ],
      "name": "updateContractUri",
      "outputs": [],
      "stateMutability": "nonpayable",
      "type": "function"
    },
    {
      "inputs": [
        {
          "internalType": "uint256",
          "name": "tokenId",
          "type": "uint256"
        },
        {
          "internalType": "string",
          "name": "metadataUri",
          "type": "string"
        },
        {
          "internalType": "bool",
          "name": "permanent",
          "type": "bool"
        }
      ],
      "name": "updateTokenMetadata",
      "outputs": [],
      "stateMutability": "nonpayable",
      "type": "function"
    },
    {
      "inputs": [
        {
          "internalType": "address",
          "name": "newAdminAddress",
          "type": "address"
        }
      ],
      "name": "addAdmin",
      "outputs": [],
      "stateMutability": "nonpayable",
      "type": "function"
    },
    {
      "inputs": [
        {
          "internalType": "address",
          "name": "removeAdminAddress",
          "type": "address"
        }
      ],
      "name": "removeAdmin",
      "outputs": [],
      "stateMutability": "nonpayable",
      "type": "function"
    },
    {
      "inputs": [
        {
          "internalType": "address",
          "name": "newArtistAddress",
          "type": "address"
        }
      ],
      "name": "addApprovedArtist",
      "outputs": [],
      "stateMutability": "nonpayable",
      "type": "function"
    },
    {
      "inputs": [
        {
          "internalType": "address",
          "name": "removeArtistAddress",
          "type": "address"
        }
      ],
      "name": "removeApprovedArtist",
      "outputs": [],
      "stateMutability": "nonpayable",
      "type": "function"
    },
    {
      "inputs": [],
      "name": "toggleUseRoyaltyContracts",
      "outputs": [],
      "stateMutability": "nonpayable",
      "type": "function"
    },
    {
      "inputs": [
        {
          "internalType": "address",
          "name": "artistAddress",
          "type": "address"
        },
        {
          "internalType": "address",
          "name": "royaltyContractAddress",
          "type": "address"
        }
      ],
      "name": "addRoyaltyContractAddress",
      "outputs": [],
      "stateMutability": "nonpayable",
      "type": "function"
    },
    {
      "inputs": [
        {
          "internalType": "uint256",
          "name": "tokenId",
          "type": "uint256"
        }
      ],
      "name": "tokenURI",
      "outputs": [
        {
          "internalType": "string",
          "name": "",
          "type": "string"
        }
      ],
      "stateMutability": "view",
      "type": "function"
    },
    {
      "inputs": [
        {
          "internalType": "address",
          "name": "_owner",
          "type": "address"
        }
      ],
      "name": "getTokensOfOwner",
      "outputs": [
        {
          "internalType": "uint256[]",
          "name": "tokenIds",
          "type": "uint256[]"
        }
      ],
      "stateMutability": "view",
      "type": "function"
    },
    {
      "inputs": [],
      "name": "contractURI",
      "outputs": [
        {
          "internalType": "string",
          "name": "",
          "type": "string"
        }
      ],
      "stateMutability": "view",
      "type": "function"
    },
    {
      "inputs": [
        {
          "internalType": "uint256",
          "name": "tokenId",
          "type": "uint256"
        }
      ],
      "name": "getRaribleV2Royalties",
      "outputs": [
        {
          "components": [
            {
              "internalType": "address payable",
              "name": "account",
              "type": "address"
            },
            {
              "internalType": "uint96",
              "name": "value",
              "type": "uint96"
            }
          ],
          "internalType": "struct LibPart.Part[]",
          "name": "",
          "type": "tuple[]"
        }
      ],
      "stateMutability": "view",
      "type": "function"
    },
    {
      "inputs": [
        {
          "internalType": "uint256",
          "name": "tokenId",
          "type": "uint256"
        },
        {
          "internalType": "uint256",
          "name": "salePrice",
          "type": "uint256"
        }
      ],
      "name": "royaltyInfo",
      "outputs": [
        {
          "internalType": "address",
          "name": "receiver",
          "type": "address"
        },
        {
          "internalType": "uint256",
          "name": "amount",
          "type": "uint256"
        }
      ],
      "stateMutability": "view",
      "type": "function"
    }
  ],
  "bytecode": "0x60806040526001600b553480156200001657600080fd5b506040518060400160405280601481526020017f696d6e6f744172742045786869626974696f6e730000000000000000000000008152506040518060400160405280600881526020017f494d4e4f54415254000000000000000000000000000000000000000000000000815250620000af620000a062000109640100000000026401000000009004565b6401000000006200010d810204565b8151620000c49060019060208501906200015d565b508051620000da9060029060208401906200015d565b5050336000908152601060205260409020805460ff19908116600117909155600f805490911690555062000259565b3390565b60008054600160a060020a03838116600160a060020a0319831681178455604051919092169283917f8be0079c531659141344cd1fd0a4f28419497f9722a3daafe3b4186f6b6457e09190a35050565b8280546200016b9062000203565b90600052602060002090601f0160209004810192826200018f5760008555620001da565b82601f10620001aa57805160ff1916838001178555620001da565b82800160010185558215620001da579182015b82811115620001da578251825591602001919060010190620001bd565b50620001e8929150620001ec565b5090565b5b80821115620001e85760008155600101620001ed565b6002810460018216806200021857607f821691505b6020821081141562000253577f4e487b7100000000000000000000000000000000000000000000000000000000600052602260045260246000fd5b50919050565b612da580620002696000396000f3fe608060405234801561001057600080fd5b50600436106102a7576000357c0100000000000000000000000000000000000000000000000000000000900480637048027511610179578063c34a2a3a116100eb578063e5a727b7116100a4578063e5a727b714610581578063e8a3d485146105a2578063e9482cc6146105aa578063e985e9c5146105b2578063edbcbb01146105c5578063f2fde38b146105d8576102a7565b8063c34a2a3a14610518578063c87b56dd14610520578063cad96cca14610533578063cf1e923914610553578063daa17f4914610566578063e4ace31a1461056e576102a7565b806378fd2ed61161013d57806378fd2ed6146104c75780638258337d146104da5780638da5cb5b146104e257806395d89b41146104ea578063a22cb465146104f2578063b88d4fde14610505576102a7565b8063704802751461035257806370a0823114610491578063715018a6146104a4578063753cd9cf146104ac57806375794a3c146104bf576102a7565b80632f745c591161021d57806347c8ff5e116101d657806347c8ff5e146104125780634f6ccce71461042557806350ff2d5b146104385780635de6dc551461044b5780636352211e1461046b5780636b7ad5c01461047e576102a7565b80632f745c59146103b6578063390e26e7146103c95780633dd2fdff146103d157806340c38035146103d957806342842e0e146103ec57806342966c68146103ff576102a7565b806314fe38ab1161026f57806314fe38ab146103325780631785f53c1461035257806318160ddd1461036557806323b872dd1461036d5780632a55205a146103805780632cf0ffbe146103a1576102a7565b806301ffc9a7146102ac57806306fdde03146102d5578063072e839e146102ea578063081812fc146102ff578063095ea7b31461031f575b600080fd5b6102bf6102ba366004612335565b6105eb565b6040516102cc91906125ab565b60405180910390f35b6102dd610735565b6040516102cc91906125b6565b6102fd6102f8366004612187565b6107c7565b005b61031261030d3660046123e3565b610823565b6040516102cc9190612498565b6102fd61032d36600461230c565b610869565b6103456103403660046122b0565b610907565b6040516102cc9190612c5a565b6102fd610360366004612187565b610a45565b610345610a9b565b6102fd61037b3660046121d3565b610aa1565b61039361038e36600461242c565b610adc565b6040516102cc9291906124e8565b6103a9610ba8565b6040516102cc9190612c36565b6103456103c436600461230c565b610bae565b6102bf610c03565b6103a9610c0c565b6102fd6103e7366004612187565b610c11565b6102fd6103fa3660046121d3565b610c67565b6102fd61040d3660046123e3565b610c82565b6102fd61042036600461236d565b610cea565b6103456104333660046123e3565b610d33565b6103126104463660046123e3565b610d94565b61045e610459366004612187565b610daf565b6040516102cc9190612567565b6103126104793660046123e3565b610e8c565b6102fd61048c3660046123fb565b610ec4565b61034561049f366004612187565b610f94565b6102fd610fdb565b6102fd6104ba3660046121a1565b611029565b610345611089565b6103126104d5366004612187565b61108f565b6102fd6110aa565b6103126110f0565b6102dd6110ff565b6102fd610500366004612287565b61110e565b6102fd61051336600461220e565b6111df565b61031261121b565b6102dd61052e3660046123e3565b61122a565b6105466105413660046123e3565b6112f4565b6040516102cc9190612501565b6102fd610561366004612187565b61140d565b610312611461565b6102fd61057c366004612187565b611470565b61059461058f3660046123e3565b6114c4565b6040516102cc929190612c45565b6102dd6114e4565b6103a96114f3565b6102bf6105c03660046121a1565b6114f9565b6103456105d33660046123a0565b611527565b6102fd6105e6366004612187565b61165b565b6000600160e060020a031982167f01ffc9a700000000000000000000000000000000000000000000000000000000148061064e5750600160e060020a031982167fcad96cca00000000000000000000000000000000000000000000000000000000145b806106825750600160e060020a031982167f80ac58cd00000000000000000000000000000000000000000000000000000000145b806106b65750600160e060020a031982167f5b5e139f00000000000000000000000000000000000000000000000000000000145b806106ea5750600160e060020a031982167f780e9d6300000000000000000000000000000000000000000000000000000000145b8061071e5750600160e060020a031982167f2a55205a00000000000000000000000000000000000000000000000000000000145b8061072d575061072d826116cf565b90505b919050565b60606001805461074490612cd4565b80601f016020809104026020016040519081016040528092919081815260200182805461077090612cd4565b80156107bd5780601f10610792576101008083540402835291602001916107bd565b820191906000526020600020905b8154815290600101906020018083116107a057829003601f168201915b5050505050905090565b3360009081526010602052604090205460ff166108025760405160e560020a62461bcd0281526004016107f990612a7a565b60405180910390fd5b600160a060020a03166000908152601160205260409020805460ff19169055565b600061082e8261170d565b61084d5760405160e560020a62461bcd0281526004016107f99061298b565b50600090815260056020526040902054600160a060020a031690565b600061087482610e8c565b905080600160a060020a031683600160a060020a031614156108ab5760405160e560020a62461bcd0281526004016107f990612ab1565b80600160a060020a03166108bd61172a565b600160a060020a031614806108d957506108d9816105c061172a565b6108f85760405160e560020a62461bcd0281526004016107f99061283f565b610902838361172e565b505050565b3360009081526010602052604081205460ff166109395760405160e560020a62461bcd0281526004016107f990612a7a565b50600b5461094881600161179c565b600b5561095584826117af565b60008181526013602090815260408083208054600160a060020a031916600160a060020a03891617905560128252909120845161099492860190612021565b50807fa109ba539900bf1b633f956d63c96fc89b814c7287f7aa50a9216d0b55657207846040516109c591906125b6565b60405180910390a260408051808201825261196481526101f46020808301918252600085815260149091529290922081518154935161ffff1990941661ffff9182161763ffff00001916620100009190941602929092179091558215610a3d57600d54610a3d908690600160a060020a031684611894565b509392505050565b3360009081526010602052604090205460ff16610a775760405160e560020a62461bcd0281526004016107f990612a7a565b600160a060020a03166000908152601060205260409020805460ff19166001179055565b60095490565b610ab2610aac61172a565b826119c7565b610ad15760405160e560020a62461bcd0281526004016107f990612b0e565b610902838383611894565b60008083610ae98161170d565b610b085760405160e560020a62461bcd0281526004016107f990612bc8565b600085815260136020526040812054600160a060020a031690610b2e6101f460fa61179c565b90506000610b47610b3f8884611a4f565b612710611a5b565b600c54600f54919250600160a060020a03169060ff1615610b7f5750600160a060020a03808416600090815260156020526040902054165b600160a060020a038116610b9b5750600c54600160a060020a03165b9890975095505050505050565b6101f481565b6000610bb983610f94565b8210610bda5760405160e560020a62461bcd0281526004016107f990612600565b50600160a060020a03919091166000908152600760209081526040808320938352929052205490565b600f5460ff1681565b60fa81565b3360009081526010602052604090205460ff16610c435760405160e560020a62461bcd0281526004016107f990612a7a565b600160a060020a03166000908152601160205260409020805460ff19166001179055565b610902838383604051806020016040528060008152506111df565b3360009081526011602052604090205460ff16610cb45760405160e560020a62461bcd0281526004016107f9906125c9565b610cbf610aac61172a565b610cde5760405160e560020a62461bcd0281526004016107f990612bff565b610ce781611a67565b50565b3360009081526010602052604090205460ff16610d1c5760405160e560020a62461bcd0281526004016107f990612a7a565b8051610d2f90600e906020840190612021565b5050565b6000610d3d610a9b565b8210610d5e5760405160e560020a62461bcd0281526004016107f990612b6b565b60098281548110610d825760e060020a634e487b7102600052603260045260246000fd5b90600052602060002001549050919050565b601360205260009081526040902054600160a060020a031681565b60606000610dbc83610f94565b905080610dd9576040805160008152602081019091529150610e86565b8067ffffffffffffffff811115610e035760e060020a634e487b7102600052604160045260246000fd5b604051908082528060200260200182016040528015610e2c578160200160208202803683370190505b50915060005b81811015610e8457610e448482610bae565b838281518110610e675760e060020a634e487b7102600052603260045260246000fd5b602090810291909101015280610e7c81612d0c565b915050610e32565b505b50919050565b600081815260036020526040812054600160a060020a03168061072d5760405160e560020a62461bcd0281526004016107f9906128f9565b610ecc61172a565b600160a060020a0316610edd6110f0565b600160a060020a031614610f065760405160e560020a62461bcd0281526004016107f9906129e8565b82610f108161170d565b610f2f5760405160e560020a62461bcd0281526004016107f990612bc8565b60008481526012602090815260409091208451610f4e92860190612021565b508115610f8e57837fa109ba539900bf1b633f956d63c96fc89b814c7287f7aa50a9216d0b5565720784604051610f8591906125b6565b60405180910390a25b50505050565b6000600160a060020a038216610fbf5760405160e560020a62461bcd0281526004016107f99061289c565b50600160a060020a031660009081526004602052604090205490565b610fe361172a565b600160a060020a0316610ff46110f0565b600160a060020a03161461101d5760405160e560020a62461bcd0281526004016107f9906129e8565b6110276000611b0e565b565b3360009081526010602052604090205460ff1661105b5760405160e560020a62461bcd0281526004016107f990612a7a565b600160a060020a0391821660009081526015602052604090208054600160a060020a03191691909216179055565b600b5481565b601560205260009081526040902054600160a060020a031681565b3360009081526010602052604090205460ff166110dc5760405160e560020a62461bcd0281526004016107f990612a7a565b600f805460ff19811660ff90911615179055565b600054600160a060020a031690565b60606002805461074490612cd4565b61111661172a565b600160a060020a031682600160a060020a0316141561114a5760405160e560020a62461bcd0281526004016107f9906127ab565b806006600061115761172a565b600160a060020a03908116825260208083019390935260409182016000908120918716808252919093529120805460ff19169215159290921790915561119b61172a565b600160a060020a03167f17307eab39ab6107e8899845ad3d59bd9653f200f220920489ca2b5937696c31836040516111d391906125ab565b60405180910390a35050565b6111f06111ea61172a565b836119c7565b61120f5760405160e560020a62461bcd0281526004016107f990612b0e565b610f8e84848484611b5e565b600c54600160a060020a031681565b6060816112368161170d565b6112555760405160e560020a62461bcd0281526004016107f990612bc8565b6000838152601260205260409020805461126e90612cd4565b80601f016020809104026020016040519081016040528092919081815260200182805461129a90612cd4565b80156112e75780601f106112bc576101008083540402835291602001916112e7565b820191906000526020600020905b8154815290600101906020018083116112ca57829003601f168201915b5050505050915050919050565b6060816113008161170d565b61131f5760405160e560020a62461bcd0281526004016107f990612bc8565b60408051600280825260608201909252600091816020015b61133f6120a5565b81526020019060019003908161133757505060408051808201825260008781526013602090815292812054600160a060020a031682526101f4928201929092528251929350918391906113a55760e060020a634e487b7102600052603260045260246000fd5b60209081029190910181019190915260408051808201909152600c54600160a060020a0316815260fa918101919091528151829060019081106113fb5760e060020a634e487b7102600052603260045260246000fd5b60209081029190910101529392505050565b3360009081526010602052604090205460ff1661143f5760405160e560020a62461bcd0281526004016107f990612a7a565b600c8054600160a060020a031916600160a060020a0392909216919091179055565b600d54600160a060020a031681565b3360009081526010602052604090205460ff166114a25760405160e560020a62461bcd0281526004016107f990612a7a565b600d8054600160a060020a031916600160a060020a0392909216919091179055565b60146020526000908152604090205461ffff808216916201000090041682565b6060600e805461074490612cd4565b61196481565b600160a060020a03918216600090815260066020908152604080832093909416825291909152205460ff1690565b3360009081526011602052604081205460ff166115595760405160e560020a62461bcd0281526004016107f9906125c9565b50600b5461156881600161179c565b600b5561157533826117af565b60008181526013602090815260408083208054600160a060020a031916331790556012825290912084516115ab92860190612021565b50807fa109ba539900bf1b633f956d63c96fc89b814c7287f7aa50a9216d0b55657207846040516115dc91906125b6565b60405180910390a260408051808201825261196481526101f46020808301918252600085815260149091529290922081518154935161ffff1990941661ffff9182161763ffff0000191662010000919094160292909217909155821561165457600d54611654903390600160a060020a031684611894565b5092915050565b61166361172a565b600160a060020a03166116746110f0565b600160a060020a03161461169d5760405160e560020a62461bcd0281526004016107f9906129e8565b600160a060020a0381166116c65760405160e560020a62461bcd0281526004016107f9906126ba565b610ce781611b0e565b6000600160e060020a031982167f780e9d6300000000000000000000000000000000000000000000000000000000148061072d575061072d82611b94565b600090815260036020526040902054600160a060020a0316151590565b3390565b60008181526005602052604090208054600160a060020a031916600160a060020a038416908117909155819061176382610e8c565b600160a060020a03167f8c5be1e5ebec7d5bd14f71427d1e84f3dd0314c0f7b2291e5b200ac8c7c3b92560405160405180910390a45050565b60006117a88284612c63565b9392505050565b600160a060020a0382166117d85760405160e560020a62461bcd0281526004016107f990612956565b6117e18161170d565b156118015760405160e560020a62461bcd0281526004016107f990612717565b61180d60008383611c06565b600160a060020a0382166000908152600460205260408120805460019290611836908490612c63565b90915550506000818152600360205260408082208054600160a060020a031916600160a060020a03861690811790915590518392907fddf252ad1be2c89b69c2b068fc378daa952ba7f163c4a11628f55a4df523b3ef908290a45050565b82600160a060020a03166118a782610e8c565b600160a060020a0316146118d05760405160e560020a62461bcd0281526004016107f990612a1d565b600160a060020a0382166118f95760405160e560020a62461bcd0281526004016107f99061274e565b611904838383611c06565b61190f60008261172e565b600160a060020a0383166000908152600460205260408120805460019290611938908490612cbd565b9091555050600160a060020a0382166000908152600460205260408120805460019290611966908490612c63565b90915550506000818152600360205260408082208054600160a060020a031916600160a060020a0386811691821790925591518493918716917fddf252ad1be2c89b69c2b068fc378daa952ba7f163c4a11628f55a4df523b3ef91a4505050565b60006119d28261170d565b6119f15760405160e560020a62461bcd0281526004016107f9906127e2565b60006119fc83610e8c565b905080600160a060020a031684600160a060020a03161480611a37575083600160a060020a0316611a2c84610823565b600160a060020a0316145b80611a475750611a4781856114f9565b949350505050565b60006117a88284612c9e565b60006117a88284612c7b565b6000611a7282610e8c565b9050611a8081600084611c06565b611a8b60008361172e565b600160a060020a0381166000908152600460205260408120805460019290611ab4908490612cbd565b90915550506000828152600360205260408082208054600160a060020a031916905551839190600160a060020a038416907fddf252ad1be2c89b69c2b068fc378daa952ba7f163c4a11628f55a4df523b3ef908390a45050565b60008054600160a060020a03838116600160a060020a0319831681178455604051919092169283917f8be0079c531659141344cd1fd0a4f28419497f9722a3daafe3b4186f6b6457e09190a35050565b611b69848484611894565b611b7584848484611c8f565b610f8e5760405160e560020a62461bcd0281526004016107f99061265d565b6000600160e060020a031982167f80ac58cd000000000000000000000000000000000000000000000000000000001480611bf75750600160e060020a031982167f5b5e139f00000000000000000000000000000000000000000000000000000000145b8061072d575061072d82611de2565b611c11838383610902565b600160a060020a038316611c2d57611c2881611e14565b611c50565b81600160a060020a031683600160a060020a031614611c5057611c508382611e58565b600160a060020a038216611c6c57611c6781611ef5565b610902565b82600160a060020a031682600160a060020a031614610902576109028282611fd7565b6000611ca384600160a060020a031661201b565b15611dd75783600160a060020a031663150b7a02611cbf61172a565b8786866040518563ffffffff167c0100000000000000000000000000000000000000000000000000000000028152600401611cfd94939291906124ac565b602060405180830381600087803b158015611d1757600080fd5b505af1925050508015611d47575060408051601f3d908101601f19168201909252611d4491810190612351565b60015b611da4573d808015611d75576040519150601f19603f3d011682016040523d82523d6000602084013e611d7a565b606091505b508051611d9c5760405160e560020a62461bcd0281526004016107f99061265d565b805181602001fd5b600160e060020a0319167f150b7a0200000000000000000000000000000000000000000000000000000000149050611a47565b506001949350505050565b600160e060020a031981167f01ffc9a70000000000000000000000000000000000000000000000000000000014919050565b600980546000838152600a60205260408120829055600182018355919091527f6e1540171b6c0c960b71a7020d9f60077f6af931a8bbf590da0223dacf75c7af0155565b60006001611e6584610f94565b611e6f9190612cbd565b600083815260086020526040902054909150808214611ec257600160a060020a03841660009081526007602090815260408083208584528252808320548484528184208190558352600890915290208190555b506000918252600860209081526040808420849055600160a060020a039094168352600781528383209183525290812055565b600954600090611f0790600190612cbd565b6000838152600a602052604081205460098054939450909284908110611f405760e060020a634e487b7102600052603260045260246000fd5b906000526020600020015490508060098381548110611f725760e060020a634e487b7102600052603260045260246000fd5b6000918252602080832090910192909255828152600a90915260408082208490558582528120556009805480611fbb5760e060020a634e487b7102600052603160045260246000fd5b6001900381819060005260206000200160009055905550505050565b6000611fe283610f94565b600160a060020a039093166000908152600760209081526040808320868452825280832085905593825260089052919091209190915550565b3b151590565b82805461202d90612cd4565b90600052602060002090601f01602090048101928261204f5760008555612095565b82601f1061206857805160ff1916838001178555612095565b82800160010185558215612095579182015b8281111561209557825182559160200191906001019061207a565b506120a19291506120bc565b5090565b604080518082019091526000808252602082015290565b5b808211156120a157600081556001016120bd565b600067ffffffffffffffff808411156120ec576120ec612d40565b604051601f8501601f19168101602001828111828210171561211057612110612d40565b60405284815291508183850186101561212857600080fd5b8484602083013760006020868301015250509392505050565b8035600160a060020a038116811461073057600080fd5b8035801515811461073057600080fd5b600082601f830112612178578081fd5b6117a8838335602085016120d1565b600060208284031215612198578081fd5b6117a882612141565b600080604083850312156121b3578081fd5b6121bc83612141565b91506121ca60208401612141565b90509250929050565b6000806000606084860312156121e7578081fd5b6121f084612141565b92506121fe60208501612141565b9150604084013590509250925092565b60008060008060808587031215612223578081fd5b61222c85612141565b935061223a60208601612141565b925060408501359150606085013567ffffffffffffffff81111561225c578182fd5b8501601f8101871361226c578182fd5b61227b878235602084016120d1565b91505092959194509250565b60008060408385031215612299578182fd5b6122a283612141565b91506121ca60208401612158565b6000806000606084860312156122c4578283fd5b6122cd84612141565b9250602084013567ffffffffffffffff8111156122e8578283fd5b6122f486828701612168565b92505061230360408501612158565b90509250925092565b6000806040838503121561231e578182fd5b61232783612141565b946020939093013593505050565b600060208284031215612346578081fd5b81356117a881612d59565b600060208284031215612362578081fd5b81516117a881612d59565b60006020828403121561237e578081fd5b813567ffffffffffffffff811115612394578182fd5b611a4784828501612168565b600080604083850312156123b2578182fd5b823567ffffffffffffffff8111156123c8578283fd5b6123d485828601612168565b9250506121ca60208401612158565b6000602082840312156123f4578081fd5b5035919050565b60008060006060848603121561240f578283fd5b83359250602084013567ffffffffffffffff8111156122e8578283fd5b6000806040838503121561243e578182fd5b50508035926020909101359150565b60008151808452815b8181101561247257602081850181015186830182015201612456565b818111156124835782602083870101525b50601f01601f19169290920160200192915050565b600160a060020a0391909116815260200190565b6000600160a060020a038087168352808616602084015250836040830152608060608301526124de608083018461244d565b9695505050505050565b600160a060020a03929092168252602082015260400190565b602080825282518282018190526000919060409081850190868401855b8281101561255a5781518051600160a060020a031685528601516bffffffffffffffffffffffff1686850152928401929085019060010161251e565b5091979650505050505050565b6020808252825182820181905260009190848201906040850190845b8181101561259f57835183529284019291840191600101612583565b50909695505050505050565b901515815260200190565b6000602082526117a8602083018461244d565b60208082526016908201527f4f6e6c7920617070726f76656420617274697374732e00000000000000000000604082015260600190565b6020808252602b908201527f455243373231456e756d657261626c653a206f776e657220696e646578206f7560408201527f74206f6620626f756e6473000000000000000000000000000000000000000000606082015260800190565b60208082526032908201527f4552433732313a207472616e7366657220746f206e6f6e20455243373231526560408201527f63656976657220696d706c656d656e7465720000000000000000000000000000606082015260800190565b60208082526026908201527f4f776e61626c653a206e6577206f776e657220697320746865207a65726f206160408201527f6464726573730000000000000000000000000000000000000000000000000000606082015260800190565b6020808252601c908201527f4552433732313a20746f6b656e20616c7265616479206d696e74656400000000604082015260600190565b60208082526024908201527f4552433732313a207472616e7366657220746f20746865207a65726f2061646460408201527f7265737300000000000000000000000000000000000000000000000000000000606082015260800190565b60208082526019908201527f4552433732313a20617070726f766520746f2063616c6c657200000000000000604082015260600190565b6020808252602c908201527f4552433732313a206f70657261746f7220717565727920666f72206e6f6e657860408201527f697374656e7420746f6b656e0000000000000000000000000000000000000000606082015260800190565b60208082526038908201527f4552433732313a20617070726f76652063616c6c6572206973206e6f74206f7760408201527f6e6572206e6f7220617070726f76656420666f7220616c6c0000000000000000606082015260800190565b6020808252602a908201527f4552433732313a2062616c616e636520717565727920666f7220746865207a6560408201527f726f206164647265737300000000000000000000000000000000000000000000606082015260800190565b60208082526029908201527f4552433732313a206f776e657220717565727920666f72206e6f6e657869737460408201527f656e7420746f6b656e0000000000000000000000000000000000000000000000606082015260800190565b6020808252818101527f4552433732313a206d696e7420746f20746865207a65726f2061646472657373604082015260600190565b6020808252602c908201527f4552433732313a20617070726f76656420717565727920666f72206e6f6e657860408201527f697374656e7420746f6b656e0000000000000000000000000000000000000000606082015260800190565b6020808252818101527f4f776e61626c653a2063616c6c6572206973206e6f7420746865206f776e6572604082015260600190565b60208082526029908201527f4552433732313a207472616e73666572206f6620746f6b656e2074686174206960408201527f73206e6f74206f776e0000000000000000000000000000000000000000000000606082015260800190565b6020808252600c908201527f4f6e6c792061646d696e732e0000000000000000000000000000000000000000604082015260600190565b60208082526021908201527f4552433732313a20617070726f76616c20746f2063757272656e74206f776e6560408201527f7200000000000000000000000000000000000000000000000000000000000000606082015260800190565b60208082526031908201527f4552433732313a207472616e736665722063616c6c6572206973206e6f74206f60408201527f776e6572206e6f7220617070726f766564000000000000000000000000000000606082015260800190565b6020808252602c908201527f455243373231456e756d657261626c653a20676c6f62616c20696e646578206f60408201527f7574206f6620626f756e64730000000000000000000000000000000000000000606082015260800190565b60208082526018908201527f546f6b656e20494420646f6573206e6f742065786973742e0000000000000000604082015260600190565b6020808252601c908201527f4f6e6c7920617070726f76656420617274697374206f776e6572732e00000000604082015260600190565b61ffff91909116815260200190565b61ffff92831681529116602082015260400190565b90815260200190565b60008219821115612c7657612c76612d27565b500190565b600082612c995760e060020a634e487b710281526012600452602481fd5b500490565b6000816000190483118215151615612cb857612cb8612d27565b500290565b600082821015612ccf57612ccf612d27565b500390565b600281046001821680612ce857607f821691505b60208210811415610e865760e060020a634e487b7102600052602260045260246000fd5b6000600019821415612d2057612d20612d27565b5060010190565b60e060020a634e487b7102600052601160045260246000fd5b60e060020a634e487b7102600052604160045260246000fd5b600160e060020a031981168114610ce757600080fdfea26469706673582212204fc59b17eda79dc8519a49df106b320b1a585515ea5bb7e2fda210faf43aab6564736f6c63430008000033",
  "immutableReferences": {},
  "source": "// SPDX-License-Identifier: MIT\n\n/*\n  _                       _                 _     ______      _     _ _     _ _   _                 \n (_)                     | |     /\\        | |   |  ____|    | |   (_) |   (_) | (_)                \n  _ _ __ ___  _ __   ___ | |_   /  \\   _ __| |_  | |__  __  _| |__  _| |__  _| |_ _  ___  _ __  ___ \n | | '_ ` _ \\| '_ \\ / _ \\| __| / /\\ \\ | '__| __| |  __| \\ \\/ / '_ \\| | '_ \\| | __| |/ _ \\| '_ \\/ __|\n | | | | | | | | | | (_) | |_ / ____ \\| |  | |_  | |____ >  <| | | | | |_) | | |_| | (_) | | | \\__ \\\n |_|_| |_| |_|_| |_|\\___/ \\__/_/    \\_\\_|   \\__| |______/_/\\_\\_| |_|_|_.__/|_|\\__|_|\\___/|_| |_|___/\n                                                                                                    \n Written by Ian Olson\n*/\n\npragma solidity ^0.8.0;\n\nimport \"@openzeppelin/contracts/access/Ownable.sol\";\nimport \"@openzeppelin/contracts/token/ERC721/extensions/ERC721Enumerable.sol\";\nimport \"@openzeppelin/contracts/utils/math/SafeMath.sol\";\nimport \"./rarible/library/LibPart.sol\";\nimport \"./rarible/library/LibRoyaltiesV2.sol\";\nimport \"./rarible/RoyaltiesV2.sol\";\n\ncontract ImnotArtExhibitions is Ownable, ERC721Enumerable, RoyaltiesV2 {\n    using SafeMath for uint256;\n\n    // ---\n    // Constants\n    // ---\n    bytes4 private constant _INTERFACE_ID_ERC165 = 0x01ffc9a7;\n    bytes4 private constant _INTERFACE_ID_ERC721 = 0x80ac58cd;\n    bytes4 private constant _INTERFACE_ID_ERC721_METADATA = 0x5b5e139f;\n    bytes4 private constant _INTERFACE_ID_ERC721_ENUMERABLE = 0x780e9d63;\n    bytes4 private constant _INTERFACE_ID_EIP2981 = 0x2a55205a;\n    uint16 constant public artistFirstSaleBps = 6500; // 65% of First Sale\n    uint16 constant public artistSecondarySaleBps = 500; // 5% of Secondary Sale\n    uint16 constant public imnotArtSecondarySaleBps = 250; // 2.5% of Secondary Sale\n\n    // ---\n    // Properties\n    // ---\n    uint256 public nextTokenId = 1;\n    address public imnotArtPayoutAddress;\n    address public marketplaceAddress;\n    string private _contractUri;\n    bool public useRoyaltyContracts;\n\n    // ---\n    // Structs\n    // ---\n\n    /* Only need Artist BPS, as remainder would be given to imnotArt after Artist is paid */\n    struct TokenBps {\n        uint16 artistFirstSaleBps;\n        uint16 artistSecondarySaleBps;\n    }\n\n    // ---\n    // Events\n    // ---\n    event PermanentURI(string _value, uint256 indexed _id); // OpenSea Freezing Metadata\n    event Debug(string _value, address royaltyAddress);\n\n    // ---\n    // Security\n    // ---\n    mapping(address => bool) private _isAdmin;\n    mapping(address => bool) private _isArtist;\n\n    modifier onlyAdmin() {\n        require(_isAdmin[msg.sender], \"Only admins.\");\n        _;\n    }\n\n    modifier onlyArtist() {\n        require(_isArtist[msg.sender], \"Only approved artists.\");\n        _;\n    }\n\n    modifier onlyValidTokenId(uint256 tokenId) {\n        require(_exists(tokenId), \"Token ID does not exist.\");\n        _;\n    }\n\n    // ---\n    // Mappings\n    // ---\n    mapping(uint256 => string) private _metadataByTokenId;\n    mapping(uint256 => address) public artistByTokenId;\n    mapping(uint256 => TokenBps) public tokenBpsByTokenId;\n    mapping(address => address) public royaltyContractByArtistAddress;\n\n    // ---\n    // Constructor\n    // ---\n    constructor() ERC721(\"imnotArt Exhibitions\", \"IMNOTART\") {\n        _isAdmin[msg.sender] = true;\n        useRoyaltyContracts = false;\n        // imnotArtPayoutAddress = 0xaB5B4e5845B124785027d9944baaFb7f064B3F72; // @TODO(iolson): Proper Production Payout Address\n        // _contractUri = \"ipfs://bafkreigrkm4ta353qumma6g6fpfg7mbnhyuyckdy2hi6udc5ov5asjcsiu\"; // @TODO(iolson): Proper Production Contract URI\n    }\n\n    // ---\n    // Supported Interfaces\n    // ---\n    function supportsInterface(bytes4 interfaceId) public view virtual override returns (bool) {\n        return interfaceId == _INTERFACE_ID_ERC165\n        || interfaceId == LibRoyaltiesV2._INTERFACE_ID_ROYALTIES\n        || interfaceId == _INTERFACE_ID_ERC721\n        || interfaceId == _INTERFACE_ID_ERC721_METADATA\n        || interfaceId == _INTERFACE_ID_ERC721_ENUMERABLE\n        || interfaceId == _INTERFACE_ID_EIP2981\n        || super.supportsInterface(interfaceId);\n    }\n\n    // ---\n    // Minting\n    // ---\n    function mintToken(address artistAddress, string memory metadataUri, bool transferToMarketplaceContract) public onlyAdmin returns (uint256 tokenId) {\n        tokenId = nextTokenId;\n        nextTokenId = nextTokenId.add(1);\n\n        _mint(artistAddress, tokenId);\n        artistByTokenId[tokenId] = artistAddress;\n\n        _metadataByTokenId[tokenId] = metadataUri;\n        emit PermanentURI(metadataUri, tokenId);\n\n        TokenBps memory tokenBps = TokenBps({\n            artistFirstSaleBps: artistFirstSaleBps,\n            artistSecondarySaleBps: artistSecondarySaleBps\n        });\n        tokenBpsByTokenId[tokenId] = tokenBps;\n\n        if (transferToMarketplaceContract) {\n            _transfer(artistAddress, marketplaceAddress, tokenId);\n        }\n    }\n\n    function artistMintToken(string memory metadataUri, bool transferToMarketplaceContract) public onlyArtist returns (uint256 tokenId) {\n        tokenId = nextTokenId;\n        nextTokenId = nextTokenId.add(1);\n\n        _mint(msg.sender, tokenId);\n        artistByTokenId[tokenId] = msg.sender;\n\n        _metadataByTokenId[tokenId] = metadataUri;\n        emit PermanentURI(metadataUri, tokenId);\n\n        TokenBps memory tokenBps = TokenBps({\n            artistFirstSaleBps: artistFirstSaleBps,\n            artistSecondarySaleBps: artistSecondarySaleBps\n        });\n        tokenBpsByTokenId[tokenId] = tokenBps;\n\n        if (transferToMarketplaceContract) {\n            _transfer(msg.sender, marketplaceAddress, tokenId);\n        }\n    }\n\n    // ---\n    // Burning\n    // ---\n    function burn(uint256 tokenId) public virtual onlyArtist {\n        //solhint-disable-next-line max-line-length\n        require(_isApprovedOrOwner(_msgSender(), tokenId), \"Only approved artist owners.\");\n        _burn(tokenId);\n    }\n\n    // ---\n    // Contract Updates\n    // ---\n    function updateImnotArtPayoutAddress(address newPayoutAddress) public onlyAdmin {\n        imnotArtPayoutAddress = newPayoutAddress;\n    }\n\n    function updateMarketplaceAddress(address newMarketplaceAddress) public onlyAdmin {\n        marketplaceAddress = newMarketplaceAddress;\n    }\n\n    function updateContractUri(string memory newContractUri) public onlyAdmin {\n        _contractUri = newContractUri;\n    }\n\n    function updateTokenMetadata(uint256 tokenId, string memory metadataUri, bool permanent) public onlyOwner onlyValidTokenId(tokenId) {\n        _metadataByTokenId[tokenId] = metadataUri;\n\n        if (permanent) {\n            emit PermanentURI(metadataUri, tokenId);\n        }\n    }\n\n    function addAdmin(address newAdminAddress) public onlyAdmin {\n        _isAdmin[newAdminAddress] = true;\n    }\n\n    function removeAdmin(address removeAdminAddress) public onlyAdmin {\n        _isAdmin[removeAdminAddress] = true;\n    }\n\n    function addApprovedArtist(address newArtistAddress) public onlyAdmin {\n        _isArtist[newArtistAddress] = true;\n    }\n\n    function removeApprovedArtist(address removeArtistAddress) public onlyAdmin {\n        _isArtist[removeArtistAddress] = false;\n    }\n\n    function toggleUseRoyaltyContracts() public onlyAdmin {\n        useRoyaltyContracts = !useRoyaltyContracts;\n    }\n\n    function addRoyaltyContractAddress(address artistAddress, address royaltyContractAddress) public onlyAdmin {\n        royaltyContractByArtistAddress[artistAddress] = royaltyContractAddress;\n    }\n\n    // ---\n    // Metadata\n    // ---\n    function tokenURI(uint256 tokenId) public view override virtual onlyValidTokenId(tokenId) returns (string memory) {\n        return _metadataByTokenId[tokenId];\n    }\n\n    // ---\n    // Contract Retrieve Functions\n    // ---\n    function getTokensOfOwner(address _owner) public view returns (uint256[] memory tokenIds) {\n        uint256 tokenCount = balanceOf(_owner);\n\n        if (tokenCount == 0) {\n            tokenIds = new uint256[](0);\n        } else {\n            tokenIds = new uint256[](tokenCount);\n            uint256 index;\n            for (index = 0; index < tokenCount; index++) {\n                tokenIds[index] = tokenOfOwnerByIndex(_owner, index);\n            }\n        }\n\n        return tokenIds;\n    }\n\n    // ---\n    // Secondary Marketplace Functions\n    // ---\n\n    /* OpenSea */\n    function contractURI() public view virtual returns (string memory) {\n        return _contractUri;\n    }\n\n    /* Rarible Royalties V2 */\n    function getRaribleV2Royalties(uint256 tokenId) external view override onlyValidTokenId(tokenId) returns (LibPart.Part[] memory) {\n        LibPart.Part[] memory royalties = new LibPart.Part[](2);\n        \n        royalties[0] = LibPart.Part({\n            account: payable(artistByTokenId[tokenId]),\n            value: uint96(artistSecondarySaleBps)\n        });\n\n        royalties[1] = LibPart.Part({\n            account: payable(imnotArtPayoutAddress),\n            value: uint96(imnotArtSecondarySaleBps)\n        });\n\n        return royalties;\n    }\n\n    /* EIP-2981 - https://eips.ethereum.org/EIPS/eip-2981 */\n    function royaltyInfo(uint256 tokenId, uint256 salePrice) external view onlyValidTokenId(tokenId) returns (address receiver, uint256 amount) {\n        address artistAddress = artistByTokenId[tokenId];\n        uint256 combinedBpsForSinglePayout = uint256(artistSecondarySaleBps).add(uint256(imnotArtSecondarySaleBps));\n        uint256 royaltyAmount = SafeMath.div(SafeMath.mul(salePrice, combinedBpsForSinglePayout), 10000);\n\n        address payoutAddress = imnotArtPayoutAddress;\n        \n        if (useRoyaltyContracts) {\n            payoutAddress = royaltyContractByArtistAddress[artistAddress];\n        }\n\n        if (payoutAddress == address(0)) {\n            payoutAddress = imnotArtPayoutAddress;\n        }\n\n        return (payoutAddress, royaltyAmount);\n    }\n}",
  "sourcePath": "/Users/ianolson/code/imnotart-exhibitions/contracts/ImnotArtExhibitions.sol",
  "compiler": {
    "name": "solc",
    "version": "0.8.0+commit.c7dfd78e.Emscripten.clang"
  },
  "schemaVersion": "3.3.4",
  "updatedAt": "2021-08-09T01:25:09.651Z",
  "devdoc": {
    "kind": "dev",
    "methods": {
      "approve(address,uint256)": {
        "details": "See {IERC721-approve}."
      },
      "balanceOf(address)": {
        "details": "See {IERC721-balanceOf}."
      },
      "getApproved(uint256)": {
        "details": "See {IERC721-getApproved}."
      },
      "isApprovedForAll(address,address)": {
        "details": "See {IERC721-isApprovedForAll}."
      },
      "name()": {
        "details": "See {IERC721Metadata-name}."
      },
      "owner()": {
        "details": "Returns the address of the current owner."
      },
      "ownerOf(uint256)": {
        "details": "See {IERC721-ownerOf}."
      },
      "renounceOwnership()": {
        "details": "Leaves the contract without owner. It will not be possible to call `onlyOwner` functions anymore. Can only be called by the current owner. NOTE: Renouncing ownership will leave the contract without an owner, thereby removing any functionality that is only available to the owner."
      },
      "safeTransferFrom(address,address,uint256)": {
        "details": "See {IERC721-safeTransferFrom}."
      },
      "safeTransferFrom(address,address,uint256,bytes)": {
        "details": "See {IERC721-safeTransferFrom}."
      },
      "setApprovalForAll(address,bool)": {
        "details": "See {IERC721-setApprovalForAll}."
      },
      "supportsInterface(bytes4)": {
        "details": "See {IERC165-supportsInterface}."
      },
      "symbol()": {
        "details": "See {IERC721Metadata-symbol}."
      },
      "tokenByIndex(uint256)": {
        "details": "See {IERC721Enumerable-tokenByIndex}."
      },
      "tokenOfOwnerByIndex(address,uint256)": {
        "details": "See {IERC721Enumerable-tokenOfOwnerByIndex}."
      },
      "tokenURI(uint256)": {
        "details": "See {IERC721Metadata-tokenURI}."
      },
      "totalSupply()": {
        "details": "See {IERC721Enumerable-totalSupply}."
      },
      "transferFrom(address,address,uint256)": {
        "details": "See {IERC721-transferFrom}."
      },
      "transferOwnership(address)": {
        "details": "Transfers ownership of the contract to a new account (`newOwner`). Can only be called by the current owner."
      }
    },
    "version": 1
  },
  "userdoc": {
    "kind": "user",
    "methods": {},
    "version": 1
  }
}