{
  "contractName": "ImnotArtExhibitions",
  "abi": [
    {
      "inputs": [],
      "stateMutability": "nonpayable",
      "type": "constructor"
    },
    {
      "anonymous": false,
      "inputs": [
        {
          "indexed": true,
          "internalType": "address",
          "name": "owner",
          "type": "address"
        },
        {
          "indexed": true,
          "internalType": "address",
          "name": "approved",
          "type": "address"
        },
        {
          "indexed": true,
          "internalType": "uint256",
          "name": "tokenId",
          "type": "uint256"
        }
      ],
      "name": "Approval",
      "type": "event"
    },
    {
      "anonymous": false,
      "inputs": [
        {
          "indexed": true,
          "internalType": "address",
          "name": "owner",
          "type": "address"
        },
        {
          "indexed": true,
          "internalType": "address",
          "name": "operator",
          "type": "address"
        },
        {
          "indexed": false,
          "internalType": "bool",
          "name": "approved",
          "type": "bool"
        }
      ],
      "name": "ApprovalForAll",
      "type": "event"
    },
    {
      "anonymous": false,
      "inputs": [
        {
          "indexed": false,
          "internalType": "string",
          "name": "_value",
          "type": "string"
        },
        {
          "indexed": true,
          "internalType": "uint256",
          "name": "_id",
          "type": "uint256"
        }
      ],
      "name": "PermanentURI",
      "type": "event"
    },
    {
      "anonymous": false,
      "inputs": [
        {
          "indexed": true,
          "internalType": "address",
          "name": "from",
          "type": "address"
        },
        {
          "indexed": true,
          "internalType": "address",
          "name": "to",
          "type": "address"
        },
        {
          "indexed": true,
          "internalType": "uint256",
          "name": "tokenId",
          "type": "uint256"
        }
      ],
      "name": "Transfer",
      "type": "event"
    },
    {
      "inputs": [
        {
          "internalType": "address",
          "name": "to",
          "type": "address"
        },
        {
          "internalType": "uint256",
          "name": "tokenId",
          "type": "uint256"
        }
      ],
      "name": "approve",
      "outputs": [],
      "stateMutability": "nonpayable",
      "type": "function"
    },
    {
      "inputs": [
        {
          "internalType": "uint256",
          "name": "",
          "type": "uint256"
        }
      ],
      "name": "artistByTokenId",
      "outputs": [
        {
          "internalType": "address",
          "name": "",
          "type": "address"
        }
      ],
      "stateMutability": "view",
      "type": "function"
    },
    {
      "inputs": [
        {
          "internalType": "address",
          "name": "owner",
          "type": "address"
        }
      ],
      "name": "balanceOf",
      "outputs": [
        {
          "internalType": "uint256",
          "name": "",
          "type": "uint256"
        }
      ],
      "stateMutability": "view",
      "type": "function"
    },
    {
      "inputs": [
        {
          "internalType": "uint256",
          "name": "tokenId",
          "type": "uint256"
        }
      ],
      "name": "getApproved",
      "outputs": [
        {
          "internalType": "address",
          "name": "",
          "type": "address"
        }
      ],
      "stateMutability": "view",
      "type": "function"
    },
    {
      "inputs": [],
      "name": "imnotArtPayoutAddress",
      "outputs": [
        {
          "internalType": "address",
          "name": "",
          "type": "address"
        }
      ],
      "stateMutability": "view",
      "type": "function"
    },
    {
      "inputs": [
        {
          "internalType": "address",
          "name": "owner",
          "type": "address"
        },
        {
          "internalType": "address",
          "name": "operator",
          "type": "address"
        }
      ],
      "name": "isApprovedForAll",
      "outputs": [
        {
          "internalType": "bool",
          "name": "",
          "type": "bool"
        }
      ],
      "stateMutability": "view",
      "type": "function"
    },
    {
      "inputs": [],
      "name": "marketplaceAddress",
      "outputs": [
        {
          "internalType": "address",
          "name": "",
          "type": "address"
        }
      ],
      "stateMutability": "view",
      "type": "function"
    },
    {
      "inputs": [],
      "name": "name",
      "outputs": [
        {
          "internalType": "string",
          "name": "",
          "type": "string"
        }
      ],
      "stateMutability": "view",
      "type": "function"
    },
    {
      "inputs": [],
      "name": "nextTokenId",
      "outputs": [
        {
          "internalType": "uint256",
          "name": "",
          "type": "uint256"
        }
      ],
      "stateMutability": "view",
      "type": "function"
    },
    {
      "inputs": [
        {
          "internalType": "uint256",
          "name": "tokenId",
          "type": "uint256"
        }
      ],
      "name": "ownerOf",
      "outputs": [
        {
          "internalType": "address",
          "name": "",
          "type": "address"
        }
      ],
      "stateMutability": "view",
      "type": "function"
    },
    {
      "inputs": [
        {
          "internalType": "uint256",
          "name": "",
          "type": "uint256"
        }
      ],
      "name": "royaltyBpsByTokenId",
      "outputs": [
        {
          "internalType": "address payable",
          "name": "account",
          "type": "address"
        },
        {
          "internalType": "uint96",
          "name": "value",
          "type": "uint96"
        }
      ],
      "stateMutability": "view",
      "type": "function"
    },
    {
      "inputs": [
        {
          "internalType": "address",
          "name": "from",
          "type": "address"
        },
        {
          "internalType": "address",
          "name": "to",
          "type": "address"
        },
        {
          "internalType": "uint256",
          "name": "tokenId",
          "type": "uint256"
        }
      ],
      "name": "safeTransferFrom",
      "outputs": [],
      "stateMutability": "nonpayable",
      "type": "function"
    },
    {
      "inputs": [
        {
          "internalType": "address",
          "name": "from",
          "type": "address"
        },
        {
          "internalType": "address",
          "name": "to",
          "type": "address"
        },
        {
          "internalType": "uint256",
          "name": "tokenId",
          "type": "uint256"
        },
        {
          "internalType": "bytes",
          "name": "_data",
          "type": "bytes"
        }
      ],
      "name": "safeTransferFrom",
      "outputs": [],
      "stateMutability": "nonpayable",
      "type": "function"
    },
    {
      "inputs": [
        {
          "internalType": "address",
          "name": "operator",
          "type": "address"
        },
        {
          "internalType": "bool",
          "name": "approved",
          "type": "bool"
        }
      ],
      "name": "setApprovalForAll",
      "outputs": [],
      "stateMutability": "nonpayable",
      "type": "function"
    },
    {
      "inputs": [
        {
          "internalType": "bytes4",
          "name": "interfaceId",
          "type": "bytes4"
        }
      ],
      "name": "supportsInterface",
      "outputs": [
        {
          "internalType": "bool",
          "name": "",
          "type": "bool"
        }
      ],
      "stateMutability": "view",
      "type": "function"
    },
    {
      "inputs": [],
      "name": "symbol",
      "outputs": [
        {
          "internalType": "string",
          "name": "",
          "type": "string"
        }
      ],
      "stateMutability": "view",
      "type": "function"
    },
    {
      "inputs": [
        {
          "internalType": "uint256",
          "name": "",
          "type": "uint256"
        }
      ],
      "name": "tokenBpsByTokenId",
      "outputs": [
        {
          "internalType": "uint16",
          "name": "artistFirstSaleBps",
          "type": "uint16"
        },
        {
          "internalType": "uint16",
          "name": "artistSecondarySaleBps",
          "type": "uint16"
        }
      ],
      "stateMutability": "view",
      "type": "function"
    },
    {
      "inputs": [
        {
          "internalType": "uint256",
          "name": "index",
          "type": "uint256"
        }
      ],
      "name": "tokenByIndex",
      "outputs": [
        {
          "internalType": "uint256",
          "name": "",
          "type": "uint256"
        }
      ],
      "stateMutability": "view",
      "type": "function"
    },
    {
      "inputs": [
        {
          "internalType": "address",
          "name": "owner",
          "type": "address"
        },
        {
          "internalType": "uint256",
          "name": "index",
          "type": "uint256"
        }
      ],
      "name": "tokenOfOwnerByIndex",
      "outputs": [
        {
          "internalType": "uint256",
          "name": "",
          "type": "uint256"
        }
      ],
      "stateMutability": "view",
      "type": "function"
    },
    {
      "inputs": [],
      "name": "totalSupply",
      "outputs": [
        {
          "internalType": "uint256",
          "name": "",
          "type": "uint256"
        }
      ],
      "stateMutability": "view",
      "type": "function"
    },
    {
      "inputs": [
        {
          "internalType": "address",
          "name": "from",
          "type": "address"
        },
        {
          "internalType": "address",
          "name": "to",
          "type": "address"
        },
        {
          "internalType": "uint256",
          "name": "tokenId",
          "type": "uint256"
        }
      ],
      "name": "transferFrom",
      "outputs": [],
      "stateMutability": "nonpayable",
      "type": "function"
    },
    {
      "inputs": [
        {
          "internalType": "address",
          "name": "artistAddress",
          "type": "address"
        },
        {
          "internalType": "string",
          "name": "metadataUri",
          "type": "string"
        },
        {
          "internalType": "uint16",
          "name": "artistFirstSaleBps",
          "type": "uint16"
        },
        {
          "internalType": "uint16",
          "name": "artistSecondarySaleBps",
          "type": "uint16"
        },
        {
          "internalType": "bool",
          "name": "transferToMarketplaceContract",
          "type": "bool"
        }
      ],
      "name": "mintToken",
      "outputs": [
        {
          "internalType": "uint256",
          "name": "tokenId",
          "type": "uint256"
        }
      ],
      "stateMutability": "nonpayable",
      "type": "function"
    },
    {
      "inputs": [
        {
          "internalType": "address",
          "name": "newPayoutAddress",
          "type": "address"
        }
      ],
      "name": "updateImnotArtPayoutAddress",
      "outputs": [],
      "stateMutability": "nonpayable",
      "type": "function"
    },
    {
      "inputs": [
        {
          "internalType": "address",
          "name": "newMarketplaceAddress",
          "type": "address"
        }
      ],
      "name": "updateMarketplaceAddress",
      "outputs": [],
      "stateMutability": "nonpayable",
      "type": "function"
    },
    {
      "inputs": [
        {
          "internalType": "string",
          "name": "newContractUri",
          "type": "string"
        }
      ],
      "name": "updateContractUri",
      "outputs": [],
      "stateMutability": "nonpayable",
      "type": "function"
    },
    {
      "inputs": [
        {
          "internalType": "address",
          "name": "newAdminAddress",
          "type": "address"
        }
      ],
      "name": "addAdmin",
      "outputs": [],
      "stateMutability": "nonpayable",
      "type": "function"
    },
    {
      "inputs": [
        {
          "internalType": "uint256",
          "name": "tokenId",
          "type": "uint256"
        }
      ],
      "name": "tokenURI",
      "outputs": [
        {
          "internalType": "string",
          "name": "",
          "type": "string"
        }
      ],
      "stateMutability": "view",
      "type": "function"
    },
    {
      "inputs": [
        {
          "internalType": "address",
          "name": "owner",
          "type": "address"
        }
      ],
      "name": "getTokensOfOwner",
      "outputs": [
        {
          "internalType": "uint256[]",
          "name": "tokenIds",
          "type": "uint256[]"
        }
      ],
      "stateMutability": "view",
      "type": "function"
    },
    {
      "inputs": [],
      "name": "contractURI",
      "outputs": [
        {
          "internalType": "string",
          "name": "",
          "type": "string"
        }
      ],
      "stateMutability": "view",
      "type": "function"
    },
    {
      "inputs": [
        {
          "internalType": "uint256",
          "name": "id",
          "type": "uint256"
        }
      ],
      "name": "getRoyalties",
      "outputs": [
        {
          "components": [
            {
              "internalType": "address payable",
              "name": "account",
              "type": "address"
            },
            {
              "internalType": "uint96",
              "name": "value",
              "type": "uint96"
            }
          ],
          "internalType": "struct ImnotArtExhibitions.RoyaltyBps[]",
          "name": "",
          "type": "tuple[]"
        }
      ],
      "stateMutability": "view",
      "type": "function"
    }
  ],
  "bytecode": "0x60806040526001600a553480156200001657600080fd5b50604080518082018252601481527f696d6e6f744172742045786869626974696f6e7300000000000000000000000060208083019182528351808501909452600884527f494d4e4f544152540000000000000000000000000000000000000000000000009084015281519192916200009191600091620000ca565b508051620000a7906001906020840190620000ca565b5050336000908152600e60205260409020805460ff1916600117905550620001c6565b828054620000d89062000170565b90600052602060002090601f016020900481019282620000fc576000855562000147565b82601f106200011757805160ff191683800117855562000147565b8280016001018555821562000147579182015b82811115620001475782518255916020019190600101906200012a565b506200015592915062000159565b5090565b5b808211156200015557600081556001016200015a565b6002810460018216806200018557607f821691505b60208210811415620001c0577f4e487b7100000000000000000000000000000000000000000000000000000000600052602260045260246000fd5b50919050565b6122cf80620001d66000396000f3fe608060405234801561001057600080fd5b50600436106101f7576000357c0100000000000000000000000000000000000000000000000000000000900480637048027511610121578063c34a2a3a116100bf578063e4ace31a1161008e578063e4ace31a1461040f578063e5a727b714610422578063e8a3d48514610443578063e985e9c51461044b576101f7565b8063c34a2a3a146103d9578063c87b56dd146103e1578063cf1e9239146103f4578063daa17f4914610407576101f7565b806395d89b41116100fb57806395d89b411461038b578063a22cb46514610393578063b88d4fde146103a6578063bb3bafd6146103b9576101f7565b8063704802751461035d57806370a082311461037057806375794a3c14610383576101f7565b80632f745c59116101995780634f6ccce7116101685780634f6ccce71461030457806350ff2d5b146103175780635de6dc551461032a5780636352211e1461034a576101f7565b80632f745c59146102aa5780632fe99534146102bd57806342842e0e146102de57806347c8ff5e146102f1576101f7565b8063095ea7b3116101d5578063095ea7b31461025a5780631527aad41461026f57806318160ddd1461028f57806323b872dd14610297576101f7565b806301ffc9a7146101fc57806306fdde0314610225578063081812fc1461023a575b600080fd5b61020f61020a366004611a6b565b61045e565b60405161021c9190611c5a565b60405180910390f35b61022d6104a4565b60405161021c9190611c65565b61024d610248366004611ad6565b610536565b60405161021c9190611b39565b61026d610268366004611a42565b610585565b005b61028261027d3660046119c4565b610623565b60405161021c91906121c3565b610282610770565b61026d6102a53660046118e7565b610776565b6102826102b8366004611a42565b6107b1565b6102d06102cb366004611ad6565b610806565b60405161021c929190611b4d565b61026d6102ec3660046118e7565b610849565b61026d6102ff366004611aa3565b610864565b610282610312366004611ad6565b6108ad565b61024d610325366004611ad6565b61090e565b61033d61033836600461189b565b610929565b60405161021c9190611c16565b61024d610358366004611ad6565b610a06565b61026d61036b36600461189b565b610a3e565b61028261037e36600461189b565b610a94565b610282610adb565b61022d610ae1565b61026d6103a136600461199b565b610af0565b61026d6103b4366004611922565b610bc1565b6103cc6103c7366004611ad6565b610c03565b60405161021c9190611bb0565b61024d610d18565b61022d6103ef366004611ad6565b610d27565b61026d61040236600461189b565b610dc9565b61024d610e2a565b61026d61041d36600461189b565b610e39565b610435610430366004611ad6565b610e9a565b60405161021c9291906121ae565b61022d610eba565b61020f6104593660046118b5565b610ec9565b6000600160e060020a031982167f780e9d6300000000000000000000000000000000000000000000000000000000148061049c575061049c82610ef7565b90505b919050565b6060600080546104b3906121fb565b80601f01602080910402602001604051908101604052809291908181526020018280546104df906121fb565b801561052c5780601f106105015761010080835404028352916020019161052c565b820191906000526020600020905b81548152906001019060200180831161050f57829003601f168201915b5050505050905090565b600061054182610f69565b6105695760405160e560020a62461bcd02815260040161056090611fa6565b60405180910390fd5b50600090815260046020526040902054600160a060020a031690565b600061059082610a06565b905080600160a060020a031683600160a060020a031614156105c75760405160e560020a62461bcd02815260040161056090612097565b80600160a060020a03166105d9610f86565b600160a060020a031614806105f557506105f581610459610f86565b6106145760405160e560020a62461bcd02815260040161056090611e5a565b61061e8383610f8a565b505050565b336000908152600e602052604081205460ff166106555760405160e560020a62461bcd02815260040161056090612060565b50600a54610664816001611005565b600a556106718682611018565b6000818152601060209081526040808320805473ffffffffffffffffffffffffffffffffffffffff1916600160a060020a038b16179055600f825290912086516106bd92880190611723565b50807fa109ba539900bf1b633f956d63c96fc89b814c7287f7aa50a9216d0b55657207866040516106ee9190611c65565b60405180910390a260408051808201825261ffff86811682528581166020808401918252600086815260119091529390932082518154945161ffff199095169083161763ffff0000191662010000949092169390930217909155821561076657600c54610766908890600160a060020a03168461110a565b5095945050505050565b60085490565b610787610781610f86565b8261124a565b6107a65760405160e560020a62461bcd028152600401610560906120f4565b61061e83838361110a565b60006107bc83610a94565b82106107dd5760405160e560020a62461bcd02815260040161056090611c78565b50600160a060020a03919091166000908152600660209081526040808320938352929052205490565b601260205260009081526040902054600160a060020a038116907401000000000000000000000000000000000000000090046bffffffffffffffffffffffff1682565b61061e83838360405180602001604052806000815250610bc1565b336000908152600e602052604090205460ff166108965760405160e560020a62461bcd02815260040161056090612060565b80516108a990600d906020840190611723565b5050565b60006108b7610770565b82106108d85760405160e560020a62461bcd02815260040161056090612151565b600882815481106108fc5760e060020a634e487b7102600052603260045260246000fd5b90600052602060002001549050919050565b601060205260009081526040902054600160a060020a031681565b6060600061093683610a94565b905080610953576040805160008152602081019091529150610a00565b8067ffffffffffffffff81111561097d5760e060020a634e487b7102600052604160045260246000fd5b6040519080825280602002602001820160405280156109a6578160200160208202803683370190505b50915060005b818110156109fe576109be84826107b1565b8382815181106109e15760e060020a634e487b7102600052603260045260246000fd5b6020908102919091010152806109f681612233565b9150506109ac565b505b50919050565b600081815260026020526040812054600160a060020a03168061049c5760405160e560020a62461bcd02815260040161056090611f14565b336000908152600e602052604090205460ff16610a705760405160e560020a62461bcd02815260040161056090612060565b600160a060020a03166000908152600e60205260409020805460ff19166001179055565b6000600160a060020a038216610abf5760405160e560020a62461bcd02815260040161056090611eb7565b50600160a060020a031660009081526003602052604090205490565b600a5481565b6060600180546104b3906121fb565b610af8610f86565b600160a060020a031682600160a060020a03161415610b2c5760405160e560020a62461bcd02815260040161056090611dc6565b8060056000610b39610f86565b600160a060020a03908116825260208083019390935260409182016000908120918716808252919093529120805460ff191692151592909217909155610b7d610f86565b600160a060020a03167f17307eab39ab6107e8899845ad3d59bd9653f200f220920489ca2b5937696c3183604051610bb59190611c5a565b60405180910390a35050565b610bd2610bcc610f86565b8361124a565b610bf15760405160e560020a62461bcd028152600401610560906120f4565b610bfd848484846112d2565b50505050565b604080516002808252606082810190935260009190816020015b610c256117a7565b815260200190600190039081610c1d579050506000848152601260209081526040808320815180830190925254600160a060020a03811682527401000000000000000000000000000000000000000090046bffffffffffffffffffffffff1691810191909152825192935091839190610cb15760e060020a634e487b7102600052603260045260246000fd5b60209081029190910181019190915260408051808201909152600b54600160a060020a0316815260fa91810191909152815182906001908110610d075760e060020a634e487b7102600052603260045260246000fd5b602090810291909101015292915050565b600b54600160a060020a031681565b6000818152600f60205260409020805460609190610d44906121fb565b80601f0160208091040260200160405190810160405280929190818152602001828054610d70906121fb565b8015610dbd5780601f10610d9257610100808354040283529160200191610dbd565b820191906000526020600020905b815481529060010190602001808311610da057829003601f168201915b50505050509050919050565b336000908152600e602052604090205460ff16610dfb5760405160e560020a62461bcd02815260040161056090612060565b600b805473ffffffffffffffffffffffffffffffffffffffff1916600160a060020a0392909216919091179055565b600c54600160a060020a031681565b336000908152600e602052604090205460ff16610e6b5760405160e560020a62461bcd02815260040161056090612060565b600c805473ffffffffffffffffffffffffffffffffffffffff1916600160a060020a0392909216919091179055565b60116020526000908152604090205461ffff808216916201000090041682565b6060600d80546104b3906121fb565b600160a060020a03918216600090815260056020908152604080832093909416825291909152205460ff1690565b6000600160e060020a031982167f80ac58cd000000000000000000000000000000000000000000000000000000001480610f5a5750600160e060020a031982167f5b5e139f00000000000000000000000000000000000000000000000000000000145b8061049c575061049c82611308565b600090815260026020526040902054600160a060020a0316151590565b3390565b6000818152600460205260409020805473ffffffffffffffffffffffffffffffffffffffff1916600160a060020a0384169081179091558190610fcc82610a06565b600160a060020a03167f8c5be1e5ebec7d5bd14f71427d1e84f3dd0314c0f7b2291e5b200ac8c7c3b92560405160405180910390a45050565b600061101182846121cc565b9392505050565b600160a060020a0382166110415760405160e560020a62461bcd02815260040161056090611f71565b61104a81610f69565b1561106a5760405160e560020a62461bcd02815260040161056090611d32565b6110766000838361133a565b600160a060020a038216600090815260036020526040812080546001929061109f9084906121cc565b9091555050600081815260026020526040808220805473ffffffffffffffffffffffffffffffffffffffff1916600160a060020a03861690811790915590518392907fddf252ad1be2c89b69c2b068fc378daa952ba7f163c4a11628f55a4df523b3ef908290a45050565b82600160a060020a031661111d82610a06565b600160a060020a0316146111465760405160e560020a62461bcd02815260040161056090612003565b600160a060020a03821661116f5760405160e560020a62461bcd02815260040161056090611d69565b61117a83838361133a565b611185600082610f8a565b600160a060020a03831660009081526003602052604081208054600192906111ae9084906121e4565b9091555050600160a060020a03821660009081526003602052604081208054600192906111dc9084906121cc565b9091555050600081815260026020526040808220805473ffffffffffffffffffffffffffffffffffffffff1916600160a060020a0386811691821790925591518493918716917fddf252ad1be2c89b69c2b068fc378daa952ba7f163c4a11628f55a4df523b3ef91a4505050565b600061125582610f69565b6112745760405160e560020a62461bcd02815260040161056090611dfd565b600061127f83610a06565b905080600160a060020a031684600160a060020a031614806112ba575083600160a060020a03166112af84610536565b600160a060020a0316145b806112ca57506112ca8185610ec9565b949350505050565b6112dd84848461110a565b6112e9848484846113c3565b610bfd5760405160e560020a62461bcd02815260040161056090611cd5565b600160e060020a031981167f01ffc9a70000000000000000000000000000000000000000000000000000000014919050565b61134583838361061e565b600160a060020a0383166113615761135c81611516565b611384565b81600160a060020a031683600160a060020a03161461138457611384838261155a565b600160a060020a0382166113a05761139b816115f7565b61061e565b82600160a060020a031682600160a060020a03161461061e5761061e82826116d9565b60006113d784600160a060020a031661171d565b1561150b5783600160a060020a031663150b7a026113f3610f86565b8786866040518563ffffffff167c01000000000000000000000000000000000000000000000000000000000281526004016114319493929190611b74565b602060405180830381600087803b15801561144b57600080fd5b505af192505050801561147b575060408051601f3d908101601f1916820190925261147891810190611a87565b60015b6114d8573d8080156114a9576040519150601f19603f3d011682016040523d82523d6000602084013e6114ae565b606091505b5080516114d05760405160e560020a62461bcd02815260040161056090611cd5565b805181602001fd5b600160e060020a0319167f150b7a02000000000000000000000000000000000000000000000000000000001490506112ca565b506001949350505050565b600880546000838152600960205260408120829055600182018355919091527ff3f7a9fe364faab93b216da50a3214154f22a0a2b415b23a84c8169e8b636ee30155565b6000600161156784610a94565b61157191906121e4565b6000838152600760205260409020549091508082146115c457600160a060020a03841660009081526006602090815260408083208584528252808320548484528184208190558352600790915290208190555b506000918252600760209081526040808420849055600160a060020a039094168352600681528383209183525290812055565b600854600090611609906001906121e4565b600083815260096020526040812054600880549394509092849081106116425760e060020a634e487b7102600052603260045260246000fd5b9060005260206000200154905080600883815481106116745760e060020a634e487b7102600052603260045260246000fd5b60009182526020808320909101929092558281526009909152604080822084905585825281205560088054806116bd5760e060020a634e487b7102600052603160045260246000fd5b6001900381819060005260206000200160009055905550505050565b60006116e483610a94565b600160a060020a039093166000908152600660209081526040808320868452825280832085905593825260079052919091209190915550565b3b151590565b82805461172f906121fb565b90600052602060002090601f0160209004810192826117515760008555611797565b82601f1061176a57805160ff1916838001178555611797565b82800160010185558215611797579182015b8281111561179757825182559160200191906001019061177c565b506117a39291506117be565b5090565b604080518082019091526000808252602082015290565b5b808211156117a357600081556001016117bf565b600067ffffffffffffffff808411156117ee576117ee612267565b604051601f8501601f19168101602001828111828210171561181257611812612267565b60405284815291508183850186101561182a57600080fd5b8484602083013760006020868301015250509392505050565b8035600160a060020a038116811461049f57600080fd5b8035801515811461049f57600080fd5b600082601f83011261187a578081fd5b611011838335602085016117d3565b803561ffff8116811461049f57600080fd5b6000602082840312156118ac578081fd5b61101182611843565b600080604083850312156118c7578081fd5b6118d083611843565b91506118de60208401611843565b90509250929050565b6000806000606084860312156118fb578081fd5b61190484611843565b925061191260208501611843565b9150604084013590509250925092565b60008060008060808587031215611937578081fd5b61194085611843565b935061194e60208601611843565b925060408501359150606085013567ffffffffffffffff811115611970578182fd5b8501601f81018713611980578182fd5b61198f878235602084016117d3565b91505092959194509250565b600080604083850312156119ad578182fd5b6119b683611843565b91506118de6020840161185a565b600080600080600060a086880312156119db578081fd5b6119e486611843565b9450602086013567ffffffffffffffff8111156119ff578182fd5b611a0b8882890161186a565b945050611a1a60408701611889565b9250611a2860608701611889565b9150611a366080870161185a565b90509295509295909350565b60008060408385031215611a54578182fd5b611a5d83611843565b946020939093013593505050565b600060208284031215611a7c578081fd5b813561101181612280565b600060208284031215611a98578081fd5b815161101181612280565b600060208284031215611ab4578081fd5b813567ffffffffffffffff811115611aca578182fd5b6112ca8482850161186a565b600060208284031215611ae7578081fd5b5035919050565b60008151808452815b81811015611b1357602081850181015186830182015201611af7565b81811115611b245782602083870101525b50601f01601f19169290920160200192915050565b600160a060020a0391909116815260200190565b600160a060020a039290921682526bffffffffffffffffffffffff16602082015260400190565b6000600160a060020a03808716835280861660208401525083604083015260806060830152611ba66080830184611aee565b9695505050505050565b602080825282518282018190526000919060409081850190868401855b82811015611c095781518051600160a060020a031685528601516bffffffffffffffffffffffff16868501529284019290850190600101611bcd565b5091979650505050505050565b6020808252825182820181905260009190848201906040850190845b81811015611c4e57835183529284019291840191600101611c32565b50909695505050505050565b901515815260200190565b6000602082526110116020830184611aee565b6020808252602b908201527f455243373231456e756d657261626c653a206f776e657220696e646578206f7560408201527f74206f6620626f756e6473000000000000000000000000000000000000000000606082015260800190565b60208082526032908201527f4552433732313a207472616e7366657220746f206e6f6e20455243373231526560408201527f63656976657220696d706c656d656e7465720000000000000000000000000000606082015260800190565b6020808252601c908201527f4552433732313a20746f6b656e20616c7265616479206d696e74656400000000604082015260600190565b60208082526024908201527f4552433732313a207472616e7366657220746f20746865207a65726f2061646460408201527f7265737300000000000000000000000000000000000000000000000000000000606082015260800190565b60208082526019908201527f4552433732313a20617070726f766520746f2063616c6c657200000000000000604082015260600190565b6020808252602c908201527f4552433732313a206f70657261746f7220717565727920666f72206e6f6e657860408201527f697374656e7420746f6b656e0000000000000000000000000000000000000000606082015260800190565b60208082526038908201527f4552433732313a20617070726f76652063616c6c6572206973206e6f74206f7760408201527f6e6572206e6f7220617070726f76656420666f7220616c6c0000000000000000606082015260800190565b6020808252602a908201527f4552433732313a2062616c616e636520717565727920666f7220746865207a6560408201527f726f206164647265737300000000000000000000000000000000000000000000606082015260800190565b60208082526029908201527f4552433732313a206f776e657220717565727920666f72206e6f6e657869737460408201527f656e7420746f6b656e0000000000000000000000000000000000000000000000606082015260800190565b6020808252818101527f4552433732313a206d696e7420746f20746865207a65726f2061646472657373604082015260600190565b6020808252602c908201527f4552433732313a20617070726f76656420717565727920666f72206e6f6e657860408201527f697374656e7420746f6b656e0000000000000000000000000000000000000000606082015260800190565b60208082526029908201527f4552433732313a207472616e73666572206f6620746f6b656e2074686174206960408201527f73206e6f74206f776e0000000000000000000000000000000000000000000000606082015260800190565b6020808252600c908201527f4f6e6c792061646d696e732e0000000000000000000000000000000000000000604082015260600190565b60208082526021908201527f4552433732313a20617070726f76616c20746f2063757272656e74206f776e6560408201527f7200000000000000000000000000000000000000000000000000000000000000606082015260800190565b60208082526031908201527f4552433732313a207472616e736665722063616c6c6572206973206e6f74206f60408201527f776e6572206e6f7220617070726f766564000000000000000000000000000000606082015260800190565b6020808252602c908201527f455243373231456e756d657261626c653a20676c6f62616c20696e646578206f60408201527f7574206f6620626f756e64730000000000000000000000000000000000000000606082015260800190565b61ffff92831681529116602082015260400190565b90815260200190565b600082198211156121df576121df61224e565b500190565b6000828210156121f6576121f661224e565b500390565b60028104600182168061220f57607f821691505b60208210811415610a005760e060020a634e487b7102600052602260045260246000fd5b60006000198214156122475761224761224e565b5060010190565b60e060020a634e487b7102600052601160045260246000fd5b60e060020a634e487b7102600052604160045260246000fd5b600160e060020a03198116811461229657600080fd5b5056fea264697066735822122034b5480974b9173a93d601601ea9bb8ce736068ec707202126db603d28159e6c64736f6c63430008000033",
  "immutableReferences": {},
  "source": "// SPDX-License-Identifier: MIT\n\npragma solidity ^0.8.0;\n\nimport \"@openzeppelin/contracts/token/ERC721/extensions/ERC721Enumerable.sol\";\nimport \"@openzeppelin/contracts/utils/math/SafeMath.sol\";\n\ncontract ImnotArtExhibitions is ERC721Enumerable {\n    using SafeMath for uint256;\n\n    // ---\n    // Properties\n    // ---\n    uint256 public nextTokenId = 1;\n    address public imnotArtPayoutAddress;\n    address public marketplaceAddress;\n    string private _contractUri;\n\n    // ---\n    // Structs\n    // ---\n\n    /* Interface for Rarible that can be used for other things in future */\n    struct RoyaltyBps {\n        address payable account;\n        uint96 value;\n    }\n\n    /* Only need Artist BPS, as remainder would be given to imnotArt after Artist is paid */\n    struct TokenBps {\n        uint16 artistFirstSaleBps;\n        uint16 artistSecondarySaleBps;\n    }\n\n    // ---\n    // Events\n    // ---\n    event PermanentURI(string _value, uint256 indexed _id); // OpenSea Freezing Metadata\n\n    // ---\n    // Security\n    // ---\n    mapping(address => bool) private _isAdmin;\n\n    modifier onlyAdmin() {\n        require(_isAdmin[msg.sender], \"Only admins.\");\n        _;\n    }\n\n    modifier onlyValidTokenId(uint256 tokenId) {\n        require(_exists(tokenId), \"Token ID does not exist.\");\n        _;\n    }\n\n    // ---\n    // Mappings\n    // ---\n    mapping(uint256 => string) private _metadataByTokenId;\n    mapping(uint256 => address) public artistByTokenId;\n    mapping(uint256 => TokenBps) public tokenBpsByTokenId;\n    mapping(uint256 => RoyaltyBps) public royaltyBpsByTokenId;\n\n    // ---\n    // Constructor\n    // ---\n    constructor() ERC721(\"imnotArt Exhibitions\", \"IMNOTART\") {\n        _isAdmin[msg.sender] = true;\n        // @TODO(iolson): Set initial Contract URI\n    }\n\n    // ---\n    // Minting\n    // ---\n    function mintToken(address artistAddress, string memory metadataUri, uint16 artistFirstSaleBps, uint16 artistSecondarySaleBps, bool transferToMarketplaceContract) public onlyAdmin returns (uint256 tokenId) {\n        tokenId = nextTokenId;\n        nextTokenId = nextTokenId.add(1);\n\n        _mint(artistAddress, tokenId);\n        artistByTokenId[tokenId] = artistAddress;\n\n        _metadataByTokenId[tokenId] = metadataUri;\n        emit PermanentURI(metadataUri, tokenId);\n\n        TokenBps memory tokenBps = TokenBps({\n            artistFirstSaleBps: artistFirstSaleBps,\n            artistSecondarySaleBps: artistSecondarySaleBps\n        });\n        tokenBpsByTokenId[tokenId] = tokenBps;\n\n        if (transferToMarketplaceContract) {\n            _transfer(artistAddress, marketplaceAddress, tokenId);\n        }\n    }\n\n    // ---\n    // Contract Updates\n    // ---\n    function updateImnotArtPayoutAddress(address newPayoutAddress) public onlyAdmin {\n        imnotArtPayoutAddress = newPayoutAddress;\n    }\n\n    function updateMarketplaceAddress(address newMarketplaceAddress) public onlyAdmin {\n        marketplaceAddress = newMarketplaceAddress;\n    }\n\n    function updateContractUri(string memory newContractUri) public onlyAdmin {\n        _contractUri = newContractUri;\n    }\n\n    function addAdmin(address newAdminAddress) public onlyAdmin {\n        _isAdmin[newAdminAddress] = true;\n    }\n\n    // ---\n    // Metadata\n    // ---\n    function tokenURI(uint256 tokenId) public view override virtual returns (string memory) {\n        return _metadataByTokenId[tokenId];\n    }\n\n    // ---\n    // Contract Retrieve Functions\n    // ---\n    function getTokensOfOwner(address owner) public view returns (uint256[] memory tokenIds) {\n        uint256 tokenCount = balanceOf(owner);\n\n        if (tokenCount == 0) {\n            tokenIds = new uint256[](0);\n        } else {\n            tokenIds = new uint256[](tokenCount);\n            uint256 index;\n            for (index = 0; index < tokenCount; index++) {\n                tokenIds[index] = tokenOfOwnerByIndex(owner, index);\n            }\n        }\n\n        return tokenIds;\n    }\n\n    // ---\n    // Secondary Marketplace Functions\n    // ---\n\n    /* OpenSea */\n    function contractURI() public view virtual returns (string memory) {\n        return _contractUri;\n    }\n    \n    /* Rarible */\n    function getRoyalties(uint256 id) external view returns (RoyaltyBps[] memory) {\n        RoyaltyBps[] memory royalties = new RoyaltyBps[](2);\n\n        // Add Artist Royalties\n        royalties[0] = royaltyBpsByTokenId[id];\n\n        // Add imnotArt Royalties\n        royalties[1] = RoyaltyBps({\n            account: payable(imnotArtPayoutAddress),\n            value: 250\n        });\n\n        return royalties;\n    }\n}",
  "sourcePath": "/Users/ianolson/code/imnotart-exhibitions/contracts/ImnotArtExhibitions.sol",
  "compiler": {
    "name": "solc",
    "version": "0.8.0+commit.c7dfd78e.Emscripten.clang"
  },
  "schemaVersion": "3.3.4",
  "updatedAt": "2021-07-29T01:25:02.668Z",
  "devdoc": {
    "kind": "dev",
    "methods": {
      "approve(address,uint256)": {
        "details": "See {IERC721-approve}."
      },
      "balanceOf(address)": {
        "details": "See {IERC721-balanceOf}."
      },
      "getApproved(uint256)": {
        "details": "See {IERC721-getApproved}."
      },
      "isApprovedForAll(address,address)": {
        "details": "See {IERC721-isApprovedForAll}."
      },
      "name()": {
        "details": "See {IERC721Metadata-name}."
      },
      "ownerOf(uint256)": {
        "details": "See {IERC721-ownerOf}."
      },
      "safeTransferFrom(address,address,uint256)": {
        "details": "See {IERC721-safeTransferFrom}."
      },
      "safeTransferFrom(address,address,uint256,bytes)": {
        "details": "See {IERC721-safeTransferFrom}."
      },
      "setApprovalForAll(address,bool)": {
        "details": "See {IERC721-setApprovalForAll}."
      },
      "supportsInterface(bytes4)": {
        "details": "See {IERC165-supportsInterface}."
      },
      "symbol()": {
        "details": "See {IERC721Metadata-symbol}."
      },
      "tokenByIndex(uint256)": {
        "details": "See {IERC721Enumerable-tokenByIndex}."
      },
      "tokenOfOwnerByIndex(address,uint256)": {
        "details": "See {IERC721Enumerable-tokenOfOwnerByIndex}."
      },
      "tokenURI(uint256)": {
        "details": "See {IERC721Metadata-tokenURI}."
      },
      "totalSupply()": {
        "details": "See {IERC721Enumerable-totalSupply}."
      },
      "transferFrom(address,address,uint256)": {
        "details": "See {IERC721-transferFrom}."
      }
    },
    "version": 1
  },
  "userdoc": {
    "kind": "user",
    "methods": {},
    "version": 1
  }
}