{
  "contractName": "ImnotArtExhibitions",
  "abi": [
    {
      "inputs": [],
      "stateMutability": "nonpayable",
      "type": "constructor"
    },
    {
      "anonymous": false,
      "inputs": [
        {
          "indexed": true,
          "internalType": "address",
          "name": "owner",
          "type": "address"
        },
        {
          "indexed": true,
          "internalType": "address",
          "name": "approved",
          "type": "address"
        },
        {
          "indexed": true,
          "internalType": "uint256",
          "name": "tokenId",
          "type": "uint256"
        }
      ],
      "name": "Approval",
      "type": "event"
    },
    {
      "anonymous": false,
      "inputs": [
        {
          "indexed": true,
          "internalType": "address",
          "name": "owner",
          "type": "address"
        },
        {
          "indexed": true,
          "internalType": "address",
          "name": "operator",
          "type": "address"
        },
        {
          "indexed": false,
          "internalType": "bool",
          "name": "approved",
          "type": "bool"
        }
      ],
      "name": "ApprovalForAll",
      "type": "event"
    },
    {
      "anonymous": false,
      "inputs": [
        {
          "indexed": false,
          "internalType": "string",
          "name": "_value",
          "type": "string"
        },
        {
          "indexed": true,
          "internalType": "uint256",
          "name": "_id",
          "type": "uint256"
        }
      ],
      "name": "PermanentURI",
      "type": "event"
    },
    {
      "anonymous": false,
      "inputs": [
        {
          "indexed": true,
          "internalType": "address",
          "name": "from",
          "type": "address"
        },
        {
          "indexed": true,
          "internalType": "address",
          "name": "to",
          "type": "address"
        },
        {
          "indexed": true,
          "internalType": "uint256",
          "name": "tokenId",
          "type": "uint256"
        }
      ],
      "name": "Transfer",
      "type": "event"
    },
    {
      "inputs": [
        {
          "internalType": "address",
          "name": "to",
          "type": "address"
        },
        {
          "internalType": "uint256",
          "name": "tokenId",
          "type": "uint256"
        }
      ],
      "name": "approve",
      "outputs": [],
      "stateMutability": "nonpayable",
      "type": "function"
    },
    {
      "inputs": [
        {
          "internalType": "uint256",
          "name": "",
          "type": "uint256"
        }
      ],
      "name": "artistByTokenId",
      "outputs": [
        {
          "internalType": "address",
          "name": "",
          "type": "address"
        }
      ],
      "stateMutability": "view",
      "type": "function"
    },
    {
      "inputs": [],
      "name": "artistFirstSaleBps",
      "outputs": [
        {
          "internalType": "uint16",
          "name": "",
          "type": "uint16"
        }
      ],
      "stateMutability": "view",
      "type": "function"
    },
    {
      "inputs": [],
      "name": "artistSecondarySaleBps",
      "outputs": [
        {
          "internalType": "uint16",
          "name": "",
          "type": "uint16"
        }
      ],
      "stateMutability": "view",
      "type": "function"
    },
    {
      "inputs": [
        {
          "internalType": "address",
          "name": "owner",
          "type": "address"
        }
      ],
      "name": "balanceOf",
      "outputs": [
        {
          "internalType": "uint256",
          "name": "",
          "type": "uint256"
        }
      ],
      "stateMutability": "view",
      "type": "function"
    },
    {
      "inputs": [
        {
          "internalType": "uint256",
          "name": "tokenId",
          "type": "uint256"
        }
      ],
      "name": "getApproved",
      "outputs": [
        {
          "internalType": "address",
          "name": "",
          "type": "address"
        }
      ],
      "stateMutability": "view",
      "type": "function"
    },
    {
      "inputs": [],
      "name": "imnotArtPayoutAddress",
      "outputs": [
        {
          "internalType": "address",
          "name": "",
          "type": "address"
        }
      ],
      "stateMutability": "view",
      "type": "function"
    },
    {
      "inputs": [],
      "name": "imnotArtSecondarySaleBps",
      "outputs": [
        {
          "internalType": "uint16",
          "name": "",
          "type": "uint16"
        }
      ],
      "stateMutability": "view",
      "type": "function"
    },
    {
      "inputs": [
        {
          "internalType": "address",
          "name": "owner",
          "type": "address"
        },
        {
          "internalType": "address",
          "name": "operator",
          "type": "address"
        }
      ],
      "name": "isApprovedForAll",
      "outputs": [
        {
          "internalType": "bool",
          "name": "",
          "type": "bool"
        }
      ],
      "stateMutability": "view",
      "type": "function"
    },
    {
      "inputs": [],
      "name": "marketplaceAddress",
      "outputs": [
        {
          "internalType": "address",
          "name": "",
          "type": "address"
        }
      ],
      "stateMutability": "view",
      "type": "function"
    },
    {
      "inputs": [],
      "name": "name",
      "outputs": [
        {
          "internalType": "string",
          "name": "",
          "type": "string"
        }
      ],
      "stateMutability": "view",
      "type": "function"
    },
    {
      "inputs": [],
      "name": "nextTokenId",
      "outputs": [
        {
          "internalType": "uint256",
          "name": "",
          "type": "uint256"
        }
      ],
      "stateMutability": "view",
      "type": "function"
    },
    {
      "inputs": [
        {
          "internalType": "uint256",
          "name": "tokenId",
          "type": "uint256"
        }
      ],
      "name": "ownerOf",
      "outputs": [
        {
          "internalType": "address",
          "name": "",
          "type": "address"
        }
      ],
      "stateMutability": "view",
      "type": "function"
    },
    {
      "inputs": [
        {
          "internalType": "address",
          "name": "from",
          "type": "address"
        },
        {
          "internalType": "address",
          "name": "to",
          "type": "address"
        },
        {
          "internalType": "uint256",
          "name": "tokenId",
          "type": "uint256"
        }
      ],
      "name": "safeTransferFrom",
      "outputs": [],
      "stateMutability": "nonpayable",
      "type": "function"
    },
    {
      "inputs": [
        {
          "internalType": "address",
          "name": "from",
          "type": "address"
        },
        {
          "internalType": "address",
          "name": "to",
          "type": "address"
        },
        {
          "internalType": "uint256",
          "name": "tokenId",
          "type": "uint256"
        },
        {
          "internalType": "bytes",
          "name": "_data",
          "type": "bytes"
        }
      ],
      "name": "safeTransferFrom",
      "outputs": [],
      "stateMutability": "nonpayable",
      "type": "function"
    },
    {
      "inputs": [
        {
          "internalType": "address",
          "name": "operator",
          "type": "address"
        },
        {
          "internalType": "bool",
          "name": "approved",
          "type": "bool"
        }
      ],
      "name": "setApprovalForAll",
      "outputs": [],
      "stateMutability": "nonpayable",
      "type": "function"
    },
    {
      "inputs": [
        {
          "internalType": "bytes4",
          "name": "interfaceId",
          "type": "bytes4"
        }
      ],
      "name": "supportsInterface",
      "outputs": [
        {
          "internalType": "bool",
          "name": "",
          "type": "bool"
        }
      ],
      "stateMutability": "view",
      "type": "function"
    },
    {
      "inputs": [],
      "name": "symbol",
      "outputs": [
        {
          "internalType": "string",
          "name": "",
          "type": "string"
        }
      ],
      "stateMutability": "view",
      "type": "function"
    },
    {
      "inputs": [
        {
          "internalType": "uint256",
          "name": "",
          "type": "uint256"
        }
      ],
      "name": "tokenBpsByTokenId",
      "outputs": [
        {
          "internalType": "uint16",
          "name": "artistFirstSaleBps",
          "type": "uint16"
        },
        {
          "internalType": "uint16",
          "name": "artistSecondarySaleBps",
          "type": "uint16"
        }
      ],
      "stateMutability": "view",
      "type": "function"
    },
    {
      "inputs": [
        {
          "internalType": "uint256",
          "name": "index",
          "type": "uint256"
        }
      ],
      "name": "tokenByIndex",
      "outputs": [
        {
          "internalType": "uint256",
          "name": "",
          "type": "uint256"
        }
      ],
      "stateMutability": "view",
      "type": "function"
    },
    {
      "inputs": [
        {
          "internalType": "address",
          "name": "owner",
          "type": "address"
        },
        {
          "internalType": "uint256",
          "name": "index",
          "type": "uint256"
        }
      ],
      "name": "tokenOfOwnerByIndex",
      "outputs": [
        {
          "internalType": "uint256",
          "name": "",
          "type": "uint256"
        }
      ],
      "stateMutability": "view",
      "type": "function"
    },
    {
      "inputs": [],
      "name": "totalSupply",
      "outputs": [
        {
          "internalType": "uint256",
          "name": "",
          "type": "uint256"
        }
      ],
      "stateMutability": "view",
      "type": "function"
    },
    {
      "inputs": [
        {
          "internalType": "address",
          "name": "from",
          "type": "address"
        },
        {
          "internalType": "address",
          "name": "to",
          "type": "address"
        },
        {
          "internalType": "uint256",
          "name": "tokenId",
          "type": "uint256"
        }
      ],
      "name": "transferFrom",
      "outputs": [],
      "stateMutability": "nonpayable",
      "type": "function"
    },
    {
      "inputs": [
        {
          "internalType": "address",
          "name": "artistAddress",
          "type": "address"
        },
        {
          "internalType": "string",
          "name": "metadataUri",
          "type": "string"
        },
        {
          "internalType": "bool",
          "name": "transferToMarketplaceContract",
          "type": "bool"
        }
      ],
      "name": "mintToken",
      "outputs": [
        {
          "internalType": "uint256",
          "name": "tokenId",
          "type": "uint256"
        }
      ],
      "stateMutability": "nonpayable",
      "type": "function"
    },
    {
      "inputs": [
        {
          "internalType": "string",
          "name": "metadataUri",
          "type": "string"
        },
        {
          "internalType": "bool",
          "name": "transferToMarketplaceContract",
          "type": "bool"
        }
      ],
      "name": "artistMintToken",
      "outputs": [
        {
          "internalType": "uint256",
          "name": "tokenId",
          "type": "uint256"
        }
      ],
      "stateMutability": "nonpayable",
      "type": "function"
    },
    {
      "inputs": [
        {
          "internalType": "uint256",
          "name": "tokenId",
          "type": "uint256"
        }
      ],
      "name": "burn",
      "outputs": [],
      "stateMutability": "nonpayable",
      "type": "function"
    },
    {
      "inputs": [
        {
          "internalType": "address",
          "name": "newPayoutAddress",
          "type": "address"
        }
      ],
      "name": "updateImnotArtPayoutAddress",
      "outputs": [],
      "stateMutability": "nonpayable",
      "type": "function"
    },
    {
      "inputs": [
        {
          "internalType": "address",
          "name": "newMarketplaceAddress",
          "type": "address"
        }
      ],
      "name": "updateMarketplaceAddress",
      "outputs": [],
      "stateMutability": "nonpayable",
      "type": "function"
    },
    {
      "inputs": [
        {
          "internalType": "string",
          "name": "newContractUri",
          "type": "string"
        }
      ],
      "name": "updateContractUri",
      "outputs": [],
      "stateMutability": "nonpayable",
      "type": "function"
    },
    {
      "inputs": [
        {
          "internalType": "address",
          "name": "newAdminAddress",
          "type": "address"
        }
      ],
      "name": "addAdmin",
      "outputs": [],
      "stateMutability": "nonpayable",
      "type": "function"
    },
    {
      "inputs": [
        {
          "internalType": "address",
          "name": "removeAdminAddress",
          "type": "address"
        }
      ],
      "name": "removeAdmin",
      "outputs": [],
      "stateMutability": "nonpayable",
      "type": "function"
    },
    {
      "inputs": [
        {
          "internalType": "address",
          "name": "newArtistAddress",
          "type": "address"
        }
      ],
      "name": "addApprovedArtist",
      "outputs": [],
      "stateMutability": "nonpayable",
      "type": "function"
    },
    {
      "inputs": [
        {
          "internalType": "address",
          "name": "removeArtistAddress",
          "type": "address"
        }
      ],
      "name": "removeApprovedArtist",
      "outputs": [],
      "stateMutability": "nonpayable",
      "type": "function"
    },
    {
      "inputs": [
        {
          "internalType": "uint256",
          "name": "tokenId",
          "type": "uint256"
        }
      ],
      "name": "tokenURI",
      "outputs": [
        {
          "internalType": "string",
          "name": "",
          "type": "string"
        }
      ],
      "stateMutability": "view",
      "type": "function"
    },
    {
      "inputs": [
        {
          "internalType": "address",
          "name": "owner",
          "type": "address"
        }
      ],
      "name": "getTokensOfOwner",
      "outputs": [
        {
          "internalType": "uint256[]",
          "name": "tokenIds",
          "type": "uint256[]"
        }
      ],
      "stateMutability": "view",
      "type": "function"
    },
    {
      "inputs": [],
      "name": "contractURI",
      "outputs": [
        {
          "internalType": "string",
          "name": "",
          "type": "string"
        }
      ],
      "stateMutability": "view",
      "type": "function"
    },
    {
      "inputs": [
        {
          "internalType": "uint256",
          "name": "tokenId",
          "type": "uint256"
        }
      ],
      "name": "getFeeRecipients",
      "outputs": [
        {
          "internalType": "address payable[]",
          "name": "",
          "type": "address[]"
        }
      ],
      "stateMutability": "view",
      "type": "function"
    },
    {
      "inputs": [
        {
          "internalType": "uint256",
          "name": "tokenId",
          "type": "uint256"
        }
      ],
      "name": "getFeeBps",
      "outputs": [
        {
          "internalType": "uint256[]",
          "name": "",
          "type": "uint256[]"
        }
      ],
      "stateMutability": "view",
      "type": "function"
    }
  ],
  "bytecode": "0x60806040526001600a553480156200001657600080fd5b50604080518082018252601481527f696d6e6f744172742045786869626974696f6e7300000000000000000000000060208083019182528351808501909452600884527f494d4e4f544152540000000000000000000000000000000000000000000000009084015281519192916200009191600091620000ca565b508051620000a7906001906020840190620000ca565b5050336000908152600e60205260409020805460ff1916600117905550620001c6565b828054620000d89062000170565b90600052602060002090601f016020900481019282620000fc576000855562000147565b82601f106200011757805160ff191683800117855562000147565b8280016001018555821562000147579182015b82811115620001475782518255916020019190600101906200012a565b506200015592915062000159565b5090565b5b808211156200015557600081556001016200015a565b6002810460018216806200018557607f821691505b60208210811415620001c0577f4e487b7100000000000000000000000000000000000000000000000000000000600052602260045260246000fd5b50919050565b6126d980620001d66000396000f3fe608060405234801561001057600080fd5b506004361061024f576000357c0100000000000000000000000000000000000000000000000000000000900480635de6dc551161014d578063c34a2a3a116100d5578063e5a727b711610099578063e5a727b7146104c2578063e8a3d485146104e3578063e9482cc6146104eb578063e985e9c5146104f3578063edbcbb01146105065761024f565b8063c34a2a3a14610479578063c87b56dd14610481578063cf1e923914610494578063daa17f49146104a7578063e4ace31a146104af5761024f565b806375794a3c1161011c57806375794a3c1461042357806395d89b411461042b578063a22cb46514610433578063b88d4fde14610446578063b9c4d9fb146104595761024f565b80635de6dc55146103ea5780636352211e146103fd578063704802751461031a57806370a08231146104105761024f565b806323b872dd116101db57806342842e0e1161019f57806342842e0e1461038b57806342966c681461039e57806347c8ff5e146103b15780634f6ccce7146103c457806350ff2d5b146103d75761024f565b806323b872dd146103355780632cf0ffbe146103485780632f745c591461035d5780633dd2fdff1461037057806340c38035146103785761024f565b8063095ea7b311610222578063095ea7b3146102c75780630ebd4c7f146102da57806314fe38ab146102fa5780631785f53c1461031a57806318160ddd1461032d5761024f565b806301ffc9a71461025457806306fdde031461027d578063072e839e14610292578063081812fc146102a7575b600080fd5b610267610262366004611dcf565b610519565b6040516102749190611fb5565b60405180910390f35b61028561055f565b6040516102749190611fc0565b6102a56102a0366004611c21565b6105f1565b005b6102ba6102b5366004611e7d565b61064d565b6040516102749190611ee0565b6102a56102d5366004611da6565b610693565b6102ed6102e8366004611e7d565b610731565b6040516102749190611f7d565b61030d610308366004611d4a565b6107f2565b60405161027491906125d0565b6102a5610328366004611c21565b610930565b61030d610986565b6102a5610343366004611c6d565b61098c565b6103506109c7565b60405161027491906125ac565b61030d61036b366004611da6565b6109cd565b610350610a22565b6102a5610386366004611c21565b610a27565b6102a5610399366004611c6d565b610a7d565b6102a56103ac366004611e7d565b610a98565b6102a56103bf366004611e07565b610ace565b61030d6103d2366004611e7d565b610b17565b6102ba6103e5366004611e7d565b610b78565b6102ed6103f8366004611c21565b610b93565b6102ba61040b366004611e7d565b610c6f565b61030d61041e366004611c21565b610ca7565b61030d610cee565b610285610cf4565b6102a5610441366004611d21565b610d03565b6102a5610454366004611ca8565b610dd4565b61046c610467366004611e7d565b610e16565b6040516102749190611f30565b6102ba610eff565b61028561048f366004611e7d565b610f0e565b6102a56104a2366004611c21565b610fd8565b6102ba61102c565b6102a56104bd366004611c21565b61103b565b6104d56104d0366004611e7d565b61108f565b6040516102749291906125bb565b6102856110af565b6103506110be565b610267610501366004611c3b565b6110c4565b61030d610514366004611e3a565b6110f2565b6000600160e060020a031982167f780e9d63000000000000000000000000000000000000000000000000000000001480610557575061055782611226565b90505b919050565b60606000805461056e90612608565b80601f016020809104026020016040519081016040528092919081815260200182805461059a90612608565b80156105e75780601f106105bc576101008083540402835291602001916105e7565b820191906000526020600020905b8154815290600101906020018083116105ca57829003601f168201915b5050505050905090565b336000908152600e602052604090205460ff1661062c5760405160e560020a62461bcd028152600401610623906123f2565b60405180910390fd5b600160a060020a03166000908152600f60205260409020805460ff19169055565b600061065882611298565b6106775760405160e560020a62461bcd02815260040161062390612338565b50600090815260046020526040902054600160a060020a031690565b600061069e82610c6f565b905080600160a060020a031683600160a060020a031614156106d55760405160e560020a62461bcd02815260040161062390612429565b80600160a060020a03166106e76112b5565b600160a060020a031614806107035750610703816105016112b5565b6107225760405160e560020a62461bcd028152600401610623906121ec565b61072c83836112b9565b505050565b60608161073d81611298565b61075c5760405160e560020a62461bcd02815260040161062390612575565b6040805160028082526060820183526000926020830190803683370190505090506101f461ffff16816000815181106107a85760e060020a634e487b7102600052603260045260246000fd5b60200260200101818152505060fa61ffff16816001815181106107de5760e060020a634e487b7102600052603260045260246000fd5b602090810291909101015291505b50919050565b336000908152600e602052604081205460ff166108245760405160e560020a62461bcd028152600401610623906123f2565b50600a54610833816001611327565b600a55610840848261133a565b60008181526011602090815260408083208054600160a060020a031916600160a060020a03891617905560108252909120845161087f92860190611ad2565b50807fa109ba539900bf1b633f956d63c96fc89b814c7287f7aa50a9216d0b55657207846040516108b09190611fc0565b60405180910390a260408051808201825261196481526101f46020808301918252600085815260129091529290922081518154935161ffff1990941661ffff9182161763ffff0000191662010000919094160292909217909155821561092857600c54610928908690600160a060020a03168461141f565b509392505050565b336000908152600e602052604090205460ff166109625760405160e560020a62461bcd028152600401610623906123f2565b600160a060020a03166000908152600e60205260409020805460ff19166001179055565b60085490565b61099d6109976112b5565b82611552565b6109bc5760405160e560020a62461bcd028152600401610623906124bb565b61072c83838361141f565b6101f481565b60006109d883610ca7565b82106109f95760405160e560020a62461bcd0281526004016106239061200a565b50600160a060020a03919091166000908152600660209081526040808320938352929052205490565b60fa81565b336000908152600e602052604090205460ff16610a595760405160e560020a62461bcd028152600401610623906123f2565b600160a060020a03166000908152600f60205260409020805460ff19166001179055565b61072c83838360405180602001604052806000815250610dd4565b610aa36109976112b5565b610ac25760405160e560020a62461bcd02815260040161062390612486565b610acb816115da565b50565b336000908152600e602052604090205460ff16610b005760405160e560020a62461bcd028152600401610623906123f2565b8051610b1390600d906020840190611ad2565b5050565b6000610b21610986565b8210610b425760405160e560020a62461bcd02815260040161062390612518565b60088281548110610b665760e060020a634e487b7102600052603260045260246000fd5b90600052602060002001549050919050565b601160205260009081526040902054600160a060020a031681565b60606000610ba083610ca7565b905080610bbd5760408051600081526020810190915291506107ec565b8067ffffffffffffffff811115610be75760e060020a634e487b7102600052604160045260246000fd5b604051908082528060200260200182016040528015610c10578160200160208202803683370190505b50915060005b81811015610c6857610c2884826109cd565b838281518110610c4b5760e060020a634e487b7102600052603260045260246000fd5b602090810291909101015280610c6081612640565b915050610c16565b5050919050565b600081815260026020526040812054600160a060020a0316806105575760405160e560020a62461bcd028152600401610623906122a6565b6000600160a060020a038216610cd25760405160e560020a62461bcd02815260040161062390612249565b50600160a060020a031660009081526003602052604090205490565b600a5481565b60606001805461056e90612608565b610d0b6112b5565b600160a060020a031682600160a060020a03161415610d3f5760405160e560020a62461bcd02815260040161062390612158565b8060056000610d4c6112b5565b600160a060020a03908116825260208083019390935260409182016000908120918716808252919093529120805460ff191692151592909217909155610d906112b5565b600160a060020a03167f17307eab39ab6107e8899845ad3d59bd9653f200f220920489ca2b5937696c3183604051610dc89190611fb5565b60405180910390a35050565b610de5610ddf6112b5565b83611552565b610e045760405160e560020a62461bcd028152600401610623906124bb565b610e1084848484611681565b50505050565b606081610e2281611298565b610e415760405160e560020a62461bcd02815260040161062390612575565b6040805160028082526060820183526000926020830190803683375050506000858152601160205260408120548251929350600160a060020a031691839190610e9d5760e060020a634e487b7102600052603260045260246000fd5b600160a060020a039283166020918202929092010152600b54825191169082906001908110610edf5760e060020a634e487b7102600052603260045260246000fd5b600160a060020a0390921660209283029190910190910152915050919050565b600b54600160a060020a031681565b606081610f1a81611298565b610f395760405160e560020a62461bcd02815260040161062390612575565b60008381526010602052604090208054610f5290612608565b80601f0160208091040260200160405190810160405280929190818152602001828054610f7e90612608565b8015610fcb5780601f10610fa057610100808354040283529160200191610fcb565b820191906000526020600020905b815481529060010190602001808311610fae57829003601f168201915b5050505050915050919050565b336000908152600e602052604090205460ff1661100a5760405160e560020a62461bcd028152600401610623906123f2565b600b8054600160a060020a031916600160a060020a0392909216919091179055565b600c54600160a060020a031681565b336000908152600e602052604090205460ff1661106d5760405160e560020a62461bcd028152600401610623906123f2565b600c8054600160a060020a031916600160a060020a0392909216919091179055565b60126020526000908152604090205461ffff808216916201000090041682565b6060600d805461056e90612608565b61196481565b600160a060020a03918216600090815260056020908152604080832093909416825291909152205460ff1690565b336000908152600f602052604081205460ff166111245760405160e560020a62461bcd02815260040161062390611fd3565b50600a54611133816001611327565b600a55611140338261133a565b60008181526011602090815260408083208054600160a060020a0319163317905560108252909120845161117692860190611ad2565b50807fa109ba539900bf1b633f956d63c96fc89b814c7287f7aa50a9216d0b55657207846040516111a79190611fc0565b60405180910390a260408051808201825261196481526101f46020808301918252600085815260129091529290922081518154935161ffff1990941661ffff9182161763ffff0000191662010000919094160292909217909155821561121f57600c5461121f903390600160a060020a03168461141f565b5092915050565b6000600160e060020a031982167f80ac58cd0000000000000000000000000000000000000000000000000000000014806112895750600160e060020a031982167f5b5e139f00000000000000000000000000000000000000000000000000000000145b806105575750610557826116b7565b600090815260026020526040902054600160a060020a0316151590565b3390565b60008181526004602052604090208054600160a060020a031916600160a060020a03841690811790915581906112ee82610c6f565b600160a060020a03167f8c5be1e5ebec7d5bd14f71427d1e84f3dd0314c0f7b2291e5b200ac8c7c3b92560405160405180910390a45050565b600061133382846125d9565b9392505050565b600160a060020a0382166113635760405160e560020a62461bcd02815260040161062390612303565b61136c81611298565b1561138c5760405160e560020a62461bcd028152600401610623906120c4565b611398600083836116e9565b600160a060020a03821660009081526003602052604081208054600192906113c19084906125d9565b90915550506000818152600260205260408082208054600160a060020a031916600160a060020a03861690811790915590518392907fddf252ad1be2c89b69c2b068fc378daa952ba7f163c4a11628f55a4df523b3ef908290a45050565b82600160a060020a031661143282610c6f565b600160a060020a03161461145b5760405160e560020a62461bcd02815260040161062390612395565b600160a060020a0382166114845760405160e560020a62461bcd028152600401610623906120fb565b61148f8383836116e9565b61149a6000826112b9565b600160a060020a03831660009081526003602052604081208054600192906114c39084906125f1565b9091555050600160a060020a03821660009081526003602052604081208054600192906114f19084906125d9565b90915550506000818152600260205260408082208054600160a060020a031916600160a060020a0386811691821790925591518493918716917fddf252ad1be2c89b69c2b068fc378daa952ba7f163c4a11628f55a4df523b3ef91a4505050565b600061155d82611298565b61157c5760405160e560020a62461bcd0281526004016106239061218f565b600061158783610c6f565b905080600160a060020a031684600160a060020a031614806115c2575083600160a060020a03166115b78461064d565b600160a060020a0316145b806115d257506115d281856110c4565b949350505050565b60006115e582610c6f565b90506115f3816000846116e9565b6115fe6000836112b9565b600160a060020a03811660009081526003602052604081208054600192906116279084906125f1565b90915550506000828152600260205260408082208054600160a060020a031916905551839190600160a060020a038416907fddf252ad1be2c89b69c2b068fc378daa952ba7f163c4a11628f55a4df523b3ef908390a45050565b61168c84848461141f565b61169884848484611772565b610e105760405160e560020a62461bcd02815260040161062390612067565b600160e060020a031981167f01ffc9a70000000000000000000000000000000000000000000000000000000014919050565b6116f483838361072c565b600160a060020a0383166117105761170b816118c5565b611733565b81600160a060020a031683600160a060020a031614611733576117338382611909565b600160a060020a03821661174f5761174a816119a6565b61072c565b82600160a060020a031682600160a060020a03161461072c5761072c8282611a88565b600061178684600160a060020a0316611acc565b156118ba5783600160a060020a031663150b7a026117a26112b5565b8786866040518563ffffffff167c01000000000000000000000000000000000000000000000000000000000281526004016117e09493929190611ef4565b602060405180830381600087803b1580156117fa57600080fd5b505af192505050801561182a575060408051601f3d908101601f1916820190925261182791810190611deb565b60015b611887573d808015611858576040519150601f19603f3d011682016040523d82523d6000602084013e61185d565b606091505b50805161187f5760405160e560020a62461bcd02815260040161062390612067565b805181602001fd5b600160e060020a0319167f150b7a02000000000000000000000000000000000000000000000000000000001490506115d2565b506001949350505050565b600880546000838152600960205260408120829055600182018355919091527ff3f7a9fe364faab93b216da50a3214154f22a0a2b415b23a84c8169e8b636ee30155565b6000600161191684610ca7565b61192091906125f1565b60008381526007602052604090205490915080821461197357600160a060020a03841660009081526006602090815260408083208584528252808320548484528184208190558352600790915290208190555b506000918252600760209081526040808420849055600160a060020a039094168352600681528383209183525290812055565b6008546000906119b8906001906125f1565b600083815260096020526040812054600880549394509092849081106119f15760e060020a634e487b7102600052603260045260246000fd5b906000526020600020015490508060088381548110611a235760e060020a634e487b7102600052603260045260246000fd5b6000918252602080832090910192909255828152600990915260408082208490558582528120556008805480611a6c5760e060020a634e487b7102600052603160045260246000fd5b6001900381819060005260206000200160009055905550505050565b6000611a9383610ca7565b600160a060020a039093166000908152600660209081526040808320868452825280832085905593825260079052919091209190915550565b3b151590565b828054611ade90612608565b90600052602060002090601f016020900481019282611b005760008555611b46565b82601f10611b1957805160ff1916838001178555611b46565b82800160010185558215611b46579182015b82811115611b46578251825591602001919060010190611b2b565b50611b52929150611b56565b5090565b5b80821115611b525760008155600101611b57565b600067ffffffffffffffff80841115611b8657611b86612674565b604051601f8501601f191681016020018281118282101715611baa57611baa612674565b604052848152915081838501861015611bc257600080fd5b8484602083013760006020868301015250509392505050565b8035600160a060020a038116811461055a57600080fd5b8035801515811461055a57600080fd5b600082601f830112611c12578081fd5b61133383833560208501611b6b565b600060208284031215611c32578081fd5b61133382611bdb565b60008060408385031215611c4d578081fd5b611c5683611bdb565b9150611c6460208401611bdb565b90509250929050565b600080600060608486031215611c81578081fd5b611c8a84611bdb565b9250611c9860208501611bdb565b9150604084013590509250925092565b60008060008060808587031215611cbd578081fd5b611cc685611bdb565b9350611cd460208601611bdb565b925060408501359150606085013567ffffffffffffffff811115611cf6578182fd5b8501601f81018713611d06578182fd5b611d1587823560208401611b6b565b91505092959194509250565b60008060408385031215611d33578182fd5b611d3c83611bdb565b9150611c6460208401611bf2565b600080600060608486031215611d5e578283fd5b611d6784611bdb565b9250602084013567ffffffffffffffff811115611d82578283fd5b611d8e86828701611c02565b925050611d9d60408501611bf2565b90509250925092565b60008060408385031215611db8578182fd5b611dc183611bdb565b946020939093013593505050565b600060208284031215611de0578081fd5b81356113338161268d565b600060208284031215611dfc578081fd5b81516113338161268d565b600060208284031215611e18578081fd5b813567ffffffffffffffff811115611e2e578182fd5b6115d284828501611c02565b60008060408385031215611e4c578182fd5b823567ffffffffffffffff811115611e62578283fd5b611e6e85828601611c02565b925050611c6460208401611bf2565b600060208284031215611e8e578081fd5b5035919050565b60008151808452815b81811015611eba57602081850181015186830182015201611e9e565b81811115611ecb5782602083870101525b50601f01601f19169290920160200192915050565b600160a060020a0391909116815260200190565b6000600160a060020a03808716835280861660208401525083604083015260806060830152611f266080830184611e95565b9695505050505050565b6020808252825182820181905260009190848201906040850190845b81811015611f71578351600160a060020a031683529284019291840191600101611f4c565b50909695505050505050565b6020808252825182820181905260009190848201906040850190845b81811015611f7157835183529284019291840191600101611f99565b901515815260200190565b6000602082526113336020830184611e95565b60208082526016908201527f4f6e6c7920617070726f76656420617274697374732e00000000000000000000604082015260600190565b6020808252602b908201527f455243373231456e756d657261626c653a206f776e657220696e646578206f7560408201527f74206f6620626f756e6473000000000000000000000000000000000000000000606082015260800190565b60208082526032908201527f4552433732313a207472616e7366657220746f206e6f6e20455243373231526560408201527f63656976657220696d706c656d656e7465720000000000000000000000000000606082015260800190565b6020808252601c908201527f4552433732313a20746f6b656e20616c7265616479206d696e74656400000000604082015260600190565b60208082526024908201527f4552433732313a207472616e7366657220746f20746865207a65726f2061646460408201527f7265737300000000000000000000000000000000000000000000000000000000606082015260800190565b60208082526019908201527f4552433732313a20617070726f766520746f2063616c6c657200000000000000604082015260600190565b6020808252602c908201527f4552433732313a206f70657261746f7220717565727920666f72206e6f6e657860408201527f697374656e7420746f6b656e0000000000000000000000000000000000000000606082015260800190565b60208082526038908201527f4552433732313a20617070726f76652063616c6c6572206973206e6f74206f7760408201527f6e6572206e6f7220617070726f76656420666f7220616c6c0000000000000000606082015260800190565b6020808252602a908201527f4552433732313a2062616c616e636520717565727920666f7220746865207a6560408201527f726f206164647265737300000000000000000000000000000000000000000000606082015260800190565b60208082526029908201527f4552433732313a206f776e657220717565727920666f72206e6f6e657869737460408201527f656e7420746f6b656e0000000000000000000000000000000000000000000000606082015260800190565b6020808252818101527f4552433732313a206d696e7420746f20746865207a65726f2061646472657373604082015260600190565b6020808252602c908201527f4552433732313a20617070726f76656420717565727920666f72206e6f6e657860408201527f697374656e7420746f6b656e0000000000000000000000000000000000000000606082015260800190565b60208082526029908201527f4552433732313a207472616e73666572206f6620746f6b656e2074686174206960408201527f73206e6f74206f776e0000000000000000000000000000000000000000000000606082015260800190565b6020808252600c908201527f4f6e6c792061646d696e732e0000000000000000000000000000000000000000604082015260600190565b60208082526021908201527f4552433732313a20617070726f76616c20746f2063757272656e74206f776e6560408201527f7200000000000000000000000000000000000000000000000000000000000000606082015260800190565b6020808252818101527f43616c6c6572206973206e6f74206f776e6572206e6f7220617070726f766564604082015260600190565b60208082526031908201527f4552433732313a207472616e736665722063616c6c6572206973206e6f74206f60408201527f776e6572206e6f7220617070726f766564000000000000000000000000000000606082015260800190565b6020808252602c908201527f455243373231456e756d657261626c653a20676c6f62616c20696e646578206f60408201527f7574206f6620626f756e64730000000000000000000000000000000000000000606082015260800190565b60208082526018908201527f546f6b656e20494420646f6573206e6f742065786973742e0000000000000000604082015260600190565b61ffff91909116815260200190565b61ffff92831681529116602082015260400190565b90815260200190565b600082198211156125ec576125ec61265b565b500190565b6000828210156126035761260361265b565b500390565b60028104600182168061261c57607f821691505b602082108114156107ec5760e060020a634e487b7102600052602260045260246000fd5b60006000198214156126545761265461265b565b5060010190565b60e060020a634e487b7102600052601160045260246000fd5b60e060020a634e487b7102600052604160045260246000fd5b600160e060020a031981168114610acb57600080fdfea2646970667358221220a111c2d4aec2bfc683555b3b3f2b1cbe537c76c301b982a3c0eaa0d1aa47712064736f6c63430008000033",
  "immutableReferences": {},
  "source": "// SPDX-License-Identifier: MIT\n\npragma solidity ^0.8.0;\n\nimport \"@openzeppelin/contracts/token/ERC721/extensions/ERC721Enumerable.sol\";\nimport \"@openzeppelin/contracts/utils/math/SafeMath.sol\";\n\ncontract ImnotArtExhibitions is ERC721Enumerable {\n    using SafeMath for uint256;\n\n    // ---\n    // Constants\n    // ---\n    uint16 constant public artistFirstSaleBps = 6500; // 65% of First Sale\n    uint16 constant public artistSecondarySaleBps = 500; // 5% of Secondary Sale\n    uint16 constant public imnotArtSecondarySaleBps = 250; // 2.5% of Secondary Sale\n\n    // ---\n    // Properties\n    // ---\n    uint256 public nextTokenId = 1;\n    address public imnotArtPayoutAddress;\n    address public marketplaceAddress;\n    string private _contractUri;\n\n    // ---\n    // Structs\n    // ---\n\n    /* Only need Artist BPS, as remainder would be given to imnotArt after Artist is paid */\n    struct TokenBps {\n        uint16 artistFirstSaleBps;\n        uint16 artistSecondarySaleBps;\n    }\n\n    // ---\n    // Events\n    // ---\n    event PermanentURI(string _value, uint256 indexed _id); // OpenSea Freezing Metadata\n\n    // ---\n    // Security\n    // ---\n    mapping(address => bool) private _isAdmin;\n    mapping(address => bool) private _isArtist;\n\n    modifier onlyAdmin() {\n        require(_isAdmin[msg.sender], \"Only admins.\");\n        _;\n    }\n\n    modifier onlyArtist() {\n        require(_isArtist[msg.sender], \"Only approved artists.\");\n        _;\n    }\n\n    modifier onlyValidTokenId(uint256 tokenId) {\n        require(_exists(tokenId), \"Token ID does not exist.\");\n        _;\n    }\n\n    // ---\n    // Mappings\n    // ---\n    mapping(uint256 => string) private _metadataByTokenId;\n    mapping(uint256 => address) public artistByTokenId;\n    mapping(uint256 => TokenBps) public tokenBpsByTokenId;\n\n    // ---\n    // Constructor\n    // ---\n    constructor() ERC721(\"imnotArt Exhibitions\", \"IMNOTART\") {\n        _isAdmin[msg.sender] = true;\n        // @TODO(iolson): Set initial Contract URI\n    }\n\n    // ---\n    // Minting\n    // ---\n    function mintToken(address artistAddress, string memory metadataUri, bool transferToMarketplaceContract) public onlyAdmin returns (uint256 tokenId) {\n        tokenId = nextTokenId;\n        nextTokenId = nextTokenId.add(1);\n\n        _mint(artistAddress, tokenId);\n        artistByTokenId[tokenId] = artistAddress;\n\n        _metadataByTokenId[tokenId] = metadataUri;\n        emit PermanentURI(metadataUri, tokenId);\n\n        TokenBps memory tokenBps = TokenBps({\n            artistFirstSaleBps: artistFirstSaleBps,\n            artistSecondarySaleBps: artistSecondarySaleBps\n        });\n        tokenBpsByTokenId[tokenId] = tokenBps;\n\n        if (transferToMarketplaceContract) {\n            _transfer(artistAddress, marketplaceAddress, tokenId);\n        }\n    }\n\n    function artistMintToken(string memory metadataUri, bool transferToMarketplaceContract) public onlyArtist returns (uint256 tokenId) {\n        tokenId = nextTokenId;\n        nextTokenId = nextTokenId.add(1);\n\n        _mint(msg.sender, tokenId);\n        artistByTokenId[tokenId] = msg.sender;\n\n        _metadataByTokenId[tokenId] = metadataUri;\n        emit PermanentURI(metadataUri, tokenId);\n\n        TokenBps memory tokenBps = TokenBps({\n            artistFirstSaleBps: artistFirstSaleBps,\n            artistSecondarySaleBps: artistSecondarySaleBps\n        });\n        tokenBpsByTokenId[tokenId] = tokenBps;\n\n        if (transferToMarketplaceContract) {\n            _transfer(msg.sender, marketplaceAddress, tokenId);\n        }\n    }\n\n    // ---\n    // Burning\n    // ---\n    function burn(uint256 tokenId) public virtual {\n        //solhint-disable-next-line max-line-length\n        require(_isApprovedOrOwner(_msgSender(), tokenId), \"Caller is not owner nor approved\");\n        _burn(tokenId);\n    }\n\n    // ---\n    // Contract Updates\n    // ---\n    function updateImnotArtPayoutAddress(address newPayoutAddress) public onlyAdmin {\n        imnotArtPayoutAddress = newPayoutAddress;\n    }\n\n    function updateMarketplaceAddress(address newMarketplaceAddress) public onlyAdmin {\n        marketplaceAddress = newMarketplaceAddress;\n    }\n\n    function updateContractUri(string memory newContractUri) public onlyAdmin {\n        _contractUri = newContractUri;\n    }\n\n    function addAdmin(address newAdminAddress) public onlyAdmin {\n        _isAdmin[newAdminAddress] = true;\n    }\n\n    function removeAdmin(address removeAdminAddress) public onlyAdmin {\n        _isAdmin[removeAdminAddress] = true;\n    }\n\n    function addApprovedArtist(address newArtistAddress) public onlyAdmin {\n        _isArtist[newArtistAddress] = true;\n    }\n\n    function removeApprovedArtist(address removeArtistAddress) public onlyAdmin {\n        _isArtist[removeArtistAddress] = false;\n    }\n\n    // ---\n    // Metadata\n    // ---\n    function tokenURI(uint256 tokenId) public view override virtual onlyValidTokenId(tokenId) returns (string memory) {\n        return _metadataByTokenId[tokenId];\n    }\n\n    // ---\n    // Contract Retrieve Functions\n    // ---\n    function getTokensOfOwner(address owner) public view returns (uint256[] memory tokenIds) {\n        uint256 tokenCount = balanceOf(owner);\n\n        if (tokenCount == 0) {\n            tokenIds = new uint256[](0);\n        } else {\n            tokenIds = new uint256[](tokenCount);\n            uint256 index;\n            for (index = 0; index < tokenCount; index++) {\n                tokenIds[index] = tokenOfOwnerByIndex(owner, index);\n            }\n        }\n\n        return tokenIds;\n    }\n\n    // ---\n    // Secondary Marketplace Functions\n    // ---\n\n    /* OpenSea */\n    function contractURI() public view virtual returns (string memory) {\n        return _contractUri;\n    }\n    \n    /* Rarible */\n    function getFeeRecipients(uint256 tokenId) public view onlyValidTokenId(tokenId) returns (address payable[] memory) {\n        address payable[] memory recipients = new address payable[](2);\n        recipients[0] = payable(artistByTokenId[tokenId]);\n        recipients[1] = payable(imnotArtPayoutAddress);\n        return recipients;\n    }\n\n    function getFeeBps(uint256 tokenId) public view onlyValidTokenId(tokenId) returns (uint[] memory) {\n        uint256[] memory feeBps = new uint[](2);\n        feeBps[0] = uint(artistSecondarySaleBps);\n        feeBps[1] = uint(imnotArtSecondarySaleBps);\n        return feeBps;\n    }\n}",
  "sourcePath": "/Users/ianolson/code/imnotart-exhibitions/contracts/ImnotArtExhibitions.sol",
  "compiler": {
    "name": "solc",
    "version": "0.8.0+commit.c7dfd78e.Emscripten.clang"
  },
  "schemaVersion": "3.3.4",
  "updatedAt": "2021-07-30T00:42:45.335Z",
  "devdoc": {
    "kind": "dev",
    "methods": {
      "approve(address,uint256)": {
        "details": "See {IERC721-approve}."
      },
      "balanceOf(address)": {
        "details": "See {IERC721-balanceOf}."
      },
      "getApproved(uint256)": {
        "details": "See {IERC721-getApproved}."
      },
      "isApprovedForAll(address,address)": {
        "details": "See {IERC721-isApprovedForAll}."
      },
      "name()": {
        "details": "See {IERC721Metadata-name}."
      },
      "ownerOf(uint256)": {
        "details": "See {IERC721-ownerOf}."
      },
      "safeTransferFrom(address,address,uint256)": {
        "details": "See {IERC721-safeTransferFrom}."
      },
      "safeTransferFrom(address,address,uint256,bytes)": {
        "details": "See {IERC721-safeTransferFrom}."
      },
      "setApprovalForAll(address,bool)": {
        "details": "See {IERC721-setApprovalForAll}."
      },
      "supportsInterface(bytes4)": {
        "details": "See {IERC165-supportsInterface}."
      },
      "symbol()": {
        "details": "See {IERC721Metadata-symbol}."
      },
      "tokenByIndex(uint256)": {
        "details": "See {IERC721Enumerable-tokenByIndex}."
      },
      "tokenOfOwnerByIndex(address,uint256)": {
        "details": "See {IERC721Enumerable-tokenOfOwnerByIndex}."
      },
      "tokenURI(uint256)": {
        "details": "See {IERC721Metadata-tokenURI}."
      },
      "totalSupply()": {
        "details": "See {IERC721Enumerable-totalSupply}."
      },
      "transferFrom(address,address,uint256)": {
        "details": "See {IERC721-transferFrom}."
      }
    },
    "version": 1
  },
  "userdoc": {
    "kind": "user",
    "methods": {},
    "version": 1
  }
}