{
  "contractName": "ImnotArtExhibitions",
  "abi": [
    {
      "inputs": [],
      "stateMutability": "nonpayable",
      "type": "constructor"
    },
    {
      "anonymous": false,
      "inputs": [
        {
          "indexed": true,
          "internalType": "address",
          "name": "owner",
          "type": "address"
        },
        {
          "indexed": true,
          "internalType": "address",
          "name": "approved",
          "type": "address"
        },
        {
          "indexed": true,
          "internalType": "uint256",
          "name": "tokenId",
          "type": "uint256"
        }
      ],
      "name": "Approval",
      "type": "event"
    },
    {
      "anonymous": false,
      "inputs": [
        {
          "indexed": true,
          "internalType": "address",
          "name": "owner",
          "type": "address"
        },
        {
          "indexed": true,
          "internalType": "address",
          "name": "operator",
          "type": "address"
        },
        {
          "indexed": false,
          "internalType": "bool",
          "name": "approved",
          "type": "bool"
        }
      ],
      "name": "ApprovalForAll",
      "type": "event"
    },
    {
      "anonymous": false,
      "inputs": [
        {
          "indexed": true,
          "internalType": "address",
          "name": "previousOwner",
          "type": "address"
        },
        {
          "indexed": true,
          "internalType": "address",
          "name": "newOwner",
          "type": "address"
        }
      ],
      "name": "OwnershipTransferred",
      "type": "event"
    },
    {
      "anonymous": false,
      "inputs": [
        {
          "indexed": false,
          "internalType": "string",
          "name": "_value",
          "type": "string"
        },
        {
          "indexed": true,
          "internalType": "uint256",
          "name": "_id",
          "type": "uint256"
        }
      ],
      "name": "PermanentURI",
      "type": "event"
    },
    {
      "anonymous": false,
      "inputs": [
        {
          "indexed": false,
          "internalType": "uint256",
          "name": "tokenId",
          "type": "uint256"
        },
        {
          "components": [
            {
              "internalType": "address payable",
              "name": "account",
              "type": "address"
            },
            {
              "internalType": "uint96",
              "name": "value",
              "type": "uint96"
            }
          ],
          "indexed": false,
          "internalType": "struct LibPart.Part[]",
          "name": "royalties",
          "type": "tuple[]"
        }
      ],
      "name": "RoyaltiesSet",
      "type": "event"
    },
    {
      "anonymous": false,
      "inputs": [
        {
          "indexed": true,
          "internalType": "address",
          "name": "from",
          "type": "address"
        },
        {
          "indexed": true,
          "internalType": "address",
          "name": "to",
          "type": "address"
        },
        {
          "indexed": true,
          "internalType": "uint256",
          "name": "tokenId",
          "type": "uint256"
        }
      ],
      "name": "Transfer",
      "type": "event"
    },
    {
      "inputs": [
        {
          "internalType": "address",
          "name": "to",
          "type": "address"
        },
        {
          "internalType": "uint256",
          "name": "tokenId",
          "type": "uint256"
        }
      ],
      "name": "approve",
      "outputs": [],
      "stateMutability": "nonpayable",
      "type": "function"
    },
    {
      "inputs": [
        {
          "internalType": "uint256",
          "name": "",
          "type": "uint256"
        }
      ],
      "name": "artistByTokenId",
      "outputs": [
        {
          "internalType": "address",
          "name": "",
          "type": "address"
        }
      ],
      "stateMutability": "view",
      "type": "function"
    },
    {
      "inputs": [],
      "name": "artistFirstSaleBps",
      "outputs": [
        {
          "internalType": "uint16",
          "name": "",
          "type": "uint16"
        }
      ],
      "stateMutability": "view",
      "type": "function"
    },
    {
      "inputs": [],
      "name": "artistSecondarySaleBps",
      "outputs": [
        {
          "internalType": "uint16",
          "name": "",
          "type": "uint16"
        }
      ],
      "stateMutability": "view",
      "type": "function"
    },
    {
      "inputs": [
        {
          "internalType": "address",
          "name": "owner",
          "type": "address"
        }
      ],
      "name": "balanceOf",
      "outputs": [
        {
          "internalType": "uint256",
          "name": "",
          "type": "uint256"
        }
      ],
      "stateMutability": "view",
      "type": "function"
    },
    {
      "inputs": [
        {
          "internalType": "uint256",
          "name": "tokenId",
          "type": "uint256"
        }
      ],
      "name": "getApproved",
      "outputs": [
        {
          "internalType": "address",
          "name": "",
          "type": "address"
        }
      ],
      "stateMutability": "view",
      "type": "function"
    },
    {
      "inputs": [],
      "name": "imnotArtPayoutAddress",
      "outputs": [
        {
          "internalType": "address",
          "name": "",
          "type": "address"
        }
      ],
      "stateMutability": "view",
      "type": "function"
    },
    {
      "inputs": [],
      "name": "imnotArtSecondarySaleBps",
      "outputs": [
        {
          "internalType": "uint16",
          "name": "",
          "type": "uint16"
        }
      ],
      "stateMutability": "view",
      "type": "function"
    },
    {
      "inputs": [
        {
          "internalType": "address",
          "name": "owner",
          "type": "address"
        },
        {
          "internalType": "address",
          "name": "operator",
          "type": "address"
        }
      ],
      "name": "isApprovedForAll",
      "outputs": [
        {
          "internalType": "bool",
          "name": "",
          "type": "bool"
        }
      ],
      "stateMutability": "view",
      "type": "function"
    },
    {
      "inputs": [],
      "name": "name",
      "outputs": [
        {
          "internalType": "string",
          "name": "",
          "type": "string"
        }
      ],
      "stateMutability": "view",
      "type": "function"
    },
    {
      "inputs": [],
      "name": "nextTokenId",
      "outputs": [
        {
          "internalType": "uint256",
          "name": "",
          "type": "uint256"
        }
      ],
      "stateMutability": "view",
      "type": "function"
    },
    {
      "inputs": [],
      "name": "owner",
      "outputs": [
        {
          "internalType": "address",
          "name": "",
          "type": "address"
        }
      ],
      "stateMutability": "view",
      "type": "function"
    },
    {
      "inputs": [
        {
          "internalType": "uint256",
          "name": "tokenId",
          "type": "uint256"
        }
      ],
      "name": "ownerOf",
      "outputs": [
        {
          "internalType": "address",
          "name": "",
          "type": "address"
        }
      ],
      "stateMutability": "view",
      "type": "function"
    },
    {
      "inputs": [],
      "name": "renounceOwnership",
      "outputs": [],
      "stateMutability": "nonpayable",
      "type": "function"
    },
    {
      "inputs": [
        {
          "internalType": "address",
          "name": "",
          "type": "address"
        }
      ],
      "name": "royaltyContractByArtistAddress",
      "outputs": [
        {
          "internalType": "address",
          "name": "",
          "type": "address"
        }
      ],
      "stateMutability": "view",
      "type": "function"
    },
    {
      "inputs": [
        {
          "internalType": "address",
          "name": "from",
          "type": "address"
        },
        {
          "internalType": "address",
          "name": "to",
          "type": "address"
        },
        {
          "internalType": "uint256",
          "name": "tokenId",
          "type": "uint256"
        }
      ],
      "name": "safeTransferFrom",
      "outputs": [],
      "stateMutability": "nonpayable",
      "type": "function"
    },
    {
      "inputs": [
        {
          "internalType": "address",
          "name": "from",
          "type": "address"
        },
        {
          "internalType": "address",
          "name": "to",
          "type": "address"
        },
        {
          "internalType": "uint256",
          "name": "tokenId",
          "type": "uint256"
        },
        {
          "internalType": "bytes",
          "name": "_data",
          "type": "bytes"
        }
      ],
      "name": "safeTransferFrom",
      "outputs": [],
      "stateMutability": "nonpayable",
      "type": "function"
    },
    {
      "inputs": [
        {
          "internalType": "address",
          "name": "operator",
          "type": "address"
        },
        {
          "internalType": "bool",
          "name": "approved",
          "type": "bool"
        }
      ],
      "name": "setApprovalForAll",
      "outputs": [],
      "stateMutability": "nonpayable",
      "type": "function"
    },
    {
      "inputs": [],
      "name": "symbol",
      "outputs": [
        {
          "internalType": "string",
          "name": "",
          "type": "string"
        }
      ],
      "stateMutability": "view",
      "type": "function"
    },
    {
      "inputs": [
        {
          "internalType": "uint256",
          "name": "",
          "type": "uint256"
        }
      ],
      "name": "tokenBpsByTokenId",
      "outputs": [
        {
          "internalType": "uint16",
          "name": "artistFirstSaleBps",
          "type": "uint16"
        },
        {
          "internalType": "uint16",
          "name": "artistSecondarySaleBps",
          "type": "uint16"
        }
      ],
      "stateMutability": "view",
      "type": "function"
    },
    {
      "inputs": [
        {
          "internalType": "uint256",
          "name": "index",
          "type": "uint256"
        }
      ],
      "name": "tokenByIndex",
      "outputs": [
        {
          "internalType": "uint256",
          "name": "",
          "type": "uint256"
        }
      ],
      "stateMutability": "view",
      "type": "function"
    },
    {
      "inputs": [
        {
          "internalType": "address",
          "name": "owner",
          "type": "address"
        },
        {
          "internalType": "uint256",
          "name": "index",
          "type": "uint256"
        }
      ],
      "name": "tokenOfOwnerByIndex",
      "outputs": [
        {
          "internalType": "uint256",
          "name": "",
          "type": "uint256"
        }
      ],
      "stateMutability": "view",
      "type": "function"
    },
    {
      "inputs": [],
      "name": "totalSupply",
      "outputs": [
        {
          "internalType": "uint256",
          "name": "",
          "type": "uint256"
        }
      ],
      "stateMutability": "view",
      "type": "function"
    },
    {
      "inputs": [
        {
          "internalType": "address",
          "name": "from",
          "type": "address"
        },
        {
          "internalType": "address",
          "name": "to",
          "type": "address"
        },
        {
          "internalType": "uint256",
          "name": "tokenId",
          "type": "uint256"
        }
      ],
      "name": "transferFrom",
      "outputs": [],
      "stateMutability": "nonpayable",
      "type": "function"
    },
    {
      "inputs": [
        {
          "internalType": "address",
          "name": "newOwner",
          "type": "address"
        }
      ],
      "name": "transferOwnership",
      "outputs": [],
      "stateMutability": "nonpayable",
      "type": "function"
    },
    {
      "inputs": [],
      "name": "useRoyaltyContracts",
      "outputs": [
        {
          "internalType": "bool",
          "name": "",
          "type": "bool"
        }
      ],
      "stateMutability": "view",
      "type": "function"
    },
    {
      "inputs": [
        {
          "internalType": "bytes4",
          "name": "interfaceId",
          "type": "bytes4"
        }
      ],
      "name": "supportsInterface",
      "outputs": [
        {
          "internalType": "bool",
          "name": "",
          "type": "bool"
        }
      ],
      "stateMutability": "view",
      "type": "function"
    },
    {
      "inputs": [
        {
          "internalType": "address",
          "name": "artistAddress",
          "type": "address"
        },
        {
          "internalType": "string",
          "name": "metadataUri",
          "type": "string"
        }
      ],
      "name": "mintToken",
      "outputs": [
        {
          "internalType": "uint256",
          "name": "tokenId",
          "type": "uint256"
        }
      ],
      "stateMutability": "nonpayable",
      "type": "function"
    },
    {
      "inputs": [
        {
          "internalType": "string",
          "name": "metadataUri",
          "type": "string"
        }
      ],
      "name": "artistMintToken",
      "outputs": [
        {
          "internalType": "uint256",
          "name": "tokenId",
          "type": "uint256"
        }
      ],
      "stateMutability": "nonpayable",
      "type": "function"
    },
    {
      "inputs": [
        {
          "internalType": "uint256",
          "name": "tokenId",
          "type": "uint256"
        }
      ],
      "name": "burn",
      "outputs": [],
      "stateMutability": "nonpayable",
      "type": "function"
    },
    {
      "inputs": [
        {
          "internalType": "address",
          "name": "newPayoutAddress",
          "type": "address"
        }
      ],
      "name": "updateImnotArtPayoutAddress",
      "outputs": [],
      "stateMutability": "nonpayable",
      "type": "function"
    },
    {
      "inputs": [
        {
          "internalType": "string",
          "name": "newContractUri",
          "type": "string"
        }
      ],
      "name": "updateContractUri",
      "outputs": [],
      "stateMutability": "nonpayable",
      "type": "function"
    },
    {
      "inputs": [
        {
          "internalType": "uint256",
          "name": "tokenId",
          "type": "uint256"
        },
        {
          "internalType": "string",
          "name": "metadataUri",
          "type": "string"
        },
        {
          "internalType": "bool",
          "name": "permanent",
          "type": "bool"
        }
      ],
      "name": "updateTokenMetadata",
      "outputs": [],
      "stateMutability": "nonpayable",
      "type": "function"
    },
    {
      "inputs": [
        {
          "internalType": "address",
          "name": "newAdminAddress",
          "type": "address"
        }
      ],
      "name": "addAdmin",
      "outputs": [],
      "stateMutability": "nonpayable",
      "type": "function"
    },
    {
      "inputs": [
        {
          "internalType": "address",
          "name": "removeAdminAddress",
          "type": "address"
        }
      ],
      "name": "removeAdmin",
      "outputs": [],
      "stateMutability": "nonpayable",
      "type": "function"
    },
    {
      "inputs": [
        {
          "internalType": "address",
          "name": "newArtistAddress",
          "type": "address"
        }
      ],
      "name": "addApprovedArtist",
      "outputs": [],
      "stateMutability": "nonpayable",
      "type": "function"
    },
    {
      "inputs": [
        {
          "internalType": "address",
          "name": "removeArtistAddress",
          "type": "address"
        }
      ],
      "name": "removeApprovedArtist",
      "outputs": [],
      "stateMutability": "nonpayable",
      "type": "function"
    },
    {
      "inputs": [],
      "name": "toggleUseRoyaltyContracts",
      "outputs": [],
      "stateMutability": "nonpayable",
      "type": "function"
    },
    {
      "inputs": [
        {
          "internalType": "address",
          "name": "artistAddress",
          "type": "address"
        },
        {
          "internalType": "address",
          "name": "royaltyContractAddress",
          "type": "address"
        }
      ],
      "name": "addRoyaltyContractAddress",
      "outputs": [],
      "stateMutability": "nonpayable",
      "type": "function"
    },
    {
      "inputs": [
        {
          "internalType": "uint256",
          "name": "tokenId",
          "type": "uint256"
        }
      ],
      "name": "tokenURI",
      "outputs": [
        {
          "internalType": "string",
          "name": "",
          "type": "string"
        }
      ],
      "stateMutability": "view",
      "type": "function"
    },
    {
      "inputs": [
        {
          "internalType": "address",
          "name": "_owner",
          "type": "address"
        }
      ],
      "name": "getTokensOfOwner",
      "outputs": [
        {
          "internalType": "uint256[]",
          "name": "tokenIds",
          "type": "uint256[]"
        }
      ],
      "stateMutability": "view",
      "type": "function"
    },
    {
      "inputs": [],
      "name": "contractURI",
      "outputs": [
        {
          "internalType": "string",
          "name": "",
          "type": "string"
        }
      ],
      "stateMutability": "view",
      "type": "function"
    },
    {
      "inputs": [
        {
          "internalType": "uint256",
          "name": "tokenId",
          "type": "uint256"
        }
      ],
      "name": "getRaribleV2Royalties",
      "outputs": [
        {
          "components": [
            {
              "internalType": "address payable",
              "name": "account",
              "type": "address"
            },
            {
              "internalType": "uint96",
              "name": "value",
              "type": "uint96"
            }
          ],
          "internalType": "struct LibPart.Part[]",
          "name": "",
          "type": "tuple[]"
        }
      ],
      "stateMutability": "view",
      "type": "function"
    },
    {
      "inputs": [
        {
          "internalType": "uint256",
          "name": "tokenId",
          "type": "uint256"
        },
        {
          "internalType": "uint256",
          "name": "salePrice",
          "type": "uint256"
        }
      ],
      "name": "royaltyInfo",
      "outputs": [
        {
          "internalType": "address",
          "name": "receiver",
          "type": "address"
        },
        {
          "internalType": "uint256",
          "name": "amount",
          "type": "uint256"
        }
      ],
      "stateMutability": "view",
      "type": "function"
    }
  ],
  "bytecode": "0x60806040526001600b553480156200001657600080fd5b5060408051808201825260208082527f546865204e6577204469676974616c3a20426f726e20696e204368696361676f818301528251808401909352601383527f494d4e4f5441525445584849424954494f4e31000000000000000000000000009083015290620000a262000093640100000000620000fc810204565b64010000000062000100810204565b8151620000b790600190602085019062000150565b508051620000cd90600290602084019062000150565b5050336000908152600f60205260409020805460ff19908116600117909155600e80549091169055506200024c565b3390565b60008054600160a060020a03838116600160a060020a0319831681178455604051919092169283917f8be0079c531659141344cd1fd0a4f28419497f9722a3daafe3b4186f6b6457e09190a35050565b8280546200015e90620001f6565b90600052602060002090601f016020900481019282620001825760008555620001cd565b82601f106200019d57805160ff1916838001178555620001cd565b82800160010185558215620001cd579182015b82811115620001cd578251825591602001919060010190620001b0565b50620001db929150620001df565b5090565b5b80821115620001db5760008155600101620001e0565b6002810460018216806200020b57607f821691505b6020821081141562000246577f4e487b7100000000000000000000000000000000000000000000000000000000600052602260045260246000fd5b50919050565b612ca0806200025c6000396000f3fe608060405234801561001057600080fd5b5060043610610291576000357c0100000000000000000000000000000000000000000000000000000000900480636352211e1161016e578063a22cb465116100e0578063cf1e9239116100a4578063cf1e923914610550578063e5a727b714610563578063e8a3d48514610584578063e9482cc61461058c578063e985e9c514610594578063f2fde38b146105a757610291565b8063a22cb465146104ef578063b88d4fde14610502578063c34a2a3a14610515578063c87b56dd1461051d578063cad96cca1461053057610291565b8063753cd9cf11610132578063753cd9cf146104a957806375794a3c146104bc57806378fd2ed6146104c45780638258337d146104d75780638da5cb5b146104df57806395d89b41146104e757610291565b80636352211e146104685780636b7ad5c01461047b578063704802751461031c57806370a082311461048e578063715018a6146104a157610291565b8063390e26e71161020757806342966c68116101cb57806342966c68146103e957806347c8ff5e146103fc5780634f6ccce71461040f57806350ff2d5b146104225780635de6dc5514610435578063618793221461045557610291565b8063390e26e7146103a05780633d02d0c9146103a85780633dd2fdff146103bb57806340c38035146103c357806342842e0e146103d657610291565b80631785f53c116102595780631785f53c1461031c57806318160ddd1461032f57806323b872dd146103445780632a55205a146103575780632cf0ffbe146103785780632f745c591461038d57610291565b806301ffc9a71461029657806306fdde03146102bf578063072e839e146102d4578063081812fc146102e9578063095ea7b314610309575b600080fd5b6102a96102a436600461224f565b6105ba565b6040516102b691906124a6565b60405180910390f35b6102c7610704565b6040516102b691906124b1565b6102e76102e23660046120b1565b610796565b005b6102fc6102f73660046122ba565b6107f2565b6040516102b69190612393565b6102e7610317366004612226565b610838565b6102e761032a3660046120b1565b6108d6565b61033761092c565b6040516102b69190612b55565b6102e76103523660046120fd565b610932565b61036a610365366004612327565b61096d565b6040516102b69291906123e3565b610380610a39565b6040516102b69190612b31565b61033761039b366004612226565b610a3f565b6102a9610a94565b6103376103b63660046121da565b610a9d565b610380610bba565b6102e76103d13660046120b1565b610bbf565b6102e76103e43660046120fd565b610c15565b6102e76103f73660046122ba565b610c30565b6102e761040a366004612287565b610c98565b61033761041d3660046122ba565b610ce1565b6102fc6104303660046122ba565b610d42565b6104486104433660046120b1565b610d5d565b6040516102b69190612462565b610337610463366004612287565b610e3a565b6102fc6104763660046122ba565b610f4d565b6102e76104893660046122d2565b610f85565b61033761049c3660046120b1565b611055565b6102e761109c565b6102e76104b73660046120cb565b6110ea565b61033761114a565b6102fc6104d23660046120b1565b611150565b6102e761116b565b6102fc6111b1565b6102c76111c0565b6102e76104fd3660046121b1565b6111cf565b6102e7610510366004612138565b6112a0565b6102fc6112dc565b6102c761052b3660046122ba565b6112eb565b61054361053e3660046122ba565b6113b5565b6040516102b691906123fc565b6102e761055e3660046120b1565b6114ce565b6105766105713660046122ba565b611522565b6040516102b6929190612b40565b6102c7611542565b610380611551565b6102a96105a23660046120cb565b611557565b6102e76105b53660046120b1565b611585565b6000600160e060020a031982167f01ffc9a700000000000000000000000000000000000000000000000000000000148061061d5750600160e060020a031982167fcad96cca00000000000000000000000000000000000000000000000000000000145b806106515750600160e060020a031982167f80ac58cd00000000000000000000000000000000000000000000000000000000145b806106855750600160e060020a031982167f5b5e139f00000000000000000000000000000000000000000000000000000000145b806106b95750600160e060020a031982167f780e9d6300000000000000000000000000000000000000000000000000000000145b806106ed5750600160e060020a031982167f2a55205a00000000000000000000000000000000000000000000000000000000145b806106fc57506106fc826115f9565b90505b919050565b60606001805461071390612bcf565b80601f016020809104026020016040519081016040528092919081815260200182805461073f90612bcf565b801561078c5780601f106107615761010080835404028352916020019161078c565b820191906000526020600020905b81548152906001019060200180831161076f57829003601f168201915b5050505050905090565b336000908152600f602052604090205460ff166107d15760405160e560020a62461bcd0281526004016107c890612975565b60405180910390fd5b600160a060020a03166000908152601060205260409020805460ff19169055565b60006107fd82611637565b61081c5760405160e560020a62461bcd0281526004016107c890612886565b50600090815260056020526040902054600160a060020a031690565b600061084382610f4d565b905080600160a060020a031683600160a060020a0316141561087a5760405160e560020a62461bcd0281526004016107c8906129ac565b80600160a060020a031661088c611654565b600160a060020a031614806108a857506108a8816105a2611654565b6108c75760405160e560020a62461bcd0281526004016107c89061273a565b6108d18383611658565b505050565b336000908152600f602052604090205460ff166109085760405160e560020a62461bcd0281526004016107c890612975565b600160a060020a03166000908152600f60205260409020805460ff19166001179055565b60095490565b61094361093d611654565b826116c6565b6109625760405160e560020a62461bcd0281526004016107c890612a09565b6108d183838361174e565b6000808361097a81611637565b6109995760405160e560020a62461bcd0281526004016107c890612ac3565b600085815260126020526040812054600160a060020a0316906109bf6101f460fa611881565b905060006109d86109d08884611894565b6127106118a0565b600c54600e54919250600160a060020a03169060ff1615610a105750600160a060020a03808416600090815260146020526040902054165b600160a060020a038116610a2c5750600c54600160a060020a03165b9890975095505050505050565b6101f481565b6000610a4a83611055565b8210610a6b5760405160e560020a62461bcd0281526004016107c8906124fb565b50600160a060020a03919091166000908152600760209081526040808320938352929052205490565b600e5460ff1681565b336000908152600f602052604081205460ff16610acf5760405160e560020a62461bcd0281526004016107c890612975565b50600b54610ade816001611881565b600b55610aeb83826118ac565b60008181526012602090815260408083208054600160a060020a031916600160a060020a038816179055601182529091208351610b2a92850190611f4b565b50807fa109ba539900bf1b633f956d63c96fc89b814c7287f7aa50a9216d0b5565720783604051610b5b91906124b1565b60405180910390a260408051808201825261196481526101f46020808301918252600085815260139091529290922090518154925161ffff1990931661ffff9182161763ffff0000191662010000919093160291909117905592915050565b60fa81565b336000908152600f602052604090205460ff16610bf15760405160e560020a62461bcd0281526004016107c890612975565b600160a060020a03166000908152601060205260409020805460ff19166001179055565b6108d1838383604051806020016040528060008152506112a0565b3360009081526010602052604090205460ff16610c625760405160e560020a62461bcd0281526004016107c8906124c4565b610c6d61093d611654565b610c8c5760405160e560020a62461bcd0281526004016107c890612afa565b610c9581611991565b50565b336000908152600f602052604090205460ff16610cca5760405160e560020a62461bcd0281526004016107c890612975565b8051610cdd90600d906020840190611f4b565b5050565b6000610ceb61092c565b8210610d0c5760405160e560020a62461bcd0281526004016107c890612a66565b60098281548110610d305760e060020a634e487b7102600052603260045260246000fd5b90600052602060002001549050919050565b601260205260009081526040902054600160a060020a031681565b60606000610d6a83611055565b905080610d87576040805160008152602081019091529150610e34565b8067ffffffffffffffff811115610db15760e060020a634e487b7102600052604160045260246000fd5b604051908082528060200260200182016040528015610dda578160200160208202803683370190505b50915060005b81811015610e3257610df28482610a3f565b838281518110610e155760e060020a634e487b7102600052603260045260246000fd5b602090810291909101015280610e2a81612c07565b915050610de0565b505b50919050565b3360009081526010602052604081205460ff16610e6c5760405160e560020a62461bcd0281526004016107c8906124c4565b50600b54610e7b816001611881565b600b55610e8833826118ac565b60008181526012602090815260408083208054600160a060020a03191633179055601182529091208351610ebe92850190611f4b565b50807fa109ba539900bf1b633f956d63c96fc89b814c7287f7aa50a9216d0b5565720783604051610eef91906124b1565b60405180910390a260408051808201825261196481526101f46020808301918252600085815260139091529290922090518154925161ffff1990931661ffff9182161763ffff00001916620100009190931602919091179055919050565b600081815260036020526040812054600160a060020a0316806106fc5760405160e560020a62461bcd0281526004016107c8906127f4565b610f8d611654565b600160a060020a0316610f9e6111b1565b600160a060020a031614610fc75760405160e560020a62461bcd0281526004016107c8906128e3565b82610fd181611637565b610ff05760405160e560020a62461bcd0281526004016107c890612ac3565b6000848152601160209081526040909120845161100f92860190611f4b565b50811561104f57837fa109ba539900bf1b633f956d63c96fc89b814c7287f7aa50a9216d0b556572078460405161104691906124b1565b60405180910390a25b50505050565b6000600160a060020a0382166110805760405160e560020a62461bcd0281526004016107c890612797565b50600160a060020a031660009081526004602052604090205490565b6110a4611654565b600160a060020a03166110b56111b1565b600160a060020a0316146110de5760405160e560020a62461bcd0281526004016107c8906128e3565b6110e86000611a38565b565b336000908152600f602052604090205460ff1661111c5760405160e560020a62461bcd0281526004016107c890612975565b600160a060020a0391821660009081526014602052604090208054600160a060020a03191691909216179055565b600b5481565b601460205260009081526040902054600160a060020a031681565b336000908152600f602052604090205460ff1661119d5760405160e560020a62461bcd0281526004016107c890612975565b600e805460ff19811660ff90911615179055565b600054600160a060020a031690565b60606002805461071390612bcf565b6111d7611654565b600160a060020a031682600160a060020a0316141561120b5760405160e560020a62461bcd0281526004016107c8906126a6565b8060066000611218611654565b600160a060020a03908116825260208083019390935260409182016000908120918716808252919093529120805460ff19169215159290921790915561125c611654565b600160a060020a03167f17307eab39ab6107e8899845ad3d59bd9653f200f220920489ca2b5937696c318360405161129491906124a6565b60405180910390a35050565b6112b16112ab611654565b836116c6565b6112d05760405160e560020a62461bcd0281526004016107c890612a09565b61104f84848484611a88565b600c54600160a060020a031681565b6060816112f781611637565b6113165760405160e560020a62461bcd0281526004016107c890612ac3565b6000838152601160205260409020805461132f90612bcf565b80601f016020809104026020016040519081016040528092919081815260200182805461135b90612bcf565b80156113a85780601f1061137d576101008083540402835291602001916113a8565b820191906000526020600020905b81548152906001019060200180831161138b57829003601f168201915b5050505050915050919050565b6060816113c181611637565b6113e05760405160e560020a62461bcd0281526004016107c890612ac3565b60408051600280825260608201909252600091816020015b611400611fcf565b8152602001906001900390816113f857505060408051808201825260008781526012602090815292812054600160a060020a031682526101f4928201929092528251929350918391906114665760e060020a634e487b7102600052603260045260246000fd5b60209081029190910181019190915260408051808201909152600c54600160a060020a0316815260fa918101919091528151829060019081106114bc5760e060020a634e487b7102600052603260045260246000fd5b60209081029190910101529392505050565b336000908152600f602052604090205460ff166115005760405160e560020a62461bcd0281526004016107c890612975565b600c8054600160a060020a031916600160a060020a0392909216919091179055565b60136020526000908152604090205461ffff808216916201000090041682565b6060600d805461071390612bcf565b61196481565b600160a060020a03918216600090815260066020908152604080832093909416825291909152205460ff1690565b61158d611654565b600160a060020a031661159e6111b1565b600160a060020a0316146115c75760405160e560020a62461bcd0281526004016107c8906128e3565b600160a060020a0381166115f05760405160e560020a62461bcd0281526004016107c8906125b5565b610c9581611a38565b6000600160e060020a031982167f780e9d630000000000000000000000000000000000000000000000000000000014806106fc57506106fc82611abe565b600090815260036020526040902054600160a060020a0316151590565b3390565b60008181526005602052604090208054600160a060020a031916600160a060020a038416908117909155819061168d82610f4d565b600160a060020a03167f8c5be1e5ebec7d5bd14f71427d1e84f3dd0314c0f7b2291e5b200ac8c7c3b92560405160405180910390a45050565b60006116d182611637565b6116f05760405160e560020a62461bcd0281526004016107c8906126dd565b60006116fb83610f4d565b905080600160a060020a031684600160a060020a03161480611736575083600160a060020a031661172b846107f2565b600160a060020a0316145b8061174657506117468185611557565b949350505050565b82600160a060020a031661176182610f4d565b600160a060020a03161461178a5760405160e560020a62461bcd0281526004016107c890612918565b600160a060020a0382166117b35760405160e560020a62461bcd0281526004016107c890612649565b6117be838383611b30565b6117c9600082611658565b600160a060020a03831660009081526004602052604081208054600192906117f2908490612bb8565b9091555050600160a060020a0382166000908152600460205260408120805460019290611820908490612b5e565b90915550506000818152600360205260408082208054600160a060020a031916600160a060020a0386811691821790925591518493918716917fddf252ad1be2c89b69c2b068fc378daa952ba7f163c4a11628f55a4df523b3ef91a4505050565b600061188d8284612b5e565b9392505050565b600061188d8284612b99565b600061188d8284612b76565b600160a060020a0382166118d55760405160e560020a62461bcd0281526004016107c890612851565b6118de81611637565b156118fe5760405160e560020a62461bcd0281526004016107c890612612565b61190a60008383611b30565b600160a060020a0382166000908152600460205260408120805460019290611933908490612b5e565b90915550506000818152600360205260408082208054600160a060020a031916600160a060020a03861690811790915590518392907fddf252ad1be2c89b69c2b068fc378daa952ba7f163c4a11628f55a4df523b3ef908290a45050565b600061199c82610f4d565b90506119aa81600084611b30565b6119b5600083611658565b600160a060020a03811660009081526004602052604081208054600192906119de908490612bb8565b90915550506000828152600360205260408082208054600160a060020a031916905551839190600160a060020a038416907fddf252ad1be2c89b69c2b068fc378daa952ba7f163c4a11628f55a4df523b3ef908390a45050565b60008054600160a060020a03838116600160a060020a0319831681178455604051919092169283917f8be0079c531659141344cd1fd0a4f28419497f9722a3daafe3b4186f6b6457e09190a35050565b611a9384848461174e565b611a9f84848484611bb9565b61104f5760405160e560020a62461bcd0281526004016107c890612558565b6000600160e060020a031982167f80ac58cd000000000000000000000000000000000000000000000000000000001480611b215750600160e060020a031982167f5b5e139f00000000000000000000000000000000000000000000000000000000145b806106fc57506106fc82611d0c565b611b3b8383836108d1565b600160a060020a038316611b5757611b5281611d3e565b611b7a565b81600160a060020a031683600160a060020a031614611b7a57611b7a8382611d82565b600160a060020a038216611b9657611b9181611e1f565b6108d1565b82600160a060020a031682600160a060020a0316146108d1576108d18282611f01565b6000611bcd84600160a060020a0316611f45565b15611d015783600160a060020a031663150b7a02611be9611654565b8786866040518563ffffffff167c0100000000000000000000000000000000000000000000000000000000028152600401611c2794939291906123a7565b602060405180830381600087803b158015611c4157600080fd5b505af1925050508015611c71575060408051601f3d908101601f19168201909252611c6e9181019061226b565b60015b611cce573d808015611c9f576040519150601f19603f3d011682016040523d82523d6000602084013e611ca4565b606091505b508051611cc65760405160e560020a62461bcd0281526004016107c890612558565b805181602001fd5b600160e060020a0319167f150b7a0200000000000000000000000000000000000000000000000000000000149050611746565b506001949350505050565b600160e060020a031981167f01ffc9a70000000000000000000000000000000000000000000000000000000014919050565b600980546000838152600a60205260408120829055600182018355919091527f6e1540171b6c0c960b71a7020d9f60077f6af931a8bbf590da0223dacf75c7af0155565b60006001611d8f84611055565b611d999190612bb8565b600083815260086020526040902054909150808214611dec57600160a060020a03841660009081526007602090815260408083208584528252808320548484528184208190558352600890915290208190555b506000918252600860209081526040808420849055600160a060020a039094168352600781528383209183525290812055565b600954600090611e3190600190612bb8565b6000838152600a602052604081205460098054939450909284908110611e6a5760e060020a634e487b7102600052603260045260246000fd5b906000526020600020015490508060098381548110611e9c5760e060020a634e487b7102600052603260045260246000fd5b6000918252602080832090910192909255828152600a90915260408082208490558582528120556009805480611ee55760e060020a634e487b7102600052603160045260246000fd5b6001900381819060005260206000200160009055905550505050565b6000611f0c83611055565b600160a060020a039093166000908152600760209081526040808320868452825280832085905593825260089052919091209190915550565b3b151590565b828054611f5790612bcf565b90600052602060002090601f016020900481019282611f795760008555611fbf565b82601f10611f9257805160ff1916838001178555611fbf565b82800160010185558215611fbf579182015b82811115611fbf578251825591602001919060010190611fa4565b50611fcb929150611fe6565b5090565b604080518082019091526000808252602082015290565b5b80821115611fcb5760008155600101611fe7565b600067ffffffffffffffff8084111561201657612016612c3b565b604051601f8501601f19168101602001828111828210171561203a5761203a612c3b565b60405284815291508183850186101561205257600080fd5b8484602083013760006020868301015250509392505050565b8035600160a060020a03811681146106ff57600080fd5b803580151581146106ff57600080fd5b600082601f8301126120a2578081fd5b61188d83833560208501611ffb565b6000602082840312156120c2578081fd5b61188d8261206b565b600080604083850312156120dd578081fd5b6120e68361206b565b91506120f46020840161206b565b90509250929050565b600080600060608486031215612111578081fd5b61211a8461206b565b92506121286020850161206b565b9150604084013590509250925092565b6000806000806080858703121561214d578081fd5b6121568561206b565b93506121646020860161206b565b925060408501359150606085013567ffffffffffffffff811115612186578182fd5b8501601f81018713612196578182fd5b6121a587823560208401611ffb565b91505092959194509250565b600080604083850312156121c3578182fd5b6121cc8361206b565b91506120f460208401612082565b600080604083850312156121ec578182fd5b6121f58361206b565b9150602083013567ffffffffffffffff811115612210578182fd5b61221c85828601612092565b9150509250929050565b60008060408385031215612238578182fd5b6122418361206b565b946020939093013593505050565b600060208284031215612260578081fd5b813561188d81612c54565b60006020828403121561227c578081fd5b815161188d81612c54565b600060208284031215612298578081fd5b813567ffffffffffffffff8111156122ae578182fd5b61174684828501612092565b6000602082840312156122cb578081fd5b5035919050565b6000806000606084860312156122e6578283fd5b83359250602084013567ffffffffffffffff811115612303578283fd5b61230f86828701612092565b92505061231e60408501612082565b90509250925092565b60008060408385031215612339578182fd5b50508035926020909101359150565b60008151808452815b8181101561236d57602081850181015186830182015201612351565b8181111561237e5782602083870101525b50601f01601f19169290920160200192915050565b600160a060020a0391909116815260200190565b6000600160a060020a038087168352808616602084015250836040830152608060608301526123d96080830184612348565b9695505050505050565b600160a060020a03929092168252602082015260400190565b602080825282518282018190526000919060409081850190868401855b828110156124555781518051600160a060020a031685528601516bffffffffffffffffffffffff16868501529284019290850190600101612419565b5091979650505050505050565b6020808252825182820181905260009190848201906040850190845b8181101561249a5783518352928401929184019160010161247e565b50909695505050505050565b901515815260200190565b60006020825261188d6020830184612348565b60208082526016908201527f4f6e6c7920617070726f76656420617274697374732e00000000000000000000604082015260600190565b6020808252602b908201527f455243373231456e756d657261626c653a206f776e657220696e646578206f7560408201527f74206f6620626f756e6473000000000000000000000000000000000000000000606082015260800190565b60208082526032908201527f4552433732313a207472616e7366657220746f206e6f6e20455243373231526560408201527f63656976657220696d706c656d656e7465720000000000000000000000000000606082015260800190565b60208082526026908201527f4f776e61626c653a206e6577206f776e657220697320746865207a65726f206160408201527f6464726573730000000000000000000000000000000000000000000000000000606082015260800190565b6020808252601c908201527f4552433732313a20746f6b656e20616c7265616479206d696e74656400000000604082015260600190565b60208082526024908201527f4552433732313a207472616e7366657220746f20746865207a65726f2061646460408201527f7265737300000000000000000000000000000000000000000000000000000000606082015260800190565b60208082526019908201527f4552433732313a20617070726f766520746f2063616c6c657200000000000000604082015260600190565b6020808252602c908201527f4552433732313a206f70657261746f7220717565727920666f72206e6f6e657860408201527f697374656e7420746f6b656e0000000000000000000000000000000000000000606082015260800190565b60208082526038908201527f4552433732313a20617070726f76652063616c6c6572206973206e6f74206f7760408201527f6e6572206e6f7220617070726f76656420666f7220616c6c0000000000000000606082015260800190565b6020808252602a908201527f4552433732313a2062616c616e636520717565727920666f7220746865207a6560408201527f726f206164647265737300000000000000000000000000000000000000000000606082015260800190565b60208082526029908201527f4552433732313a206f776e657220717565727920666f72206e6f6e657869737460408201527f656e7420746f6b656e0000000000000000000000000000000000000000000000606082015260800190565b6020808252818101527f4552433732313a206d696e7420746f20746865207a65726f2061646472657373604082015260600190565b6020808252602c908201527f4552433732313a20617070726f76656420717565727920666f72206e6f6e657860408201527f697374656e7420746f6b656e0000000000000000000000000000000000000000606082015260800190565b6020808252818101527f4f776e61626c653a2063616c6c6572206973206e6f7420746865206f776e6572604082015260600190565b60208082526029908201527f4552433732313a207472616e73666572206f6620746f6b656e2074686174206960408201527f73206e6f74206f776e0000000000000000000000000000000000000000000000606082015260800190565b6020808252600c908201527f4f6e6c792061646d696e732e0000000000000000000000000000000000000000604082015260600190565b60208082526021908201527f4552433732313a20617070726f76616c20746f2063757272656e74206f776e6560408201527f7200000000000000000000000000000000000000000000000000000000000000606082015260800190565b60208082526031908201527f4552433732313a207472616e736665722063616c6c6572206973206e6f74206f60408201527f776e6572206e6f7220617070726f766564000000000000000000000000000000606082015260800190565b6020808252602c908201527f455243373231456e756d657261626c653a20676c6f62616c20696e646578206f60408201527f7574206f6620626f756e64730000000000000000000000000000000000000000606082015260800190565b60208082526018908201527f546f6b656e20494420646f6573206e6f742065786973742e0000000000000000604082015260600190565b6020808252601c908201527f4f6e6c7920617070726f76656420617274697374206f776e6572732e00000000604082015260600190565b61ffff91909116815260200190565b61ffff92831681529116602082015260400190565b90815260200190565b60008219821115612b7157612b71612c22565b500190565b600082612b945760e060020a634e487b710281526012600452602481fd5b500490565b6000816000190483118215151615612bb357612bb3612c22565b500290565b600082821015612bca57612bca612c22565b500390565b600281046001821680612be357607f821691505b60208210811415610e345760e060020a634e487b7102600052602260045260246000fd5b6000600019821415612c1b57612c1b612c22565b5060010190565b60e060020a634e487b7102600052601160045260246000fd5b60e060020a634e487b7102600052604160045260246000fd5b600160e060020a031981168114610c9557600080fdfea2646970667358221220d6af62e371be9169da3927d1107c4cbc616a54b7799d9bed79367f2a47807e2f64736f6c63430008000033",
  "immutableReferences": {},
  "source": "// SPDX-License-Identifier: MIT\n\n/*\n  _                       _                 _     ______      _     _ _     _ _   _                 \n (_)                     | |     /\\        | |   |  ____|    | |   (_) |   (_) | (_)                \n  _ _ __ ___  _ __   ___ | |_   /  \\   _ __| |_  | |__  __  _| |__  _| |__  _| |_ _  ___  _ __  ___ \n | | '_ ` _ \\| '_ \\ / _ \\| __| / /\\ \\ | '__| __| |  __| \\ \\/ / '_ \\| | '_ \\| | __| |/ _ \\| '_ \\/ __|\n | | | | | | | | | | (_) | |_ / ____ \\| |  | |_  | |____ >  <| | | | | |_) | | |_| | (_) | | | \\__ \\\n |_|_| |_| |_|_| |_|\\___/ \\__/_/    \\_\\_|   \\__| |______/_/\\_\\_| |_|_|_.__/|_|\\__|_|\\___/|_| |_|___/\n                                                                                                    \n Written by Ian Olson\n*/\n\npragma solidity ^0.8.0;\n\nimport \"@openzeppelin/contracts/access/Ownable.sol\";\nimport \"@openzeppelin/contracts/token/ERC721/extensions/ERC721Enumerable.sol\";\nimport \"@openzeppelin/contracts/utils/math/SafeMath.sol\";\nimport \"./rarible/library/LibPart.sol\";\nimport \"./rarible/library/LibRoyaltiesV2.sol\";\nimport \"./rarible/RoyaltiesV2.sol\";\n\ncontract ImnotArtExhibitions is Ownable, ERC721Enumerable, RoyaltiesV2 {\n    using SafeMath for uint256;\n\n    // ---\n    // Constants\n    // ---\n    bytes4 private constant _INTERFACE_ID_ERC165 = 0x01ffc9a7;\n    bytes4 private constant _INTERFACE_ID_ERC721 = 0x80ac58cd;\n    bytes4 private constant _INTERFACE_ID_ERC721_METADATA = 0x5b5e139f;\n    bytes4 private constant _INTERFACE_ID_ERC721_ENUMERABLE = 0x780e9d63;\n    bytes4 private constant _INTERFACE_ID_EIP2981 = 0x2a55205a;\n    uint16 constant public artistFirstSaleBps = 6500; // 65% of First Sale\n    uint16 constant public artistSecondarySaleBps = 500; // 5% of Secondary Sale\n    uint16 constant public imnotArtSecondarySaleBps = 250; // 2.5% of Secondary Sale\n\n    // ---\n    // Properties\n    // ---\n    uint256 public nextTokenId = 1;\n    address public imnotArtPayoutAddress;\n    string private _contractUri;\n    bool public useRoyaltyContracts;\n\n    // ---\n    // Structs\n    // ---\n\n    /* Only need Artist BPS, as remainder would be given to imnotArt after Artist is paid */\n    struct TokenBps {\n        uint16 artistFirstSaleBps;\n        uint16 artistSecondarySaleBps;\n    }\n\n    // ---\n    // Events\n    // ---\n    event PermanentURI(string _value, uint256 indexed _id); // OpenSea Freezing Metadata\n\n    // ---\n    // Security\n    // ---\n    mapping(address => bool) private _isAdmin;\n    mapping(address => bool) private _isArtist;\n\n    modifier onlyAdmin() {\n        require(_isAdmin[msg.sender], \"Only admins.\");\n        _;\n    }\n\n    modifier onlyArtist() {\n        require(_isArtist[msg.sender], \"Only approved artists.\");\n        _;\n    }\n\n    modifier onlyValidTokenId(uint256 tokenId) {\n        require(_exists(tokenId), \"Token ID does not exist.\");\n        _;\n    }\n\n    // ---\n    // Mappings\n    // ---\n    mapping(uint256 => string) private _metadataByTokenId;\n    mapping(uint256 => address) public artistByTokenId;\n    mapping(uint256 => TokenBps) public tokenBpsByTokenId;\n    mapping(address => address) public royaltyContractByArtistAddress;\n\n    // ---\n    // Constructor\n    // ---\n    constructor() ERC721(\"The New Digital: Born in Chicago\", \"IMNOTARTEXHIBITION1\") {\n        _isAdmin[msg.sender] = true;\n        useRoyaltyContracts = false;\n        // imnotArtPayoutAddress = 0xaB5B4e5845B124785027d9944baaFb7f064B3F72; // @TODO(iolson): Proper Production Payout Address\n        // _contractUri = \"ipfs://bafkreigrkm4ta353qumma6g6fpfg7mbnhyuyckdy2hi6udc5ov5asjcsiu\"; // @TODO(iolson): Proper Production Contract URI\n    }\n\n    // ---\n    // Supported Interfaces\n    // ---\n    function supportsInterface(bytes4 interfaceId) public view virtual override returns (bool) {\n        return interfaceId == _INTERFACE_ID_ERC165\n        || interfaceId == LibRoyaltiesV2._INTERFACE_ID_ROYALTIES\n        || interfaceId == _INTERFACE_ID_ERC721\n        || interfaceId == _INTERFACE_ID_ERC721_METADATA\n        || interfaceId == _INTERFACE_ID_ERC721_ENUMERABLE\n        || interfaceId == _INTERFACE_ID_EIP2981\n        || super.supportsInterface(interfaceId);\n    }\n\n    // ---\n    // Minting\n    // ---\n    function mintToken(address artistAddress, string memory metadataUri) public onlyAdmin returns (uint256 tokenId) {\n        tokenId = nextTokenId;\n        nextTokenId = nextTokenId.add(1);\n\n        _mint(artistAddress, tokenId);\n        artistByTokenId[tokenId] = artistAddress;\n\n        _metadataByTokenId[tokenId] = metadataUri;\n        emit PermanentURI(metadataUri, tokenId);\n\n        TokenBps memory tokenBps = TokenBps({\n            artistFirstSaleBps: artistFirstSaleBps,\n            artistSecondarySaleBps: artistSecondarySaleBps\n        });\n        tokenBpsByTokenId[tokenId] = tokenBps;\n    }\n\n    function artistMintToken(string memory metadataUri) public onlyArtist returns (uint256 tokenId) {\n        tokenId = nextTokenId;\n        nextTokenId = nextTokenId.add(1);\n\n        _mint(msg.sender, tokenId);\n        artistByTokenId[tokenId] = msg.sender;\n\n        _metadataByTokenId[tokenId] = metadataUri;\n        emit PermanentURI(metadataUri, tokenId);\n\n        TokenBps memory tokenBps = TokenBps({\n            artistFirstSaleBps: artistFirstSaleBps,\n            artistSecondarySaleBps: artistSecondarySaleBps\n        });\n        tokenBpsByTokenId[tokenId] = tokenBps;\n    }\n\n    // ---\n    // Burning\n    // ---\n    function burn(uint256 tokenId) public virtual onlyArtist {\n        //solhint-disable-next-line max-line-length\n        require(_isApprovedOrOwner(_msgSender(), tokenId), \"Only approved artist owners.\");\n        _burn(tokenId);\n    }\n\n    // ---\n    // Contract Updates\n    // ---\n    function updateImnotArtPayoutAddress(address newPayoutAddress) public onlyAdmin {\n        imnotArtPayoutAddress = newPayoutAddress;\n    }\n\n    function updateContractUri(string memory newContractUri) public onlyAdmin {\n        _contractUri = newContractUri;\n    }\n\n    function updateTokenMetadata(uint256 tokenId, string memory metadataUri, bool permanent) public onlyOwner onlyValidTokenId(tokenId) {\n        _metadataByTokenId[tokenId] = metadataUri;\n\n        if (permanent) {\n            emit PermanentURI(metadataUri, tokenId);\n        }\n    }\n\n    function addAdmin(address newAdminAddress) public onlyAdmin {\n        _isAdmin[newAdminAddress] = true;\n    }\n\n    function removeAdmin(address removeAdminAddress) public onlyAdmin {\n        _isAdmin[removeAdminAddress] = true;\n    }\n\n    function addApprovedArtist(address newArtistAddress) public onlyAdmin {\n        _isArtist[newArtistAddress] = true;\n    }\n\n    function removeApprovedArtist(address removeArtistAddress) public onlyAdmin {\n        _isArtist[removeArtistAddress] = false;\n    }\n\n    function toggleUseRoyaltyContracts() public onlyAdmin {\n        useRoyaltyContracts = !useRoyaltyContracts;\n    }\n\n    function addRoyaltyContractAddress(address artistAddress, address royaltyContractAddress) public onlyAdmin {\n        royaltyContractByArtistAddress[artistAddress] = royaltyContractAddress;\n    }\n\n    // ---\n    // Metadata\n    // ---\n    function tokenURI(uint256 tokenId) public view override virtual onlyValidTokenId(tokenId) returns (string memory) {\n        return _metadataByTokenId[tokenId];\n    }\n\n    // ---\n    // Contract Retrieve Functions\n    // ---\n    function getTokensOfOwner(address _owner) public view returns (uint256[] memory tokenIds) {\n        uint256 tokenCount = balanceOf(_owner);\n\n        if (tokenCount == 0) {\n            tokenIds = new uint256[](0);\n        } else {\n            tokenIds = new uint256[](tokenCount);\n            uint256 index;\n            for (index = 0; index < tokenCount; index++) {\n                tokenIds[index] = tokenOfOwnerByIndex(_owner, index);\n            }\n        }\n\n        return tokenIds;\n    }\n\n    // ---\n    // Secondary Marketplace Functions\n    // ---\n\n    /* OpenSea */\n    function contractURI() public view virtual returns (string memory) {\n        return _contractUri;\n    }\n\n    /* Rarible Royalties V2 */\n    function getRaribleV2Royalties(uint256 tokenId) external view override onlyValidTokenId(tokenId) returns (LibPart.Part[] memory) {\n        LibPart.Part[] memory royalties = new LibPart.Part[](2);\n        \n        royalties[0] = LibPart.Part({\n            account: payable(artistByTokenId[tokenId]),\n            value: uint96(artistSecondarySaleBps)\n        });\n\n        royalties[1] = LibPart.Part({\n            account: payable(imnotArtPayoutAddress),\n            value: uint96(imnotArtSecondarySaleBps)\n        });\n\n        return royalties;\n    }\n\n    /* EIP-2981 - https://eips.ethereum.org/EIPS/eip-2981 */\n    function royaltyInfo(uint256 tokenId, uint256 salePrice) external view onlyValidTokenId(tokenId) returns (address receiver, uint256 amount) {\n        address artistAddress = artistByTokenId[tokenId];\n        uint256 combinedBpsForSinglePayout = uint256(artistSecondarySaleBps).add(uint256(imnotArtSecondarySaleBps));\n        uint256 royaltyAmount = SafeMath.div(SafeMath.mul(salePrice, combinedBpsForSinglePayout), 10000);\n\n        address payoutAddress = imnotArtPayoutAddress;\n        \n        if (useRoyaltyContracts) {\n            payoutAddress = royaltyContractByArtistAddress[artistAddress];\n        }\n\n        if (payoutAddress == address(0)) {\n            payoutAddress = imnotArtPayoutAddress;\n        }\n\n        return (payoutAddress, royaltyAmount);\n    }\n}",
  "sourcePath": "/Users/ianolson/code/imnotart-exhibitions/contracts/ImnotArtExhibitions.sol",
  "compiler": {
    "name": "solc",
    "version": "0.8.0+commit.c7dfd78e.Emscripten.clang"
  },
  "schemaVersion": "3.3.4",
  "updatedAt": "2021-08-10T03:58:41.602Z",
  "devdoc": {
    "kind": "dev",
    "methods": {
      "approve(address,uint256)": {
        "details": "See {IERC721-approve}."
      },
      "balanceOf(address)": {
        "details": "See {IERC721-balanceOf}."
      },
      "getApproved(uint256)": {
        "details": "See {IERC721-getApproved}."
      },
      "isApprovedForAll(address,address)": {
        "details": "See {IERC721-isApprovedForAll}."
      },
      "name()": {
        "details": "See {IERC721Metadata-name}."
      },
      "owner()": {
        "details": "Returns the address of the current owner."
      },
      "ownerOf(uint256)": {
        "details": "See {IERC721-ownerOf}."
      },
      "renounceOwnership()": {
        "details": "Leaves the contract without owner. It will not be possible to call `onlyOwner` functions anymore. Can only be called by the current owner. NOTE: Renouncing ownership will leave the contract without an owner, thereby removing any functionality that is only available to the owner."
      },
      "safeTransferFrom(address,address,uint256)": {
        "details": "See {IERC721-safeTransferFrom}."
      },
      "safeTransferFrom(address,address,uint256,bytes)": {
        "details": "See {IERC721-safeTransferFrom}."
      },
      "setApprovalForAll(address,bool)": {
        "details": "See {IERC721-setApprovalForAll}."
      },
      "supportsInterface(bytes4)": {
        "details": "See {IERC165-supportsInterface}."
      },
      "symbol()": {
        "details": "See {IERC721Metadata-symbol}."
      },
      "tokenByIndex(uint256)": {
        "details": "See {IERC721Enumerable-tokenByIndex}."
      },
      "tokenOfOwnerByIndex(address,uint256)": {
        "details": "See {IERC721Enumerable-tokenOfOwnerByIndex}."
      },
      "tokenURI(uint256)": {
        "details": "See {IERC721Metadata-tokenURI}."
      },
      "totalSupply()": {
        "details": "See {IERC721Enumerable-totalSupply}."
      },
      "transferFrom(address,address,uint256)": {
        "details": "See {IERC721-transferFrom}."
      },
      "transferOwnership(address)": {
        "details": "Transfers ownership of the contract to a new account (`newOwner`). Can only be called by the current owner."
      }
    },
    "version": 1
  },
  "userdoc": {
    "kind": "user",
    "methods": {},
    "version": 1
  }
}