{
  "contractName": "ImnotArtExhibitions",
  "abi": [
    {
      "inputs": [],
      "stateMutability": "nonpayable",
      "type": "constructor"
    },
    {
      "anonymous": false,
      "inputs": [
        {
          "indexed": true,
          "internalType": "address",
          "name": "owner",
          "type": "address"
        },
        {
          "indexed": true,
          "internalType": "address",
          "name": "approved",
          "type": "address"
        },
        {
          "indexed": true,
          "internalType": "uint256",
          "name": "tokenId",
          "type": "uint256"
        }
      ],
      "name": "Approval",
      "type": "event"
    },
    {
      "anonymous": false,
      "inputs": [
        {
          "indexed": true,
          "internalType": "address",
          "name": "owner",
          "type": "address"
        },
        {
          "indexed": true,
          "internalType": "address",
          "name": "operator",
          "type": "address"
        },
        {
          "indexed": false,
          "internalType": "bool",
          "name": "approved",
          "type": "bool"
        }
      ],
      "name": "ApprovalForAll",
      "type": "event"
    },
    {
      "anonymous": false,
      "inputs": [
        {
          "indexed": false,
          "internalType": "string",
          "name": "_value",
          "type": "string"
        },
        {
          "indexed": false,
          "internalType": "address",
          "name": "royaltyAddress",
          "type": "address"
        }
      ],
      "name": "Debug",
      "type": "event"
    },
    {
      "anonymous": false,
      "inputs": [
        {
          "indexed": true,
          "internalType": "address",
          "name": "previousOwner",
          "type": "address"
        },
        {
          "indexed": true,
          "internalType": "address",
          "name": "newOwner",
          "type": "address"
        }
      ],
      "name": "OwnershipTransferred",
      "type": "event"
    },
    {
      "anonymous": false,
      "inputs": [
        {
          "indexed": false,
          "internalType": "string",
          "name": "_value",
          "type": "string"
        },
        {
          "indexed": true,
          "internalType": "uint256",
          "name": "_id",
          "type": "uint256"
        }
      ],
      "name": "PermanentURI",
      "type": "event"
    },
    {
      "anonymous": false,
      "inputs": [
        {
          "indexed": false,
          "internalType": "uint256",
          "name": "tokenId",
          "type": "uint256"
        },
        {
          "components": [
            {
              "internalType": "address payable",
              "name": "account",
              "type": "address"
            },
            {
              "internalType": "uint96",
              "name": "value",
              "type": "uint96"
            }
          ],
          "indexed": false,
          "internalType": "struct LibPart.Part[]",
          "name": "royalties",
          "type": "tuple[]"
        }
      ],
      "name": "RoyaltiesSet",
      "type": "event"
    },
    {
      "anonymous": false,
      "inputs": [
        {
          "indexed": true,
          "internalType": "address",
          "name": "from",
          "type": "address"
        },
        {
          "indexed": true,
          "internalType": "address",
          "name": "to",
          "type": "address"
        },
        {
          "indexed": true,
          "internalType": "uint256",
          "name": "tokenId",
          "type": "uint256"
        }
      ],
      "name": "Transfer",
      "type": "event"
    },
    {
      "inputs": [
        {
          "internalType": "address",
          "name": "to",
          "type": "address"
        },
        {
          "internalType": "uint256",
          "name": "tokenId",
          "type": "uint256"
        }
      ],
      "name": "approve",
      "outputs": [],
      "stateMutability": "nonpayable",
      "type": "function"
    },
    {
      "inputs": [
        {
          "internalType": "uint256",
          "name": "",
          "type": "uint256"
        }
      ],
      "name": "artistByTokenId",
      "outputs": [
        {
          "internalType": "address",
          "name": "",
          "type": "address"
        }
      ],
      "stateMutability": "view",
      "type": "function"
    },
    {
      "inputs": [],
      "name": "artistFirstSaleBps",
      "outputs": [
        {
          "internalType": "uint16",
          "name": "",
          "type": "uint16"
        }
      ],
      "stateMutability": "view",
      "type": "function"
    },
    {
      "inputs": [],
      "name": "artistSecondarySaleBps",
      "outputs": [
        {
          "internalType": "uint16",
          "name": "",
          "type": "uint16"
        }
      ],
      "stateMutability": "view",
      "type": "function"
    },
    {
      "inputs": [
        {
          "internalType": "address",
          "name": "owner",
          "type": "address"
        }
      ],
      "name": "balanceOf",
      "outputs": [
        {
          "internalType": "uint256",
          "name": "",
          "type": "uint256"
        }
      ],
      "stateMutability": "view",
      "type": "function"
    },
    {
      "inputs": [
        {
          "internalType": "uint256",
          "name": "tokenId",
          "type": "uint256"
        }
      ],
      "name": "getApproved",
      "outputs": [
        {
          "internalType": "address",
          "name": "",
          "type": "address"
        }
      ],
      "stateMutability": "view",
      "type": "function"
    },
    {
      "inputs": [],
      "name": "imnotArtPayoutAddress",
      "outputs": [
        {
          "internalType": "address",
          "name": "",
          "type": "address"
        }
      ],
      "stateMutability": "view",
      "type": "function"
    },
    {
      "inputs": [],
      "name": "imnotArtSecondarySaleBps",
      "outputs": [
        {
          "internalType": "uint16",
          "name": "",
          "type": "uint16"
        }
      ],
      "stateMutability": "view",
      "type": "function"
    },
    {
      "inputs": [
        {
          "internalType": "address",
          "name": "owner",
          "type": "address"
        },
        {
          "internalType": "address",
          "name": "operator",
          "type": "address"
        }
      ],
      "name": "isApprovedForAll",
      "outputs": [
        {
          "internalType": "bool",
          "name": "",
          "type": "bool"
        }
      ],
      "stateMutability": "view",
      "type": "function"
    },
    {
      "inputs": [],
      "name": "marketplaceAddress",
      "outputs": [
        {
          "internalType": "address",
          "name": "",
          "type": "address"
        }
      ],
      "stateMutability": "view",
      "type": "function"
    },
    {
      "inputs": [],
      "name": "name",
      "outputs": [
        {
          "internalType": "string",
          "name": "",
          "type": "string"
        }
      ],
      "stateMutability": "view",
      "type": "function"
    },
    {
      "inputs": [],
      "name": "nextTokenId",
      "outputs": [
        {
          "internalType": "uint256",
          "name": "",
          "type": "uint256"
        }
      ],
      "stateMutability": "view",
      "type": "function"
    },
    {
      "inputs": [],
      "name": "owner",
      "outputs": [
        {
          "internalType": "address",
          "name": "",
          "type": "address"
        }
      ],
      "stateMutability": "view",
      "type": "function"
    },
    {
      "inputs": [
        {
          "internalType": "uint256",
          "name": "tokenId",
          "type": "uint256"
        }
      ],
      "name": "ownerOf",
      "outputs": [
        {
          "internalType": "address",
          "name": "",
          "type": "address"
        }
      ],
      "stateMutability": "view",
      "type": "function"
    },
    {
      "inputs": [],
      "name": "renounceOwnership",
      "outputs": [],
      "stateMutability": "nonpayable",
      "type": "function"
    },
    {
      "inputs": [
        {
          "internalType": "address",
          "name": "",
          "type": "address"
        }
      ],
      "name": "royaltyContractByArtistAddress",
      "outputs": [
        {
          "internalType": "address",
          "name": "",
          "type": "address"
        }
      ],
      "stateMutability": "view",
      "type": "function"
    },
    {
      "inputs": [
        {
          "internalType": "address",
          "name": "from",
          "type": "address"
        },
        {
          "internalType": "address",
          "name": "to",
          "type": "address"
        },
        {
          "internalType": "uint256",
          "name": "tokenId",
          "type": "uint256"
        }
      ],
      "name": "safeTransferFrom",
      "outputs": [],
      "stateMutability": "nonpayable",
      "type": "function"
    },
    {
      "inputs": [
        {
          "internalType": "address",
          "name": "from",
          "type": "address"
        },
        {
          "internalType": "address",
          "name": "to",
          "type": "address"
        },
        {
          "internalType": "uint256",
          "name": "tokenId",
          "type": "uint256"
        },
        {
          "internalType": "bytes",
          "name": "_data",
          "type": "bytes"
        }
      ],
      "name": "safeTransferFrom",
      "outputs": [],
      "stateMutability": "nonpayable",
      "type": "function"
    },
    {
      "inputs": [
        {
          "internalType": "address",
          "name": "operator",
          "type": "address"
        },
        {
          "internalType": "bool",
          "name": "approved",
          "type": "bool"
        }
      ],
      "name": "setApprovalForAll",
      "outputs": [],
      "stateMutability": "nonpayable",
      "type": "function"
    },
    {
      "inputs": [],
      "name": "symbol",
      "outputs": [
        {
          "internalType": "string",
          "name": "",
          "type": "string"
        }
      ],
      "stateMutability": "view",
      "type": "function"
    },
    {
      "inputs": [
        {
          "internalType": "uint256",
          "name": "",
          "type": "uint256"
        }
      ],
      "name": "tokenBpsByTokenId",
      "outputs": [
        {
          "internalType": "uint16",
          "name": "artistFirstSaleBps",
          "type": "uint16"
        },
        {
          "internalType": "uint16",
          "name": "artistSecondarySaleBps",
          "type": "uint16"
        }
      ],
      "stateMutability": "view",
      "type": "function"
    },
    {
      "inputs": [
        {
          "internalType": "uint256",
          "name": "index",
          "type": "uint256"
        }
      ],
      "name": "tokenByIndex",
      "outputs": [
        {
          "internalType": "uint256",
          "name": "",
          "type": "uint256"
        }
      ],
      "stateMutability": "view",
      "type": "function"
    },
    {
      "inputs": [
        {
          "internalType": "address",
          "name": "owner",
          "type": "address"
        },
        {
          "internalType": "uint256",
          "name": "index",
          "type": "uint256"
        }
      ],
      "name": "tokenOfOwnerByIndex",
      "outputs": [
        {
          "internalType": "uint256",
          "name": "",
          "type": "uint256"
        }
      ],
      "stateMutability": "view",
      "type": "function"
    },
    {
      "inputs": [],
      "name": "totalSupply",
      "outputs": [
        {
          "internalType": "uint256",
          "name": "",
          "type": "uint256"
        }
      ],
      "stateMutability": "view",
      "type": "function"
    },
    {
      "inputs": [
        {
          "internalType": "address",
          "name": "from",
          "type": "address"
        },
        {
          "internalType": "address",
          "name": "to",
          "type": "address"
        },
        {
          "internalType": "uint256",
          "name": "tokenId",
          "type": "uint256"
        }
      ],
      "name": "transferFrom",
      "outputs": [],
      "stateMutability": "nonpayable",
      "type": "function"
    },
    {
      "inputs": [
        {
          "internalType": "address",
          "name": "newOwner",
          "type": "address"
        }
      ],
      "name": "transferOwnership",
      "outputs": [],
      "stateMutability": "nonpayable",
      "type": "function"
    },
    {
      "inputs": [],
      "name": "useRoyaltyContracts",
      "outputs": [
        {
          "internalType": "bool",
          "name": "",
          "type": "bool"
        }
      ],
      "stateMutability": "view",
      "type": "function"
    },
    {
      "inputs": [
        {
          "internalType": "bytes4",
          "name": "interfaceId",
          "type": "bytes4"
        }
      ],
      "name": "supportsInterface",
      "outputs": [
        {
          "internalType": "bool",
          "name": "",
          "type": "bool"
        }
      ],
      "stateMutability": "view",
      "type": "function"
    },
    {
      "inputs": [
        {
          "internalType": "address",
          "name": "artistAddress",
          "type": "address"
        },
        {
          "internalType": "string",
          "name": "metadataUri",
          "type": "string"
        },
        {
          "internalType": "bool",
          "name": "transferToMarketplaceContract",
          "type": "bool"
        }
      ],
      "name": "mintToken",
      "outputs": [
        {
          "internalType": "uint256",
          "name": "tokenId",
          "type": "uint256"
        }
      ],
      "stateMutability": "nonpayable",
      "type": "function"
    },
    {
      "inputs": [
        {
          "internalType": "string",
          "name": "metadataUri",
          "type": "string"
        },
        {
          "internalType": "bool",
          "name": "transferToMarketplaceContract",
          "type": "bool"
        }
      ],
      "name": "artistMintToken",
      "outputs": [
        {
          "internalType": "uint256",
          "name": "tokenId",
          "type": "uint256"
        }
      ],
      "stateMutability": "nonpayable",
      "type": "function"
    },
    {
      "inputs": [
        {
          "internalType": "uint256",
          "name": "tokenId",
          "type": "uint256"
        }
      ],
      "name": "burn",
      "outputs": [],
      "stateMutability": "nonpayable",
      "type": "function"
    },
    {
      "inputs": [
        {
          "internalType": "address",
          "name": "newPayoutAddress",
          "type": "address"
        }
      ],
      "name": "updateImnotArtPayoutAddress",
      "outputs": [],
      "stateMutability": "nonpayable",
      "type": "function"
    },
    {
      "inputs": [
        {
          "internalType": "address",
          "name": "newMarketplaceAddress",
          "type": "address"
        }
      ],
      "name": "updateMarketplaceAddress",
      "outputs": [],
      "stateMutability": "nonpayable",
      "type": "function"
    },
    {
      "inputs": [
        {
          "internalType": "string",
          "name": "newContractUri",
          "type": "string"
        }
      ],
      "name": "updateContractUri",
      "outputs": [],
      "stateMutability": "nonpayable",
      "type": "function"
    },
    {
      "inputs": [
        {
          "internalType": "address",
          "name": "newAdminAddress",
          "type": "address"
        }
      ],
      "name": "addAdmin",
      "outputs": [],
      "stateMutability": "nonpayable",
      "type": "function"
    },
    {
      "inputs": [
        {
          "internalType": "address",
          "name": "removeAdminAddress",
          "type": "address"
        }
      ],
      "name": "removeAdmin",
      "outputs": [],
      "stateMutability": "nonpayable",
      "type": "function"
    },
    {
      "inputs": [
        {
          "internalType": "address",
          "name": "newArtistAddress",
          "type": "address"
        }
      ],
      "name": "addApprovedArtist",
      "outputs": [],
      "stateMutability": "nonpayable",
      "type": "function"
    },
    {
      "inputs": [
        {
          "internalType": "address",
          "name": "removeArtistAddress",
          "type": "address"
        }
      ],
      "name": "removeApprovedArtist",
      "outputs": [],
      "stateMutability": "nonpayable",
      "type": "function"
    },
    {
      "inputs": [],
      "name": "toggleUseRoyaltyContracts",
      "outputs": [],
      "stateMutability": "nonpayable",
      "type": "function"
    },
    {
      "inputs": [
        {
          "internalType": "address",
          "name": "artistAddress",
          "type": "address"
        },
        {
          "internalType": "address",
          "name": "royaltyContractAddress",
          "type": "address"
        }
      ],
      "name": "addRoyaltyContractAddress",
      "outputs": [],
      "stateMutability": "nonpayable",
      "type": "function"
    },
    {
      "inputs": [
        {
          "internalType": "uint256",
          "name": "tokenId",
          "type": "uint256"
        }
      ],
      "name": "tokenURI",
      "outputs": [
        {
          "internalType": "string",
          "name": "",
          "type": "string"
        }
      ],
      "stateMutability": "view",
      "type": "function"
    },
    {
      "inputs": [
        {
          "internalType": "address",
          "name": "_owner",
          "type": "address"
        }
      ],
      "name": "getTokensOfOwner",
      "outputs": [
        {
          "internalType": "uint256[]",
          "name": "tokenIds",
          "type": "uint256[]"
        }
      ],
      "stateMutability": "view",
      "type": "function"
    },
    {
      "inputs": [],
      "name": "contractURI",
      "outputs": [
        {
          "internalType": "string",
          "name": "",
          "type": "string"
        }
      ],
      "stateMutability": "view",
      "type": "function"
    },
    {
      "inputs": [
        {
          "internalType": "uint256",
          "name": "tokenId",
          "type": "uint256"
        }
      ],
      "name": "getRaribleV2Royalties",
      "outputs": [
        {
          "components": [
            {
              "internalType": "address payable",
              "name": "account",
              "type": "address"
            },
            {
              "internalType": "uint96",
              "name": "value",
              "type": "uint96"
            }
          ],
          "internalType": "struct LibPart.Part[]",
          "name": "",
          "type": "tuple[]"
        }
      ],
      "stateMutability": "view",
      "type": "function"
    },
    {
      "inputs": [
        {
          "internalType": "uint256",
          "name": "tokenId",
          "type": "uint256"
        },
        {
          "internalType": "uint256",
          "name": "salePrice",
          "type": "uint256"
        }
      ],
      "name": "royaltyInfo",
      "outputs": [
        {
          "internalType": "address",
          "name": "receiver",
          "type": "address"
        },
        {
          "internalType": "uint256",
          "name": "amount",
          "type": "uint256"
        }
      ],
      "stateMutability": "view",
      "type": "function"
    }
  ],
  "bytecode": "0x60806040526001600b553480156200001657600080fd5b506040518060400160405280601481526020017f696d6e6f744172742045786869626974696f6e730000000000000000000000008152506040518060400160405280600881526020017f494d4e4f54415254000000000000000000000000000000000000000000000000815250620000af620000a062000109640100000000026401000000009004565b6401000000006200010d810204565b8151620000c49060019060208501906200015d565b508051620000da9060029060208401906200015d565b5050336000908152601060205260409020805460ff19908116600117909155600f805490911690555062000259565b3390565b60008054600160a060020a03838116600160a060020a0319831681178455604051919092169283917f8be0079c531659141344cd1fd0a4f28419497f9722a3daafe3b4186f6b6457e09190a35050565b8280546200016b9062000203565b90600052602060002090601f0160209004810192826200018f5760008555620001da565b82601f10620001aa57805160ff1916838001178555620001da565b82800160010185558215620001da579182015b82811115620001da578251825591602001919060010190620001bd565b50620001e8929150620001ec565b5090565b5b80821115620001e85760008155600101620001ed565b6002810460018216806200021857607f821691505b6020821081141562000253577f4e487b7100000000000000000000000000000000000000000000000000000000600052602260045260246000fd5b50919050565b612c8c80620002696000396000f3fe608060405234801561001057600080fd5b506004361061029c576000357c0100000000000000000000000000000000000000000000000000000000900480637048027511610179578063c34a2a3a116100eb578063e5a727b7116100a4578063e5a727b714610563578063e8a3d48514610584578063e9482cc61461058c578063e985e9c514610594578063edbcbb01146105a7578063f2fde38b146105ba5761029c565b8063c34a2a3a146104fa578063c87b56dd14610502578063cad96cca14610515578063cf1e923914610535578063daa17f4914610548578063e4ace31a146105505761029c565b806378fd2ed61161013d57806378fd2ed6146104a95780638258337d146104bc5780638da5cb5b146104c457806395d89b41146104cc578063a22cb465146104d4578063b88d4fde146104e75761029c565b8063704802751461034757806370a0823114610473578063715018a614610486578063753cd9cf1461048e57806375794a3c146104a15761029c565b80632f745c591161021257806342966c68116101d657806342966c68146103f457806347c8ff5e146104075780634f6ccce71461041a57806350ff2d5b1461042d5780635de6dc55146104405780636352211e146104605761029c565b80632f745c59146103ab578063390e26e7146103be5780633dd2fdff146103c657806340c38035146103ce57806342842e0e146103e15761029c565b806314fe38ab1161026457806314fe38ab146103275780631785f53c1461034757806318160ddd1461035a57806323b872dd146103625780632a55205a146103755780632cf0ffbe146103965761029c565b806301ffc9a7146102a157806306fdde03146102ca578063072e839e146102df578063081812fc146102f4578063095ea7b314610314575b600080fd5b6102b46102af36600461224d565b6105cd565b6040516102c19190612492565b60405180910390f35b6102d2610717565b6040516102c1919061249d565b6102f26102ed36600461209f565b6107a9565b005b6103076103023660046122fb565b610805565b6040516102c1919061237f565b6102f2610322366004612224565b61084b565b61033a6103353660046121c8565b6108e9565b6040516102c19190612b41565b6102f261035536600461209f565b610a27565b61033a610a7d565b6102f26103703660046120eb565b610a83565b610388610383366004612313565b610abe565b6040516102c19291906123cf565b61039e610b8a565b6040516102c19190612b1d565b61033a6103b9366004612224565b610b90565b6102b4610be5565b61039e610bee565b6102f26103dc36600461209f565b610bf3565b6102f26103ef3660046120eb565b610c49565b6102f26104023660046122fb565b610c64565b6102f2610415366004612285565b610ccc565b61033a6104283660046122fb565b610d15565b61030761043b3660046122fb565b610d76565b61045361044e36600461209f565b610d91565b6040516102c1919061244e565b61030761046e3660046122fb565b610e6e565b61033a61048136600461209f565b610ea6565b6102f2610eed565b6102f261049c3660046120b9565b610f3b565b61033a610f9b565b6103076104b736600461209f565b610fa1565b6102f2610fbc565b610307611002565b6102d2611011565b6102f26104e236600461219f565b611020565b6102f26104f5366004612126565b6110f1565b610307611133565b6102d26105103660046122fb565b611142565b6105286105233660046122fb565b61120c565b6040516102c191906123e8565b6102f261054336600461209f565b611325565b610307611379565b6102f261055e36600461209f565b611388565b6105766105713660046122fb565b6113dc565b6040516102c1929190612b2c565b6102d26113fc565b61039e61140b565b6102b46105a23660046120b9565b611411565b61033a6105b53660046122b8565b61143f565b6102f26105c836600461209f565b611573565b6000600160e060020a031982167f01ffc9a70000000000000000000000000000000000000000000000000000000014806106305750600160e060020a031982167fcad96cca00000000000000000000000000000000000000000000000000000000145b806106645750600160e060020a031982167f80ac58cd00000000000000000000000000000000000000000000000000000000145b806106985750600160e060020a031982167f5b5e139f00000000000000000000000000000000000000000000000000000000145b806106cc5750600160e060020a031982167f780e9d6300000000000000000000000000000000000000000000000000000000145b806107005750600160e060020a031982167f2a55205a00000000000000000000000000000000000000000000000000000000145b8061070f575061070f826115e7565b90505b919050565b60606001805461072690612bbb565b80601f016020809104026020016040519081016040528092919081815260200182805461075290612bbb565b801561079f5780601f106107745761010080835404028352916020019161079f565b820191906000526020600020905b81548152906001019060200180831161078257829003601f168201915b5050505050905090565b3360009081526010602052604090205460ff166107e45760405160e560020a62461bcd0281526004016107db90612961565b60405180910390fd5b600160a060020a03166000908152601160205260409020805460ff19169055565b600061081082611625565b61082f5760405160e560020a62461bcd0281526004016107db90612872565b50600090815260056020526040902054600160a060020a031690565b600061085682610e6e565b905080600160a060020a031683600160a060020a0316141561088d5760405160e560020a62461bcd0281526004016107db90612998565b80600160a060020a031661089f611642565b600160a060020a031614806108bb57506108bb816105a2611642565b6108da5760405160e560020a62461bcd0281526004016107db90612726565b6108e48383611646565b505050565b3360009081526010602052604081205460ff1661091b5760405160e560020a62461bcd0281526004016107db90612961565b50600b5461092a8160016116b4565b600b5561093784826116c7565b60008181526013602090815260408083208054600160a060020a031916600160a060020a03891617905560128252909120845161097692860190611f39565b50807fa109ba539900bf1b633f956d63c96fc89b814c7287f7aa50a9216d0b55657207846040516109a7919061249d565b60405180910390a260408051808201825261196481526101f46020808301918252600085815260149091529290922081518154935161ffff1990941661ffff9182161763ffff00001916620100009190941602929092179091558215610a1f57600d54610a1f908690600160a060020a0316846117ac565b509392505050565b3360009081526010602052604090205460ff16610a595760405160e560020a62461bcd0281526004016107db90612961565b600160a060020a03166000908152601060205260409020805460ff19166001179055565b60095490565b610a94610a8e611642565b826118df565b610ab35760405160e560020a62461bcd0281526004016107db906129f5565b6108e48383836117ac565b60008083610acb81611625565b610aea5760405160e560020a62461bcd0281526004016107db90612aaf565b600085815260136020526040812054600160a060020a031690610b106101f460fa6116b4565b90506000610b29610b218884611967565b612710611973565b600c54600f54919250600160a060020a03169060ff1615610b615750600160a060020a03808416600090815260156020526040902054165b600160a060020a038116610b7d5750600c54600160a060020a03165b9890975095505050505050565b6101f481565b6000610b9b83610ea6565b8210610bbc5760405160e560020a62461bcd0281526004016107db906124e7565b50600160a060020a03919091166000908152600760209081526040808320938352929052205490565b600f5460ff1681565b60fa81565b3360009081526010602052604090205460ff16610c255760405160e560020a62461bcd0281526004016107db90612961565b600160a060020a03166000908152601160205260409020805460ff19166001179055565b6108e4838383604051806020016040528060008152506110f1565b3360009081526011602052604090205460ff16610c965760405160e560020a62461bcd0281526004016107db906124b0565b610ca1610a8e611642565b610cc05760405160e560020a62461bcd0281526004016107db90612ae6565b610cc98161197f565b50565b3360009081526010602052604090205460ff16610cfe5760405160e560020a62461bcd0281526004016107db90612961565b8051610d1190600e906020840190611f39565b5050565b6000610d1f610a7d565b8210610d405760405160e560020a62461bcd0281526004016107db90612a52565b60098281548110610d645760e060020a634e487b7102600052603260045260246000fd5b90600052602060002001549050919050565b601360205260009081526040902054600160a060020a031681565b60606000610d9e83610ea6565b905080610dbb576040805160008152602081019091529150610e68565b8067ffffffffffffffff811115610de55760e060020a634e487b7102600052604160045260246000fd5b604051908082528060200260200182016040528015610e0e578160200160208202803683370190505b50915060005b81811015610e6657610e268482610b90565b838281518110610e495760e060020a634e487b7102600052603260045260246000fd5b602090810291909101015280610e5e81612bf3565b915050610e14565b505b50919050565b600081815260036020526040812054600160a060020a03168061070f5760405160e560020a62461bcd0281526004016107db906127e0565b6000600160a060020a038216610ed15760405160e560020a62461bcd0281526004016107db90612783565b50600160a060020a031660009081526004602052604090205490565b610ef5611642565b600160a060020a0316610f06611002565b600160a060020a031614610f2f5760405160e560020a62461bcd0281526004016107db906128cf565b610f396000611a26565b565b3360009081526010602052604090205460ff16610f6d5760405160e560020a62461bcd0281526004016107db90612961565b600160a060020a0391821660009081526015602052604090208054600160a060020a03191691909216179055565b600b5481565b601560205260009081526040902054600160a060020a031681565b3360009081526010602052604090205460ff16610fee5760405160e560020a62461bcd0281526004016107db90612961565b600f805460ff19811660ff90911615179055565b600054600160a060020a031690565b60606002805461072690612bbb565b611028611642565b600160a060020a031682600160a060020a0316141561105c5760405160e560020a62461bcd0281526004016107db90612692565b8060066000611069611642565b600160a060020a03908116825260208083019390935260409182016000908120918716808252919093529120805460ff1916921515929092179091556110ad611642565b600160a060020a03167f17307eab39ab6107e8899845ad3d59bd9653f200f220920489ca2b5937696c31836040516110e59190612492565b60405180910390a35050565b6111026110fc611642565b836118df565b6111215760405160e560020a62461bcd0281526004016107db906129f5565b61112d84848484611a76565b50505050565b600c54600160a060020a031681565b60608161114e81611625565b61116d5760405160e560020a62461bcd0281526004016107db90612aaf565b6000838152601260205260409020805461118690612bbb565b80601f01602080910402602001604051908101604052809291908181526020018280546111b290612bbb565b80156111ff5780601f106111d4576101008083540402835291602001916111ff565b820191906000526020600020905b8154815290600101906020018083116111e257829003601f168201915b5050505050915050919050565b60608161121881611625565b6112375760405160e560020a62461bcd0281526004016107db90612aaf565b60408051600280825260608201909252600091816020015b611257611fbd565b81526020019060019003908161124f57505060408051808201825260008781526013602090815292812054600160a060020a031682526101f4928201929092528251929350918391906112bd5760e060020a634e487b7102600052603260045260246000fd5b60209081029190910181019190915260408051808201909152600c54600160a060020a0316815260fa918101919091528151829060019081106113135760e060020a634e487b7102600052603260045260246000fd5b60209081029190910101529392505050565b3360009081526010602052604090205460ff166113575760405160e560020a62461bcd0281526004016107db90612961565b600c8054600160a060020a031916600160a060020a0392909216919091179055565b600d54600160a060020a031681565b3360009081526010602052604090205460ff166113ba5760405160e560020a62461bcd0281526004016107db90612961565b600d8054600160a060020a031916600160a060020a0392909216919091179055565b60146020526000908152604090205461ffff808216916201000090041682565b6060600e805461072690612bbb565b61196481565b600160a060020a03918216600090815260066020908152604080832093909416825291909152205460ff1690565b3360009081526011602052604081205460ff166114715760405160e560020a62461bcd0281526004016107db906124b0565b50600b546114808160016116b4565b600b5561148d33826116c7565b60008181526013602090815260408083208054600160a060020a031916331790556012825290912084516114c392860190611f39565b50807fa109ba539900bf1b633f956d63c96fc89b814c7287f7aa50a9216d0b55657207846040516114f4919061249d565b60405180910390a260408051808201825261196481526101f46020808301918252600085815260149091529290922081518154935161ffff1990941661ffff9182161763ffff0000191662010000919094160292909217909155821561156c57600d5461156c903390600160a060020a0316846117ac565b5092915050565b61157b611642565b600160a060020a031661158c611002565b600160a060020a0316146115b55760405160e560020a62461bcd0281526004016107db906128cf565b600160a060020a0381166115de5760405160e560020a62461bcd0281526004016107db906125a1565b610cc981611a26565b6000600160e060020a031982167f780e9d6300000000000000000000000000000000000000000000000000000000148061070f575061070f82611aac565b600090815260036020526040902054600160a060020a0316151590565b3390565b60008181526005602052604090208054600160a060020a031916600160a060020a038416908117909155819061167b82610e6e565b600160a060020a03167f8c5be1e5ebec7d5bd14f71427d1e84f3dd0314c0f7b2291e5b200ac8c7c3b92560405160405180910390a45050565b60006116c08284612b4a565b9392505050565b600160a060020a0382166116f05760405160e560020a62461bcd0281526004016107db9061283d565b6116f981611625565b156117195760405160e560020a62461bcd0281526004016107db906125fe565b61172560008383611b1e565b600160a060020a038216600090815260046020526040812080546001929061174e908490612b4a565b90915550506000818152600360205260408082208054600160a060020a031916600160a060020a03861690811790915590518392907fddf252ad1be2c89b69c2b068fc378daa952ba7f163c4a11628f55a4df523b3ef908290a45050565b82600160a060020a03166117bf82610e6e565b600160a060020a0316146117e85760405160e560020a62461bcd0281526004016107db90612904565b600160a060020a0382166118115760405160e560020a62461bcd0281526004016107db90612635565b61181c838383611b1e565b611827600082611646565b600160a060020a0383166000908152600460205260408120805460019290611850908490612ba4565b9091555050600160a060020a038216600090815260046020526040812080546001929061187e908490612b4a565b90915550506000818152600360205260408082208054600160a060020a031916600160a060020a0386811691821790925591518493918716917fddf252ad1be2c89b69c2b068fc378daa952ba7f163c4a11628f55a4df523b3ef91a4505050565b60006118ea82611625565b6119095760405160e560020a62461bcd0281526004016107db906126c9565b600061191483610e6e565b905080600160a060020a031684600160a060020a0316148061194f575083600160a060020a031661194484610805565b600160a060020a0316145b8061195f575061195f8185611411565b949350505050565b60006116c08284612b85565b60006116c08284612b62565b600061198a82610e6e565b905061199881600084611b1e565b6119a3600083611646565b600160a060020a03811660009081526004602052604081208054600192906119cc908490612ba4565b90915550506000828152600360205260408082208054600160a060020a031916905551839190600160a060020a038416907fddf252ad1be2c89b69c2b068fc378daa952ba7f163c4a11628f55a4df523b3ef908390a45050565b60008054600160a060020a03838116600160a060020a0319831681178455604051919092169283917f8be0079c531659141344cd1fd0a4f28419497f9722a3daafe3b4186f6b6457e09190a35050565b611a818484846117ac565b611a8d84848484611ba7565b61112d5760405160e560020a62461bcd0281526004016107db90612544565b6000600160e060020a031982167f80ac58cd000000000000000000000000000000000000000000000000000000001480611b0f5750600160e060020a031982167f5b5e139f00000000000000000000000000000000000000000000000000000000145b8061070f575061070f82611cfa565b611b298383836108e4565b600160a060020a038316611b4557611b4081611d2c565b611b68565b81600160a060020a031683600160a060020a031614611b6857611b688382611d70565b600160a060020a038216611b8457611b7f81611e0d565b6108e4565b82600160a060020a031682600160a060020a0316146108e4576108e48282611eef565b6000611bbb84600160a060020a0316611f33565b15611cef5783600160a060020a031663150b7a02611bd7611642565b8786866040518563ffffffff167c0100000000000000000000000000000000000000000000000000000000028152600401611c159493929190612393565b602060405180830381600087803b158015611c2f57600080fd5b505af1925050508015611c5f575060408051601f3d908101601f19168201909252611c5c91810190612269565b60015b611cbc573d808015611c8d576040519150601f19603f3d011682016040523d82523d6000602084013e611c92565b606091505b508051611cb45760405160e560020a62461bcd0281526004016107db90612544565b805181602001fd5b600160e060020a0319167f150b7a020000000000000000000000000000000000000000000000000000000014905061195f565b506001949350505050565b600160e060020a031981167f01ffc9a70000000000000000000000000000000000000000000000000000000014919050565b600980546000838152600a60205260408120829055600182018355919091527f6e1540171b6c0c960b71a7020d9f60077f6af931a8bbf590da0223dacf75c7af0155565b60006001611d7d84610ea6565b611d879190612ba4565b600083815260086020526040902054909150808214611dda57600160a060020a03841660009081526007602090815260408083208584528252808320548484528184208190558352600890915290208190555b506000918252600860209081526040808420849055600160a060020a039094168352600781528383209183525290812055565b600954600090611e1f90600190612ba4565b6000838152600a602052604081205460098054939450909284908110611e585760e060020a634e487b7102600052603260045260246000fd5b906000526020600020015490508060098381548110611e8a5760e060020a634e487b7102600052603260045260246000fd5b6000918252602080832090910192909255828152600a90915260408082208490558582528120556009805480611ed35760e060020a634e487b7102600052603160045260246000fd5b6001900381819060005260206000200160009055905550505050565b6000611efa83610ea6565b600160a060020a039093166000908152600760209081526040808320868452825280832085905593825260089052919091209190915550565b3b151590565b828054611f4590612bbb565b90600052602060002090601f016020900481019282611f675760008555611fad565b82601f10611f8057805160ff1916838001178555611fad565b82800160010185558215611fad579182015b82811115611fad578251825591602001919060010190611f92565b50611fb9929150611fd4565b5090565b604080518082019091526000808252602082015290565b5b80821115611fb95760008155600101611fd5565b600067ffffffffffffffff8084111561200457612004612c27565b604051601f8501601f19168101602001828111828210171561202857612028612c27565b60405284815291508183850186101561204057600080fd5b8484602083013760006020868301015250509392505050565b8035600160a060020a038116811461071257600080fd5b8035801515811461071257600080fd5b600082601f830112612090578081fd5b6116c083833560208501611fe9565b6000602082840312156120b0578081fd5b6116c082612059565b600080604083850312156120cb578081fd5b6120d483612059565b91506120e260208401612059565b90509250929050565b6000806000606084860312156120ff578081fd5b61210884612059565b925061211660208501612059565b9150604084013590509250925092565b6000806000806080858703121561213b578081fd5b61214485612059565b935061215260208601612059565b925060408501359150606085013567ffffffffffffffff811115612174578182fd5b8501601f81018713612184578182fd5b61219387823560208401611fe9565b91505092959194509250565b600080604083850312156121b1578182fd5b6121ba83612059565b91506120e260208401612070565b6000806000606084860312156121dc578283fd5b6121e584612059565b9250602084013567ffffffffffffffff811115612200578283fd5b61220c86828701612080565b92505061221b60408501612070565b90509250925092565b60008060408385031215612236578182fd5b61223f83612059565b946020939093013593505050565b60006020828403121561225e578081fd5b81356116c081612c40565b60006020828403121561227a578081fd5b81516116c081612c40565b600060208284031215612296578081fd5b813567ffffffffffffffff8111156122ac578182fd5b61195f84828501612080565b600080604083850312156122ca578182fd5b823567ffffffffffffffff8111156122e0578283fd5b6122ec85828601612080565b9250506120e260208401612070565b60006020828403121561230c578081fd5b5035919050565b60008060408385031215612325578182fd5b50508035926020909101359150565b60008151808452815b818110156123595760208185018101518683018201520161233d565b8181111561236a5782602083870101525b50601f01601f19169290920160200192915050565b600160a060020a0391909116815260200190565b6000600160a060020a038087168352808616602084015250836040830152608060608301526123c56080830184612334565b9695505050505050565b600160a060020a03929092168252602082015260400190565b602080825282518282018190526000919060409081850190868401855b828110156124415781518051600160a060020a031685528601516bffffffffffffffffffffffff16868501529284019290850190600101612405565b5091979650505050505050565b6020808252825182820181905260009190848201906040850190845b818110156124865783518352928401929184019160010161246a565b50909695505050505050565b901515815260200190565b6000602082526116c06020830184612334565b60208082526016908201527f4f6e6c7920617070726f76656420617274697374732e00000000000000000000604082015260600190565b6020808252602b908201527f455243373231456e756d657261626c653a206f776e657220696e646578206f7560408201527f74206f6620626f756e6473000000000000000000000000000000000000000000606082015260800190565b60208082526032908201527f4552433732313a207472616e7366657220746f206e6f6e20455243373231526560408201527f63656976657220696d706c656d656e7465720000000000000000000000000000606082015260800190565b60208082526026908201527f4f776e61626c653a206e6577206f776e657220697320746865207a65726f206160408201527f6464726573730000000000000000000000000000000000000000000000000000606082015260800190565b6020808252601c908201527f4552433732313a20746f6b656e20616c7265616479206d696e74656400000000604082015260600190565b60208082526024908201527f4552433732313a207472616e7366657220746f20746865207a65726f2061646460408201527f7265737300000000000000000000000000000000000000000000000000000000606082015260800190565b60208082526019908201527f4552433732313a20617070726f766520746f2063616c6c657200000000000000604082015260600190565b6020808252602c908201527f4552433732313a206f70657261746f7220717565727920666f72206e6f6e657860408201527f697374656e7420746f6b656e0000000000000000000000000000000000000000606082015260800190565b60208082526038908201527f4552433732313a20617070726f76652063616c6c6572206973206e6f74206f7760408201527f6e6572206e6f7220617070726f76656420666f7220616c6c0000000000000000606082015260800190565b6020808252602a908201527f4552433732313a2062616c616e636520717565727920666f7220746865207a6560408201527f726f206164647265737300000000000000000000000000000000000000000000606082015260800190565b60208082526029908201527f4552433732313a206f776e657220717565727920666f72206e6f6e657869737460408201527f656e7420746f6b656e0000000000000000000000000000000000000000000000606082015260800190565b6020808252818101527f4552433732313a206d696e7420746f20746865207a65726f2061646472657373604082015260600190565b6020808252602c908201527f4552433732313a20617070726f76656420717565727920666f72206e6f6e657860408201527f697374656e7420746f6b656e0000000000000000000000000000000000000000606082015260800190565b6020808252818101527f4f776e61626c653a2063616c6c6572206973206e6f7420746865206f776e6572604082015260600190565b60208082526029908201527f4552433732313a207472616e73666572206f6620746f6b656e2074686174206960408201527f73206e6f74206f776e0000000000000000000000000000000000000000000000606082015260800190565b6020808252600c908201527f4f6e6c792061646d696e732e0000000000000000000000000000000000000000604082015260600190565b60208082526021908201527f4552433732313a20617070726f76616c20746f2063757272656e74206f776e6560408201527f7200000000000000000000000000000000000000000000000000000000000000606082015260800190565b60208082526031908201527f4552433732313a207472616e736665722063616c6c6572206973206e6f74206f60408201527f776e6572206e6f7220617070726f766564000000000000000000000000000000606082015260800190565b6020808252602c908201527f455243373231456e756d657261626c653a20676c6f62616c20696e646578206f60408201527f7574206f6620626f756e64730000000000000000000000000000000000000000606082015260800190565b60208082526018908201527f546f6b656e20494420646f6573206e6f742065786973742e0000000000000000604082015260600190565b6020808252601c908201527f4f6e6c7920617070726f76656420617274697374206f776e6572732e00000000604082015260600190565b61ffff91909116815260200190565b61ffff92831681529116602082015260400190565b90815260200190565b60008219821115612b5d57612b5d612c0e565b500190565b600082612b805760e060020a634e487b710281526012600452602481fd5b500490565b6000816000190483118215151615612b9f57612b9f612c0e565b500290565b600082821015612bb657612bb6612c0e565b500390565b600281046001821680612bcf57607f821691505b60208210811415610e685760e060020a634e487b7102600052602260045260246000fd5b6000600019821415612c0757612c07612c0e565b5060010190565b60e060020a634e487b7102600052601160045260246000fd5b60e060020a634e487b7102600052604160045260246000fd5b600160e060020a031981168114610cc957600080fdfea26469706673582212200c97a164165979cb71b7a95193cb1b6250806fbb18e3ee66482724e2a49a20cb64736f6c63430008000033",
  "immutableReferences": {},
  "source": "// SPDX-License-Identifier: MIT\n\n/*\n  _                       _                 _     ______      _     _ _     _ _   _                 \n (_)                     | |     /\\        | |   |  ____|    | |   (_) |   (_) | (_)                \n  _ _ __ ___  _ __   ___ | |_   /  \\   _ __| |_  | |__  __  _| |__  _| |__  _| |_ _  ___  _ __  ___ \n | | '_ ` _ \\| '_ \\ / _ \\| __| / /\\ \\ | '__| __| |  __| \\ \\/ / '_ \\| | '_ \\| | __| |/ _ \\| '_ \\/ __|\n | | | | | | | | | | (_) | |_ / ____ \\| |  | |_  | |____ >  <| | | | | |_) | | |_| | (_) | | | \\__ \\\n |_|_| |_| |_|_| |_|\\___/ \\__/_/    \\_\\_|   \\__| |______/_/\\_\\_| |_|_|_.__/|_|\\__|_|\\___/|_| |_|___/\n                                                                                                    \n Written by Ian Olson\n*/\n\npragma solidity ^0.8.0;\n\nimport \"@openzeppelin/contracts/access/Ownable.sol\";\nimport \"@openzeppelin/contracts/token/ERC721/extensions/ERC721Enumerable.sol\";\nimport \"@openzeppelin/contracts/utils/math/SafeMath.sol\";\nimport \"./rarible/library/LibPart.sol\";\nimport \"./rarible/library/LibRoyaltiesV2.sol\";\nimport \"./rarible/RoyaltiesV2.sol\";\n\ncontract ImnotArtExhibitions is Ownable, ERC721Enumerable, RoyaltiesV2 {\n    using SafeMath for uint256;\n\n    // ---\n    // Constants\n    // ---\n    bytes4 private constant _INTERFACE_ID_ERC165 = 0x01ffc9a7;\n    bytes4 private constant _INTERFACE_ID_ERC721 = 0x80ac58cd;\n    bytes4 private constant _INTERFACE_ID_ERC721_METADATA = 0x5b5e139f;\n    bytes4 private constant _INTERFACE_ID_ERC721_ENUMERABLE = 0x780e9d63;\n    bytes4 private constant _INTERFACE_ID_EIP2981 = 0x2a55205a;\n    uint16 constant public artistFirstSaleBps = 6500; // 65% of First Sale\n    uint16 constant public artistSecondarySaleBps = 500; // 5% of Secondary Sale\n    uint16 constant public imnotArtSecondarySaleBps = 250; // 2.5% of Secondary Sale\n\n    // ---\n    // Properties\n    // ---\n    uint256 public nextTokenId = 1;\n    address public imnotArtPayoutAddress;\n    address public marketplaceAddress;\n    string private _contractUri;\n    bool public useRoyaltyContracts;\n\n    // ---\n    // Structs\n    // ---\n\n    /* Only need Artist BPS, as remainder would be given to imnotArt after Artist is paid */\n    struct TokenBps {\n        uint16 artistFirstSaleBps;\n        uint16 artistSecondarySaleBps;\n    }\n\n    // ---\n    // Events\n    // ---\n    event PermanentURI(string _value, uint256 indexed _id); // OpenSea Freezing Metadata\n    event Debug(string _value, address royaltyAddress);\n\n    // ---\n    // Security\n    // ---\n    mapping(address => bool) private _isAdmin;\n    mapping(address => bool) private _isArtist;\n\n    modifier onlyAdmin() {\n        require(_isAdmin[msg.sender], \"Only admins.\");\n        _;\n    }\n\n    modifier onlyArtist() {\n        require(_isArtist[msg.sender], \"Only approved artists.\");\n        _;\n    }\n\n    modifier onlyValidTokenId(uint256 tokenId) {\n        require(_exists(tokenId), \"Token ID does not exist.\");\n        _;\n    }\n\n    // ---\n    // Mappings\n    // ---\n    mapping(uint256 => string) private _metadataByTokenId;\n    mapping(uint256 => address) public artistByTokenId;\n    mapping(uint256 => TokenBps) public tokenBpsByTokenId;\n    mapping(address => address) public royaltyContractByArtistAddress;\n\n    // ---\n    // Constructor\n    // ---\n    constructor() ERC721(\"imnotArt Exhibitions\", \"IMNOTART\") {\n        _isAdmin[msg.sender] = true;\n        useRoyaltyContracts = false;\n        // imnotArtPayoutAddress = 0xaB5B4e5845B124785027d9944baaFb7f064B3F72; // @TODO(iolson): Proper Production Payout Address\n        // _contractUri = \"ipfs://bafkreigrkm4ta353qumma6g6fpfg7mbnhyuyckdy2hi6udc5ov5asjcsiu\"; // @TODO(iolson): Proper Production Contract URI\n    }\n\n    // ---\n    // Supported Interfaces\n    // ---\n    function supportsInterface(bytes4 interfaceId) public view virtual override returns (bool) {\n        return interfaceId == _INTERFACE_ID_ERC165\n        || interfaceId == LibRoyaltiesV2._INTERFACE_ID_ROYALTIES\n        || interfaceId == _INTERFACE_ID_ERC721\n        || interfaceId == _INTERFACE_ID_ERC721_METADATA\n        || interfaceId == _INTERFACE_ID_ERC721_ENUMERABLE\n        || interfaceId == _INTERFACE_ID_EIP2981\n        || super.supportsInterface(interfaceId);\n    }\n\n    // ---\n    // Minting\n    // ---\n    function mintToken(address artistAddress, string memory metadataUri, bool transferToMarketplaceContract) public onlyAdmin returns (uint256 tokenId) {\n        tokenId = nextTokenId;\n        nextTokenId = nextTokenId.add(1);\n\n        _mint(artistAddress, tokenId);\n        artistByTokenId[tokenId] = artistAddress;\n\n        _metadataByTokenId[tokenId] = metadataUri;\n        emit PermanentURI(metadataUri, tokenId);\n\n        TokenBps memory tokenBps = TokenBps({\n            artistFirstSaleBps: artistFirstSaleBps,\n            artistSecondarySaleBps: artistSecondarySaleBps\n        });\n        tokenBpsByTokenId[tokenId] = tokenBps;\n\n        if (transferToMarketplaceContract) {\n            _transfer(artistAddress, marketplaceAddress, tokenId);\n        }\n    }\n\n    function artistMintToken(string memory metadataUri, bool transferToMarketplaceContract) public onlyArtist returns (uint256 tokenId) {\n        tokenId = nextTokenId;\n        nextTokenId = nextTokenId.add(1);\n\n        _mint(msg.sender, tokenId);\n        artistByTokenId[tokenId] = msg.sender;\n\n        _metadataByTokenId[tokenId] = metadataUri;\n        emit PermanentURI(metadataUri, tokenId);\n\n        TokenBps memory tokenBps = TokenBps({\n            artistFirstSaleBps: artistFirstSaleBps,\n            artistSecondarySaleBps: artistSecondarySaleBps\n        });\n        tokenBpsByTokenId[tokenId] = tokenBps;\n\n        if (transferToMarketplaceContract) {\n            _transfer(msg.sender, marketplaceAddress, tokenId);\n        }\n    }\n\n    // ---\n    // Burning\n    // ---\n    function burn(uint256 tokenId) public virtual onlyArtist {\n        //solhint-disable-next-line max-line-length\n        require(_isApprovedOrOwner(_msgSender(), tokenId), \"Only approved artist owners.\");\n        _burn(tokenId);\n    }\n\n    // ---\n    // Contract Updates\n    // ---\n    function updateImnotArtPayoutAddress(address newPayoutAddress) public onlyAdmin {\n        imnotArtPayoutAddress = newPayoutAddress;\n    }\n\n    function updateMarketplaceAddress(address newMarketplaceAddress) public onlyAdmin {\n        marketplaceAddress = newMarketplaceAddress;\n    }\n\n    function updateContractUri(string memory newContractUri) public onlyAdmin {\n        _contractUri = newContractUri;\n    }\n\n    function addAdmin(address newAdminAddress) public onlyAdmin {\n        _isAdmin[newAdminAddress] = true;\n    }\n\n    function removeAdmin(address removeAdminAddress) public onlyAdmin {\n        _isAdmin[removeAdminAddress] = true;\n    }\n\n    function addApprovedArtist(address newArtistAddress) public onlyAdmin {\n        _isArtist[newArtistAddress] = true;\n    }\n\n    function removeApprovedArtist(address removeArtistAddress) public onlyAdmin {\n        _isArtist[removeArtistAddress] = false;\n    }\n\n    function toggleUseRoyaltyContracts() public onlyAdmin {\n        useRoyaltyContracts = !useRoyaltyContracts;\n    }\n\n    function addRoyaltyContractAddress(address artistAddress, address royaltyContractAddress) public onlyAdmin {\n        royaltyContractByArtistAddress[artistAddress] = royaltyContractAddress;\n    }\n\n    // ---\n    // Metadata\n    // ---\n    function tokenURI(uint256 tokenId) public view override virtual onlyValidTokenId(tokenId) returns (string memory) {\n        return _metadataByTokenId[tokenId];\n    }\n\n    // ---\n    // Contract Retrieve Functions\n    // ---\n    function getTokensOfOwner(address _owner) public view returns (uint256[] memory tokenIds) {\n        uint256 tokenCount = balanceOf(_owner);\n\n        if (tokenCount == 0) {\n            tokenIds = new uint256[](0);\n        } else {\n            tokenIds = new uint256[](tokenCount);\n            uint256 index;\n            for (index = 0; index < tokenCount; index++) {\n                tokenIds[index] = tokenOfOwnerByIndex(_owner, index);\n            }\n        }\n\n        return tokenIds;\n    }\n\n    // ---\n    // Secondary Marketplace Functions\n    // ---\n\n    /* OpenSea */\n    function contractURI() public view virtual returns (string memory) {\n        return _contractUri;\n    }\n\n    /* Rarible Royalties V2 */\n    function getRaribleV2Royalties(uint256 tokenId) external view override onlyValidTokenId(tokenId) returns (LibPart.Part[] memory) {\n        LibPart.Part[] memory royalties = new LibPart.Part[](2);\n        \n        royalties[0] = LibPart.Part({\n            account: payable(artistByTokenId[tokenId]),\n            value: uint96(artistSecondarySaleBps)\n        });\n\n        royalties[1] = LibPart.Part({\n            account: payable(imnotArtPayoutAddress),\n            value: uint96(imnotArtSecondarySaleBps)\n        });\n\n        return royalties;\n    }\n\n    /* EIP-2981 - https://eips.ethereum.org/EIPS/eip-2981 */\n    function royaltyInfo(uint256 tokenId, uint256 salePrice) external view onlyValidTokenId(tokenId) returns (address receiver, uint256 amount) {\n        address artistAddress = artistByTokenId[tokenId];\n        uint256 combinedBpsForSinglePayout = uint256(artistSecondarySaleBps).add(uint256(imnotArtSecondarySaleBps));\n        uint256 royaltyAmount = SafeMath.div(SafeMath.mul(salePrice, combinedBpsForSinglePayout), 10000);\n\n        address payoutAddress = imnotArtPayoutAddress;\n        \n        if (useRoyaltyContracts) {\n            payoutAddress = royaltyContractByArtistAddress[artistAddress];\n        }\n\n        if (payoutAddress == address(0)) {\n            payoutAddress = imnotArtPayoutAddress;\n        }\n\n        return (payoutAddress, royaltyAmount);\n    }\n}",
  "sourcePath": "/Users/ianolson/code/imnotart-exhibitions/contracts/ImnotArtExhibitions.sol",
  "compiler": {
    "name": "solc",
    "version": "0.8.0+commit.c7dfd78e.Emscripten.clang"
  },
  "schemaVersion": "3.3.4",
  "updatedAt": "2021-08-08T08:12:14.994Z",
  "devdoc": {
    "kind": "dev",
    "methods": {
      "approve(address,uint256)": {
        "details": "See {IERC721-approve}."
      },
      "balanceOf(address)": {
        "details": "See {IERC721-balanceOf}."
      },
      "getApproved(uint256)": {
        "details": "See {IERC721-getApproved}."
      },
      "isApprovedForAll(address,address)": {
        "details": "See {IERC721-isApprovedForAll}."
      },
      "name()": {
        "details": "See {IERC721Metadata-name}."
      },
      "owner()": {
        "details": "Returns the address of the current owner."
      },
      "ownerOf(uint256)": {
        "details": "See {IERC721-ownerOf}."
      },
      "renounceOwnership()": {
        "details": "Leaves the contract without owner. It will not be possible to call `onlyOwner` functions anymore. Can only be called by the current owner. NOTE: Renouncing ownership will leave the contract without an owner, thereby removing any functionality that is only available to the owner."
      },
      "safeTransferFrom(address,address,uint256)": {
        "details": "See {IERC721-safeTransferFrom}."
      },
      "safeTransferFrom(address,address,uint256,bytes)": {
        "details": "See {IERC721-safeTransferFrom}."
      },
      "setApprovalForAll(address,bool)": {
        "details": "See {IERC721-setApprovalForAll}."
      },
      "supportsInterface(bytes4)": {
        "details": "See {IERC165-supportsInterface}."
      },
      "symbol()": {
        "details": "See {IERC721Metadata-symbol}."
      },
      "tokenByIndex(uint256)": {
        "details": "See {IERC721Enumerable-tokenByIndex}."
      },
      "tokenOfOwnerByIndex(address,uint256)": {
        "details": "See {IERC721Enumerable-tokenOfOwnerByIndex}."
      },
      "tokenURI(uint256)": {
        "details": "See {IERC721Metadata-tokenURI}."
      },
      "totalSupply()": {
        "details": "See {IERC721Enumerable-totalSupply}."
      },
      "transferFrom(address,address,uint256)": {
        "details": "See {IERC721-transferFrom}."
      },
      "transferOwnership(address)": {
        "details": "Transfers ownership of the contract to a new account (`newOwner`). Can only be called by the current owner."
      }
    },
    "version": 1
  },
  "userdoc": {
    "kind": "user",
    "methods": {},
    "version": 1
  }
}